:020000021000EC
:10C0000000000120DDA4020005A5020007A5020032
:10C0100009A502000BA502000DA50200000000000A
:10C020000000000000000000000000000FA502005A
:10C0300011A502000000000013A5020015A50200D2
:10C0400017A5020017A502006504020017A502004B
:10C0500017A5020017A5020089F9010059FD01008A
:10C0600017A5020017A5020017A5020017A50200D8
:10C0700017A5020017A5020017A5020017A50200C8
:10C0800017A5020029C9010017A5020017A5020083
:10C09000EDC9010017A5020049A4020017A502007E
:10C0A00017A5020017A5020017A5020017A5020098
:10C0B00017A5020017A50200000000000000000004
:10C0C00017A5020017A5020017A5020017A5020078
:10C0D00017A5020017A5020017A502000000000026
:10C0E0000000000000000000000000000000000050
:10C0F0000000000000000000000000000000000040
:10C10000000000000000000000000000000000002F
:10C11000000000000000000000000000000000001F
:10C4000010B5054C237833B9044B13B10448AFF38E
:10C4100000800123237010BD902100200000000047
:10C42000D4B70200084B10B51BB108480849AFF358
:10C4300000800848036803B910BD074B002BFBD0F0
:10C44000BDE81040184700BF00000000D4B702004C
:10C45000942100207C21002000000000154B002BBF
:10C4600008BF134B9D46A3F5803A00218B460F462B
:10C470001348144A121A00F065F80F4B002B00D035
:10C4800098470E4B002B00D0984700200021040055
:10C490000D000D48002802D00C48AFF3008000F0DA
:10C4A0002BF82000290005F0F7F900F011F800BF83
:10C4B0000000080000000120000000000000000053
:10C4C00090210020A03500200000000000000000A6
:10C4D00008B5074B044613B10021AFF30080054BAC
:10C4E0001868836A03B19847204600F033F800BF0C
:10C4F0000000000064B3020070B50E4B0E4CE41A4D
:10C50000A41000251E46A54204D056F825309847B1
:10C510000135F8E70EF018FF084C094BE41AA41097
:10C5200000251E46A54204D056F82530984701350F
:10C53000F8E770BD742100207421002078210020CC
:10C540007421002002440346934202D003F8011BE9
:10C55000FAE77047FEE700BF2DE9F84F234B1A7842
:10C560008AB3DFF88CB0DFF88C80DFF88C90002481
:10C570004FF0010A03E00134E4B2944223D226B220
:10C58000D8F80050DBF8003015F836000AFA00F150
:10C59000194205EBC607EED0154A23EA01031360E2
:10C5A00003F0E8F915F83650D9F800300AFA05F129
:10C5B0000B4000FA05F18B4207D00C4B01341A787E
:10C5C000E4B29442DBD3BDE8F88F79787B68A1F1BF
:10C5D0000101B1FA81F14909002BEED0091A284670
:10C5E000B1FA81F149099847E7E700BFB42100207B
:10C5F000DC210020B0210020D821002070B50646A3
:10C60000114800F03FFD40B9104D01242B68B440A3
:10C610001C4203D023EA04042C6070BD304603F0B2
:10C62000A9F90B4E326860B122432B680949326088
:10C630001C432C60044809680022BDE8704000F0EB
:10C64000B7BC22EA0402F0E7B8210020DC21002078
:10C65000D8210020AC210020F0B5042A85B017466F
:10C6600002D8072005B0F0BD0191054603F04CF853
:10C670000199002830D01C4CDFF888E01B481C4A88
:10C680001C4B256000264C1E07608EF800101660BB
:10C690001E60E4B2032709B918E01C4623B205EB7B
:10C6A000C30215F833009378134A8DF80D3003A9AF
:10C6B0008DF80C708DF80E608DF80F6003F02EF879
:10C6C000631E0028CED1DBB2002CE6D10B4A0C4809
:10C6D000002100F05BFCC5E7019102F0DDFF01994C
:10C6E0000028C8D0BEE700BFB0210020AC21002048
:10C6F000D8210020DC210020FDC5010059C5010022
:10C7000068B30200B421002070B5084D2B785BB1EE
:10C71000074E00243368012113F8340003F0C8F8F1
:10C720002B780134A342F5D8002070BDB42100203D
:10C73000B021002000B585B000230390194644F2D3
:10C74000010001AAADF80430029300F003F805B02F
:10C750005DF804FBBFF34F8F0549064BCA6802F42E
:10C76000E0621343CB60BFF34F8F00BFFDE700BF14
:10C7700000ED00E00400FA0559B10AB9092070473C
:10C78000531E1A40FAD1826001608380C260104655
:10C7900070470E20704700BF10B48468C26803461B
:10C7A0008088121B904203D204205DF8044B70472E
:10C7B000DA681C6802400020A154DA680132DA60AD
:10C7C0005DF8044B704700BF03468068DA6890420A
:10C7D0000DD010B49A6898881C6802400020A25CB2
:10C7E0000A709A6801329A605DF8044B7047052020
:10C7F000704700BF484B494830B401214FF48034A2
:10C800004FF400352F22C0F88050C3F8484310463B
:10C81000C3F808435960013800BF00BF00BF00BF24
:10C8200000BF00BF00BF00BF00BF00BF00BF00BF10
:10C8300000BF00BF00BF00BF00BF00BF00BF00BF00
:10C8400000BF00BF00BF00BF00BF00BF00BF00BFF0
:10C8500000BF00BF00BF00BF00BF00BF00BF00BFE0
:10C8600000BF00BF00BF00BF00BF00BF00BF00BFD0
:10C8700000BF00BF00BF00BF00BF00BF00BF00BFC0
:10C8800000BF00BF00BF00BF00BF00BFC3D1244C2A
:10C890009960002310462360013800BF00BF00BF2D
:10C8A00000BF00BF00BF00BF00BF00BF00BF00BF90
:10C8B00000BF00BF00BF00BF00BF00BF00BF00BF80
:10C8C00000BF00BF00BF00BF00BF00BF00BF00BF70
:10C8D00000BF00BF00BF00BF00BF00BF00BF00BF60
:10C8E00000BF00BF00BF00BF00BF00BF00BF00BF50
:10C8F00000BF00BF00BF00BF00BF00BF00BF00BF40
:10C9000000BF00BF00BF00BF00BF00BF00BFC3D15A
:10C91000044A137030BC70470010014000E100E091
:10C92000E0210020002200202DE9F041274A284B79
:10C930000025C2F84051C2F84451C2F84851C2F82B
:10C940004C51C2F80051C2F804511B681BB3214975
:10C95000D2F804250C68204F141B1A6824F07F4479
:10C96000A242A84609D8197CDE69A41A1544A1B9C7
:10C970001EB133461A68A242F5D9184B18491A78E5
:10C980000B789A421BD01749174A41F823504FF4AD
:10C990008013C2F80031BDE8F081D3F814C083F8E9
:10C9A00010803A689B69604619462AB19047002872
:10C9B000DED0FFF7BFFEDBE71846E047D8E7531CA1
:10C9C000DBB2022B08BF00230B70DCE70010014034
:10C9D000E4210020E0210020E8210020F4210020B3
:10C9E000F5210020F821002000E100E02DE9F04FC2
:10C9F000A34AA44913780978A34887B00068019036
:10CA0000994200F061810133DBB2022B08BF0023A1
:10CA100013709E4A52F823C0019B9B4A634423F043
:10CA20007F43136001230393994B9A4A93F800B014
:10CA3000994B1268D3F800A0984B05921B7802938B
:10CA4000914B1B680493D8460025114608F1FF3826
:10CA50005FFA88F8B8F1FF0F4DD00FFA88F30AEBB0
:10CA6000C3041AF833006778BE467045EED000EB79
:10CA70004006636894F8029013F836700130C0B233
:10CA8000814508BF0020022F03EBC6030DD0032F02
:10CA9000EBD10AB9E9E71A46D3691574002BFAD12C
:10CAA00019461A4694F801E0DFE75F68002ADCD0F7
:10CAB000974217D0164600E01E46F369002BD4D0EB
:10CAC0009F42F9D1B742334600F0EC80FE693F68DF
:10CAD000DE61002EE6D033683B44336094F801E019
:10CAE0000A46C2E7D36917461946002B00F0E080DA
:10CAF0001A463B46EAE713460A46664904980A6026
:10CB00006149086065499DF808000870039902931F
:10CB10001846002940F0DD80059B1B1A18BF012331
:10CB200003930D465C4B029E1B680593564BDFF842
:10CB30007081D3F800E0574BD3F80090574B1B7827
:10CB4000049300274FF0010C30460BF1FF3B5FFAD6
:10CB50008BFBBBF1FF0F00F08380059B03EBCB0445
:10CB6000019455B36A68A9682B46ED69CEEB0206BD
:10CB700026F07F4646453ED8314419605F609F608D
:10CB800083F810C0DF61002866D006688E4244D268
:10CB90008246019C03E016688E4245D29246DAF83E
:10CBA0001C20891B002AF6D10194DA610246196023
:10CBB0001046CAF81C30002DD4D1019A137852784F
:10CBC0009A42C2D0019E5A1C96F802A07168D2B255
:10CBD00092453446327008BF224603EB430308BF38
:10CBE000157011F8332001EBC306012A73681FD0BA
:10CBF00002461046DFE7C2EB0E0222F07F428A4275
:10CC000002D2891A1960B9E71F605F609F6083F8DC
:10CC100010C0DF6100B306680021711A1A46016076
:10CC20009946D8611046C6E7761A01941660BCE7AB
:10CC300093F810A0BAF1000FDAD1B2685A60F16827
:10CC400099603469DC60049C76699E61002C8DD00B
:10CC5000C3F804A0524689E71A4699461046AAE747
:10CC60000C4BC3F80090029B8342064652D1039BB3
:10CC7000002B4FD1094A0023137007B0BDE8F08F95
:10CC8000F4210020F5210020E0210020F8210020DF
:10CC9000EC210020E4210020F0210020F6210020DA
:10CCA000FEFF7F00D36937461946002B7FF420AF83
:10CCB00003F1804303F58833012201269A600A4676
:10CCC00004913B46029601E74FF0000CCDF80CC0F2
:10CCD000AAE6002528462C46B3B11968614500F242
:10CCE000D880DE681C60C1EB0C0C0844D9693EB1E9
:10CCF000019ADD61821822F07F429E605A601D46D3
:10CD00000B460A46002BE8D16449029301230A60CE
:10CD1000039307E7002E00F0B9806149614BD1F819
:10CD200004451B68604DD6F800802878E21A22F08E
:10CD30007F42033200285BD042452CBF9A1803EB98
:10CD40000802574922F07F43C1F84035D1F8042545
:10CD5000121B1B1B22F07F4223F07F4303329A42B7
:10CD600088D9D1F80435C1F840352F20013800BFEB
:10CD700000BF00BF00BF00BF00BF00BF00BF00BFBB
:10CD800000BF00BF00BF00BF00BF00BF00BF00BFAB
:10CD900000BF00BF00BF00BF00BF00BF00BF00BF9B
:10CDA00000BF00BF00BF00BF00BF00BF00BF00BF8B
:10CDB00000BF00BF00BF00BF00BF00BF00BF00BF7B
:10CDC00000BF00BF00BF00BF00BF00BF00BF00BF6B
:10CDD00000BF00BF00BF00BF00BF00BF00BF00BF5B
:10CDE00000BFC3D1314B4FF40032C3F8002141E7FB
:10CDF0002E4F4FF4803C4FF4003E0126C1F844C34F
:10CE00002F20C1F804C3C7F880E1C7F800E00E6026
:10CE1000013800BF00BF00BF00BF00BF00BF00BFA0
:10CE200000BF00BF00BF00BF00BF00BF00BF00BF0A
:10CE300000BF00BF00BF00BF00BF00BF00BF00BFFA
:10CE400000BF00BF00BF00BF00BF00BF00BF00BFEA
:10CE500000BF00BF00BF00BF00BF00BF00BF00BFDA
:10CE600000BF00BF00BF00BF00BF00BF00BF00BFCA
:10CE700000BF00BF00BF00BF00BF00BF00BF00BFBA
:10CE800000BF00BF00BFC3D12E7055E7FFF7B2FC53
:10CE9000F0E6CCEB0101196036E700BFE421002089
:10CEA00000100140E02100200022002000E100E00D
:10CEB0002DE9F04F12F0030485B003D0072005B030
:10CEC000BDE8F08F002A49D08DE80F00FFF792FCF3
:10CED0000199029ADFF8A0B0917001EB410502F1CF
:10CEE0001807ED007E1991729174039B1E49DFF8BB
:10CEF0008CA0DFF88090DFF88880DFF888C0DFF84A
:10CF000088E0D66035445561CBF800304FF4801688
:10CF1000C023032514705470576014725472147433
:10CF20005474C9F800208AF80050C8F800408CF802
:10CF300000408EF800400D4FC1F8806181F8143335
:10CF40000E600098C7F8080581F81133084AD7F831
:10CF500004351360204605B0BDE8F08F054B07206F
:10CF60001A6005B0BDE8F08F00E100E0001001405C
:10CF7000E0210020F0210020E8210020EC21002009
:10CF8000E4210020F4210020F5210020074B1B683C
:10CF900023B12AB120B10368187C18B1082070476A
:10CFA0000720704759745A61704700BFF021002074
:10CFB000304B1B6823B118B1042903D807207047F0
:10CFC00008207047F0B54469002C4DD0447C012CFA
:10CFD0000CBF0E460026EFF30584C4F3080494B199
:10CFE000103C65B2002D38DB05F1604404F5614466
:10CFF00094F800436409E4B2022C39D0062C0CBF2B
:10D000000824102400E0102423445C7893F802E004
:10D010001F78651CEDB2AE4508BF0025AF4225D094
:10D0200004EB4404D3F804E0E4001EEB04071DD035
:10D030004FF0010C0EF804C0DFF844E078600E4CAD
:10D04000DEF80405B8604FF4801EF9603E617A6135
:10D050005D70C4F800E10020F0BD084D04F00F043D
:10D0600025442C7E6409C6E70820F0BD0420F0BDED
:10D070000024C9E7F021002000E100E0FCEC00E022
:10D0800000100140264B1A68F2B10346E0B1416935
:10D09000D1B10021F0B50174EFF30581C1F30801AE
:10D0A000A1B1103948B2002833DB00F1604101F52D
:10D0B000614191F800134909C9B2022927D0062914
:10D0C0000CBF0821102102E00820704710210A44FB
:10D0D0005178957810784C1CE4B2A54208BF002422
:10D0E000A04212D001EB41015068C90010EB010EC3
:10D0F0000BD00C4D022747544FF48016CEF8043065
:10D100005470C5F800610020F0BD0420F0BD00217E
:10D11000DDE7054801F00F010844017E4909CBE72E
:10D12000F021002000E100E0FCEC00E0F0B4EFF3BF
:10D13000108472B60E4B9A68B2B90E4901259D60F3
:10D14000D1F880700C4D2E463D401D60C1F88060C6
:10D15000D1F884505D604FF0FF33C1F88430027025
:10D1600004B962B6F0BC704701230370F8E700BF52
:10D170009035002000E100E0FC06FFBC094B9A68F6
:10D1800072B168B910B4EFF3108272B606491C6828
:10D190000C605C684C60986002B962B65DF8044B44
:10D1A000704700BF9035002000E100E0033080B2FE
:10D1B00040F2FD33984201D90920704730B4124B38
:10D1C0001C783CB95D891A892A44024492B2B2F5AE
:10D1D000806F10D31A7C0C4C12B1072030BC704702
:10D1E000658B228B2A44024492B2B2F5806FF4D24E
:10D1F0000124224600E0224603EB02130C805A89E8
:10D20000104458810020E9E760220020F0B543680F
:10D210004BB1304A1468A34205D35268934202D8F6
:10D2200013F0030234D00023DFF8B0E00B804FF09E
:10D23000010C4FF6FF75DEF80470002307F58054EB
:10D24000C3B15A88033203EB8203A34216D21A6891
:10D25000013213D09A881E88AA42F2D0002EF0D054
:10D260009E6802689642EBD11B4A43601389038192
:10D270000120F0BD07F10803A342E8D3BCF1020F7F
:10D28000A1F800C00EF1100E21D04FF0020CD2E731
:10D29000114C05892489A542C5D105689C68A54221
:10D2A000C1D10E4C6068834205D900F5805083429D
:10D2B00001D2134608E06269934208D902F5805210
:10D2C000934238BF012302D20B800120F0BD002021
:10D2D000F0BD00BF802100208022002060220020BD
:10D2E0002DE9F04FB44C256FEF007E1BB6008BB0DC
:10D2F000A25D511E034604EB060BA046052900F271
:10D300000D81DFE801F05130301D1D03002B59D194
:10D31000DFF8BC9299F80C20002A00F0428399F8BB
:10D32000002089F80C30531E062B00F2F680DFE84F
:10D3300013F0F6027B026B018601F400A502B6022F
:10D34000002B40D1C5EB070904EB890999F80410BB
:10D35000012900F09083C0F07983022940F0DE803B
:10D360000023069337E0791B04EB810101F10800EB
:10D37000DFF868E2B0F80A900EEB0919002B40F0D4
:10D38000AC80017AD9F80430B9F8080003EB8003C7
:10D39000062900F28383DFE811F06D0129020C02F7
:10D3A000CD01B401A401A101002B40F08E809BF8B7
:10D3B0000430032B00F25C84DFE813F0F20012016A
:10D3C000E300B2000622012318F8061006938B1E14
:10D3D000012B40F29880013A052A07D8DFE802F0D5
:10D3E0002D664F3E310305238DF81430734D05F142
:10D3F0000C0655F8043B0BB105A89847B542F8D187
:10D40000206F6D4DC0EBC00004EB800000211C229A
:10D41000FFF798F8636F43B12A6F0132013B02F0C6
:10D4200003026B672A67002B67D1654A137823F0E4
:10D43000040313700BB0BDE8F08F00238DF8143097
:10D44000D4E77D1B04EB85050422EB88ADF8203082
:10D4500000238DF81420ADF82230C7E77D1B04EBC4
:10D4600085052B46E98833F8082FADF820105B6856
:10D4700007930323ADF822208DF81430B6E77D1B07
:10D4800004EB85052B7CEA682889A9880792A3F11B
:10D4900006030222B3FA83F35B098DF82430ADF85A
:10D4A0002000ADF822108DF814209FE77D1B04EBBF
:10D4B000850501232889A988EA68ADF82000ADF820
:10D4C000221007928DF8143090E73D490B78012225
:10D4D00023F001030B70134676E7C888B9F80A30C9
:10D4E000B9F8081000F1030E1B1A033B7144A9F8A8
:10D4F0000A30A9F80810012366E70020FFF7F0FEC4
:10D500000BB0BDE8F08F2F4B9BF81660186C596C70
:10D510003044891B186459645DE706220F2353E7E2
:10D52000DFF8B090284AD9F800102848022301F00B
:10D5300051FB274BDFF8A4C05B88D9F80010B9F87D
:10D5400004A01B010CEB03024FF0000E0CF803E0EB
:10D550005368C9F800304FF0020C5160A2F808A0DF
:10D560008BF804E0A9F804C000283FF463AF7B1BEC
:10D5700014F8232012490B7823F001030B700E23BB
:10D5800022E7DFF850901148D9F80010012201F08D
:10D5900069FB02220023A9F804208BF80430E3E79A
:10D5A0000C4B0A4819680C4A022301F013FB0123B3
:10D5B0008BF80430D8E700BF902200201C23002005
:10D5C000102300200422002070B3020080210020DC
:10D5D000802200200823002078B30200602200206F
:10D5E000B74B009319461B78022B00F0F5820B7C99
:10D5F000022B00F00283B34A137843F0020323F0B6
:10D60000010313700122ABE6D9F80420AE49538818
:10D61000B1F804E00968AD4803339BB201EB8E0119
:10D620004FF0030E89F800E001F0D4FA0346002B16
:10D630003FF400AF1C2202FB05F2A25CC4E6B9F87D
:10D6400002209F4BDFF8A09203EB02139A89002A75
:10D6500000F08B829C4B9D4819684FF0020C4FF0F4
:10D66000050E0122A3F804C089F800E001F0FAFADF
:10D670000346DCE7C5EB070A4FEA8A0A04EB0A0C0B
:10D6800019460CF1040201239048CDF800C001F0C6
:10D69000A1FADDF800C002238CF8103000283FF416
:10D6A000C9AE8B4B13F80A200E23781B04EB8000C5
:10D6B000B9F80A10B0F806E0B9F808000EF1030C4A
:10D6C000CEEB010141F61D5E604403397345A9F8B4
:10D6D0000800A9F80A103FF443AE75E641F61D5361
:10D6E000E3E77C4B794859687B4A012301F072FAE1
:10D6F000002840F033827D1B04EB8504062323744D
:10D7000098E67A1B4FEA820A04EB0A01714A89699A
:10D7100011604FF0000E104605A90093C2F804E016
:10D72000FFF774FD009B0028A4D1694B13F80A2071
:10D730000A2349E66948416C002900F0B1817A1B4F
:10D7400004EB8202D0F840E0B2F814C00092013934
:10D7500002F1100A416450F83E2003EB8C0100EB0B
:10D76000CE0C0EF1010E0EF0070EBCF80430C0F81E
:10D7700040E05648CDF804C001F02CFADDF804C0B2
:10D780009AF80630BAF80420BCF80410013B0A44A9
:10D79000DBB2AAF804208AF8063013B9009A0123F4
:10D7A000137400283FF446AE7A1B0E2314F822208F
:10D7B0007BE7C5EB070A4FEA8A0A04EB0A0203F18A
:10D7C00008010C320123414801F004FA04EB0A037A
:10D7D0003F499A7D002A14BF032201221A740028AF
:10D7E0003FF428AE11F80A200E235EE77A1B4FEAB9
:10D7F000820C04EB0C0A0AF1080A191D5246012397
:10D800003248CDF800C001F0E5F9DDF800C014F8A9
:10D810000C20032A0CBF052306238AF808300028B1
:10D820003FF408AE0E2340E7D9F80420B9F802E02F
:10D83000002A00F0B981224B009319464FEA0E1ED0
:10D84000538871440333496802EB830201F5805029
:10D85000824280F097801368013318BF4FF6FF7C37
:10D8600000F090809388B2F800A0634500F08080BB
:10D87000BAF1000F7CD0C9F80420C7E6B9F802302D
:10D880000F4A00921B011A440623516889F80030A0
:10D890000E48134A022301F09DF90346C7E60A4BDE
:10D8A0000A4819680F4A4FF0070C4FF0000E022388
:10D8B00089F800C0C9F804E001F08CF90346B6E627
:10D8C0006022002010230020082300208021002057
:10D8D00090220020542200206CB302000422002079
:10D8E00070B3020078B3020080220020B34BB9F875
:10D8F00008101A781B7CB2FA82F2B3FA83F3520949
:10D900005B0901314FF0000E012089F80A2089F8E7
:10D910000B30A9F8081089F80CE089F8000099F894
:10D920000A30A74A53B1A54B00939B8900219172FD
:10D9300023B9A24A927B002A40F0628199F80B3009
:10D940009F4A53B19D4B00939B8B0021D17223B909
:10D950009A4B9B7F002B40F088817A1B002314F8A0
:10D96000222089F80030A9F80230C9F80430F7E421
:10D970005388033302EB8302904203D913680133C7
:10D980007FF470AF009B73449B89002B7FF462AEE1
:10D9900001228C4801F066F90422034689F8002030
:10D9A00045E699F80030072B3AD801A252F823F047
:10D9B000EDD8010021DA010021DA010005DA0100C9
:10D9C000D9D901009FD801009FD80100D1D9010009
:10D9D000012389F80030A2E7784AB9F802300092B2
:10D9E00011461B01784A19441068B2F804E0D1F8D6
:10D9F00004C048600220C2F800C09080A1F808E08E
:10DA0000009A40E77049D9F804208B885088B9F80B
:10DA100002E00344033302208B8089F800000AE708
:10DA2000013B062B3FF679AD01A252F823F000BF6F
:10DA30001FD9010029D8010009D601003FD60100F5
:10DA40001BD501007DD801009FD801000AA8D9F894
:10DA50000C2040F8142D0DF1120106930793FFF7E7
:10DA6000D5FB002840F083800A237A1B04EB820256
:10DA700002211171DBE5554A1278920712D4022374
:10DA80005348009300210822FEF75CFD009B0A2BFF
:10DA90007FF4CDAD7B1B14F8232061E40F2304E653
:10DAA0000B68FFDEDFF828A1BAF804200192012AF2
:10DAB00015D8424A0092CE4602934FF6FF70019B62
:10DAC00000991B010A461A44CB5C53B1019B0133F8
:10DAD0009BB20122022BAAF804300192EFD10A2353
:10DAE000CEE75368DAF80090039303F58052B9F15A
:10DAF000000F55D0B9F80210033109EB81019142B2
:10DB000028D20B68013325D08B88B1F800C083423E
:10DB10001BD0BCF1000F18D0BEF806C0CAF8001028
:10DB20009C458946E3D12B4A2648012301F052F84F
:10DB3000BAF80430009A02EB031200284FF00103F8
:10DB400093730CBF00230E23A1E74B88033301EB33
:10DB50008301D4E7029BCAF80030B7E77B1B9B0028
:10DB6000E1180620E25C08745CE6596810E7069943
:10DB7000184A8B88A9F806300B88A9F80830114894
:10DB8000012301F027F80D4BBDF8122003EB021220
:10DB900000284FF001010CBF00230E23917364E7AE
:10DBA000039B03F10801AAE7044B00934FEA0E1E02
:10DBB0007344596801F1080248E600BF6022002062
:10DBC0008022002080210020082300201023002034
:10DBD000142300206CB302004FF00009009B254A7B
:10DBE00025484FEA09194B445968022300F0F2FF17
:10DBF000009A002302F80930B6E44FF00109EDE77E
:10DC00001946D9F80420A9F8023042B350880330ED
:10DC10000B0102EB800200991944496801F580501C
:10DC20008242BFF4B5AE1368013318BF4FF6FF7ED2
:10DC30000BD1ADE65388033302EB830290427FF6AB
:10DC4000A7AE136801333FF4A3AE9388B2F800C0C7
:10DC50007345EFD0BCF1000F7FF40DAEEAE7009AF8
:10DC60000B011A4452680832D5E701231946C8E768
:10DC700001227FE470B30200802100200846FFF7F4
:10DC80002FBB00BF074A1378032B09D010B4591CCF
:10DC9000054C117044F8230000205DF8044B7047D8
:10DCA0000C207047502200201C2300202DE9F04F4B
:10DCB000A04F8BB03A7800230593069307930893FF
:10DCC000099393070DD59C4C04F10C0554F8043BC3
:10DCD00005A803B19847AC42F8D100200BB0BDE8CD
:10DCE000F08F12F00104F8D142F001023A7000F016
:10DCF00029FF924BDFF860E21868914B00941E6890
:10DD0000029400F53F533C33019300F1080C031FCC
:10DD10004FF6FF7400F580505A688A498A4203F131
:10DD200004051BD003F5805202E09A4200F0DE8029
:10DD300053F8041F0131F8D01346019A93420CF5B1
:10DD4000805C00F58050E7D17D4B1E60009B13F096
:10DD5000FF033BD10B200BB0BDE8F08F9A687A49E6
:10DD60008A4240D001318A42DCD14FF00208CEF81D
:10DD70000050AEF80480DA680132614608BF042220
:10DD80001ED045468A88B1F80080A24206D0B8F17C
:10DD9000000F03D08A68964238BF16464A8803327D
:10DDA000154401EB8201ADB28842AEF8045003D9AC
:10DDB0000A68B2F1FF3FE5D1022D0CBF0422082210
:10DDC00000991143009103F58052B5E7062B49D025
:10DDD000013B0A2B59D8DFE803F083588358865853
:10DDE000865880568000029A4FEA0219574A4FF02F
:10DDF000000A02EB090802F809A00221C8F8045041
:10DE0000A8F80810DD680135624611D11BE095685D
:10DE1000AE4238BF2E4655880335294402EB8502B1
:10DE200089B29042A8F808100DD9156801350AD0BA
:10DE30009588B2F800B0A54202D0BBF1000FE6D140
:10DE40004FF0010AE7E7414A9144029A89F80EA08F
:10DE5000013292B20292009A42F00202009203F55D
:10DE6000805269E73B78344C43F0020323F001030E
:10DE70003B7004F10C0554F8043B05A803B1984726
:10DE8000AC42F8D129E702230393314A516F0329A9
:10DE900012D8304B5B6C082B0ED8136F0B4403F079
:10DEA0000303C3EBC3039B00D0180124D4540131F6
:10DEB0009DF80C30037151673B781E4903F0040252
:10DEC00002F0FF04002A7FF408AF43F00403204669
:10DED0000B70FFF705FA204600E703230393D4E70E
:10DEE00000230393D1E701230393CEE7DEF800304C
:10DEF000CBB1029B1549DFF864801B0119444D60CA
:10DF000002250D81029901F101091049CD54BDF896
:10DF10000830A8F802301FFA89F30293009B43F0FF
:10DF20000103009308E70223CEF80050AEF8043056
:10DF3000F4E700BF102300201C23002080210020D4
:10DF40004C220020DEC0ADDEFE011EF1602200206A
:10DF5000902200200422002008230020802200209C
:10DF600060B159B130B583B00C460DF106010546DC
:10DF7000FFF74CF920B90A2003B030BD05207047E7
:10DF8000BDF80620074B686803EB021301219A894C
:10DF90000A449A8120606B6800200C336360A97288
:10DFA00003B030BD60220020D0B110B582B00DF1B9
:10DFB00006010446FFF72AF910B90A2002B010BD85
:10DFC000BDF80620094B03EB021308339A884AB1C7
:10DFD000A17A39B10021013A9A800846A172EDE791
:10DFE00005207047062002B010BD00BF602200204F
:10DFF0001D4B1B789B0702D402231846704740B183
:10E00000CB1C9BB240F2FD32934205D9092318463E
:10E01000704705231846704770B4144A167886B9BD
:10E02000558914892C441C44A4B2B4F5806F08D2DD
:10E03000344602EB04122B445381002306804180B6
:10E040000EE0157C094C55B9658B248B2C441C447F
:10E05000A4B2B4F5806F02D201263446E9E7072363
:10E06000184670BC704700BF1023002060220020BB
:10E07000144B1B789B0702D4022318467047E8B163
:10E080000388022B02D904231846704710B40E4AA5
:10E09000448802EB03136FF002015A89091BCA423C
:10E0A00003F108030CD4033A0021121B5A800B46DB
:10E0B0000180418018465DF8044B70470523DCE77A
:10E0C0000423F7E710230020602200207C4A137805
:10E0D00013F0020F01D10220704771B12DE9F04F0A
:10E0E0000D8804464FF6FF70854287B001D04888FE
:10E0F00028B9042007B0BDE8F08F052070470889D3
:10E100004E68F8B1356815F0030504D018E056F8EC
:10E110003570BF0714D10135A842F8D1354606EB5A
:10E12000C0060020AF8808353844B54280B2F9D126
:10E13000C51CADB240F2FD36B54204D90920D9E77D
:10E140000320D7E70325DFF888E19EF800C0BCF183
:10E15000000F0AD1BEF80A70BEF808603E442E4493
:10E16000B6B2B6F5806FC0F0A6809EF81060DFF8FA
:10E1700060C14EB9BCF81A70BCF818603E442E4419
:10E18000B6B2B6F5806F01D30720B3E70126029639
:10E19000B0464FEA08183D440EEB080CADB2ACF89F
:10E1A0000A500E880F89DFF82C910496D1F804C02C
:10E1B0004E884449D9F874A009680596414E01314A
:10E1C0005FFA87FBBAF1030FCDF80CB00191316013
:10E1D00060D83D4ED6F844B0C7F108018B4559D8F8
:10E1E000D9F87010BDF81480514401F00301C1EB5F
:10E1F000C101890009EB010E022509F80150AEF8B2
:10E2000006000198CEF80C00BDF80800AEF80480B6
:10E210000025AEF812000AF1010A0321BDF81080B2
:10E220009DF80C00AEF808808EF81600AEF81410B9
:10E23000AEF80A508EF81050C9F874A0D7B1316CFE
:10E240000BEB010E0EF0070E06EBCE0E06F13809B1
:10E250000CEBC50103C901350EF108088EE8030077
:10E26000CE4514BFC646B646AF421749F0D1486CFA
:10E27000384448643CB100211448019D2560616028
:10E280000089A172208103F0040101F0FF0451B163
:10E2900000202FE7C0F57F40FD30C6442844AEF88B
:10E2A0000A00082026E743F0040320461370FFF716
:10E2B00017F820461EE7CDF808C0E04669E700BF22
:10E2C000102300204C220020042200208022002065
:10E2D000602200209022002052B12DE9F04F5B4DCA
:10E2E0002C78A60785B005D4022005B0BDE8F08FD4
:10E2F00005207047002900F09280064608884FF6F6
:10E30000FF73984204D0B1F802C0BCF1000F03D1F2
:10E31000042005B0BDE8F08F0F89D1F804E067B1A3
:10E32000DEF8003013F0030304D07AE05EF8331017
:10E33000890776D101339F42F8D1DFF8249144490F
:10E34000D9F80030D1F87480B2F800A0B2F802B069
:10E350000133B8F1030FC9F8003064D8DFF8F49046
:10E36000D9F844200292C7F108018A425BD8384AA2
:10E370003749126F424402F00302C2EBC20292001C
:10E380005118019108F101081146314ACDF80C806D
:10E390004FF0020802F80180019A039910814FF0B2
:10E3A00000084FF00300A2F804C0A2F806B0D36042
:10E3B000A2F812A097759082A2F80A8082F81080C5
:10E3C000234A5167E7B1D9F840200299114401F07E
:10E3D000070209EBC20209F1380A0EEBC80103C9B2
:10E3E00008F1010802F1080C82E80300524514BF4D
:10E3F00062464A4647451749EFD14A6C3A444A6457
:10E4000036B100221449336072600B89B2723381D5
:10E4100004F0040303F0FF0683B1002065E7052044
:10E4200063E7032061E70D4B03EB0A1308205A89C9
:10E43000033ACBEB020BA3F80AB056E7304644F0A0
:10E4400004042C70FEF74CFF30464EE710230020EA
:10E450009022002004220020802200206022002040
:10E460004C22002050B12DE9F04F694E3578AF07AE
:10E4700089B005D4022009B0BDE8F08F05207047AF
:10E48000002900F0B8800A884FF6FF739A4201D045
:10E490004B881BB9042009B0BDE8F08F0F894A688A
:10E4A000B7B1136813F0030305D0A6E052F8334068
:10E4B000A40740F0A28001339F42F7D1134602EB3C
:10E4C000C70200279C88083327449342BFB2F9D182
:10E4D0000446894638460DF11E01FEF767FE002806
:10E4E000C9D14C49DFF83CC10B680193B9F802303F
:10E4F000B9F80820DCF874800493019B0292B9F803
:10E5000000200392D9F804E02268BDF81EA005920D
:10E5100003F10109B8F1030FC1F800906FD83E4A2A
:10E52000029B516C0191C3F10803994267D8DCF852
:10E530007010414401F00301C1EBC10189000CEBF3
:10E54000010B08F101034FF003080CF80180ABF850
:10E550000670BDF80C70BDF81010ABF80870029F83
:10E56000ABF80410ABF814800599ABF80A004FF033
:10E570000408CBF80C90ABF812A08BF81670CBF80F
:10E5800018108BF81080CCF874303B46E7B1116C52
:10E59000019F0F4407F00707844602EBC70702F10B
:10E5A000380A0EEBCC0103C90CF1010C07F1080885
:10E5B00087E80300574514BF474617466345164989
:10E5C000EFD14A6C13444B640020144BC4F8009004
:10E5D00060601A89A07205F00403228103F0FF0431
:10E5E000002B7FF448AF204645F004053570FEF758
:10E5F00077FE20463FE705203DE703203BE7084B39
:10E6000003EB0A1308205A89033AD71B5F8132E7CC
:10E61000102300204C220020042200208022002011
:10E620006022002090220020F8B51B4A1378990739
:10E6300001D40220F8BD18B3184C0768606F032896
:10E6400020D81749496C08291CD8216F014401F0D2
:10E650000301C1EBC10189004FF0040C04EB010E72
:10E6600003EA0C0604F801C0451C31460020CEF830
:10E670000C708EF8040006F0FF06656721B1F8BD46
:10E680000520F8BD0820F8BD43EA0C03304613709E
:10E69000FEF726FE3046F8BD102300209022002011
:10E6A00004220020F8B51C4A1378990701D40220EF
:10E6B000F8BD4FF6FF71884201D10420F8BD174D17
:10E6C0006C6F032C1ED81649496C08291AD8296F7B
:10E6D000214401F00301C1EBC10189006F18661CE0
:10E6E0004FF0050C03F0040405F801C04FF0010ED3
:10E6F0002146F88087F804E004F0FF046E6719B142
:10E700000020F8BD0820F8BD43F004032046137034
:10E71000FEF7E6FD2046F8BD1023002090220020E1
:10E7200004220020F8B5174A1378990701D4022073
:10E73000F8BD154C616F03291AD81448406C08289D
:10E7400016D8206F124D084400F00300C0EBC00043
:10E750002E780131062704F8207061670EB101217F
:10E76000297303F0040101F0FF0419B10020F8BD82
:10E770000820F8BD43F0040320461370FEF7B0FDF7
:10E780002046F8BD10230020902200200422002003
:10E79000802200202DE9F047304C2478A40702D4D1
:10E7A0000220BDE8F0879446002A3DD0002B3BD0E4
:10E7B000B3F80480B8F1010F48D8DFF8A8908A4672
:10E7C0004FF6FF7700224FEA081409EB040E19F800
:10E7D0000440002C32D11C68002C3AD06588DEF849
:10E7E0000460033504EB850406F58056B44224D258
:10E7F0002568013521D0A5882188BD4217D0B1B147
:10E800001C60A5888542E7D125885545E4D1A268DA
:10E81000CCF800201A68124BCCF804201B89ACF805
:10E8200008300020BDE8F0870520BDE8F087658846
:10E83000033504EB8504B442DAD31A6008F101040D
:10E84000A4B2022C9C804FF00108BCD10A20BDE884
:10E85000F087DEF8046006F10804C5E71023002005
:10E860008022002060220020304B1B789B0701D4BF
:10E870000220704700293ED0002A3CD02DE9F04705
:10E88000B2F804E0BEF1010F48D8DFF8A8C04FF697
:10E89000FF764FF000084FEA0E130CEB03071CF84D
:10E8A0000330002B31D1D2F80090BA46B9F1000FF5
:10E8B00037D0B9F80230DAF80450033309EB830398
:10E8C00005F580559D421ED91C6801341BD09C88DB
:10E8D0001F88B44211D087B113601C8884429946C6
:10E8E000E4D19B680B601268114B4A601B890B8155
:10E8F0000020BDE8F087052070475C88033403EBF7
:10E9000084039D42E0D8C2F800800EF1010E1FFA88
:10E910008EF3022B93804FF0010EBCD10A20BDE88C
:10E92000F087DAF8045005F10803C9E71023002046
:10E930008022002060220020304B1B789B0701D4EE
:10E940000220704700293ED0002A3CD02DE9F04734
:10E95000B2F804E0BEF1010F48D8DFF8A8C04FF6C6
:10E96000FF764FF000084FEA0E130CEB03071CF87C
:10E970000330002B31D1D2F80090BA46B9F1000F24
:10E9800037D0B9F80230DAF80450033309EB8303C7
:10E9900005F580559D421ED91C6801341BD09C880A
:10E9A0001F88B44211D087B113609C888442994675
:10E9B000E4D19B680B601268114B4A601B890B8184
:10E9C0000020BDE8F087052070475C88033403EB26
:10E9D00084039D42E0D8C2F800800EF1010E1FFAB8
:10E9E0008EF3022B93804FF0010EBCD10A20BDE8BC
:10E9F000F087DAF8045005F10803C9E71023002076
:10EA0000802200206022002048B138B504460D461F
:10EA10000C220021FDF796FD2560002038BD052061
:10EA2000704700BF20B119B103680B600020704728
:10EA30000520704729DF704728DF704770B50C4DFF
:10EA4000696D042911D02B6D0B44042B28BF0023C2
:10EA5000142202FB035406464B1C204600216B6522
:10EA6000FDF770FD3460012070BD002070BD00BF57
:10EA70002C230020F0B5314B1D7815F0060F85B022
:10EA80005AD12F4A1C46516D176D45F002031646A8
:10EA90002370002950D0142303FB07231A79012A7D
:10EAA00005D0022A20D11889FFF7C6FF13E01421F0
:10EAB0001A8A5B8A01FB0761D21AC8688968B2F5B5
:10EAC000806F4FEA8303B4BF92B24FF48062184460
:10EAD0001944FFF7AFFF112805D125F0020545F0D5
:10EAE0000405257028E038B30C2201A80021FDF7A9
:10EAF00029FD142303FB07631A79012A0CD0022A8B
:10EB000012D11A895B89ADF80A20D21A0123ADF817
:10EB100008208DF8043007E0DA681B8A0292002191
:10EB20008DF80410ADF80C30142303FB07F701A88F
:10EB3000F35909219B68984705B0F0BD28230020B0
:10EB40002C2300202DE9F0434FF010235F697B1C3C
:10EB500035D0DFF87C9099F8008018F0010E2BD1A9
:10EB6000DFF868C0184CCCEB0404240920D07646AA
:10EB70004FF0FF350023154A1846AB4204D0517BB5
:10EB8000814224BF08461E460133A34202F110020F
:10EB9000F3D1330103EB0C020EF1010E117B576030
:10EBA000A645A7EB013743F80C7001D03546E1E7E5
:10EBB00048F0010889F800800020BDE8F0834FF09C
:10EBC00080535F693F03C4E790210020802100202B
:10EBD0002823002030B5204C2578EC0787B012D5CB
:10EBE000044610B11D48844202D2022007B030BD55
:10EBF0001B488442F9D24AB141B142EA0100800780
:10EC000006D00620F2E7012007B030BD0320EDE773
:10EC10002068814201D20520E8E7656801EB8300A6
:10EC20008542F8D30BB90420E0E705A803930292CC
:10EC30000191FFF703FF01A90EC908B90720D5E725
:10EC400005980460059801248260C1600382047104
:10EC5000FFF710FF0020C9E72823002080210020B3
:10EC6000902100201E4B1B78DB0712D510B50446FF
:10EC700084B010B11B4B984202D2022004B010BDE8
:10EC8000194B9842F9D259B1C1F30B031BB10620BD
:10EC9000F4E7012070472368994203D20520EDE78D
:10ECA0000320EBE7606801EB02339842F6D30AB920
:10ECB0000420E3E703A88DE80600FFF7BFFE9DE808
:10ECC000060008B90720D9E7039B1C60039B0220BC
:10ECD000090B187119819A81FFF7CCFE0020CDE74E
:10ECE00028230020802100209021002020B1034B08
:10ECF0005B6D036000207047032070472C230020C9
:10ED00002DE9F04FA04EA14C3378256D990785B0C1
:10ED100056D5022860D003287FD1DFF874E29EF830
:10ED200000300133DBB2032B8EF8003075D94FF081
:10ED300000080DF104090C2241464846AF008EF848
:10ED40000080FDF7FFFB7B1904EB83031A79012A8E
:10ED500000F0CC80022A09D11A895B89ADF80A201B
:10ED6000D21A0123ADF808208DF804303D444846FE
:10ED700054F8253008219B689847636D013B636513
:10ED80001BB9327822F002023270256D7F4A0135BC
:10ED9000042D08BF002515657BB1AF007B1904EB7E
:10EDA00083031A79012A3CD0022A59D11889FFF726
:10EDB00043FE11284BD0002852D105B0BDE8F08F9A
:10EDC0005A072AD5626D03F0FB033370002AF4D092
:10EDD00043F002033370E0E7AF0007EB050804EBF4
:10EDE00088086B4A98F804304FF0000A012B82F82B
:10EDF00000A061D0022B10D1B8F8083008F1080B40
:10EE00000133A8F80830BBF80230BBF80420013306
:10EE10009BB29A42ABF8023070D0636D002BBCD12C
:10EE2000CBE779191A8A5B8A04EB8101D21AC86888
:10EE30008968B2F5806F4FEA8303B4BF92B24FF492
:10EE4000806218441944FFF7F5FD1128B3D13378D7
:10EE500023F0020343F00403337005B0BDE8F08FE4
:10EE60000DF104090C2248460021FDF76BFB7B19CC
:10EE700004EB83031A79012A15D0022A09D11A89D1
:10EE80005B89ADF80A20D21A0123ADF808208DF86D
:10EE900004303D44484654F8253009219B68984782
:10EEA00005B0BDE8F08FDA681B8A029200218DF868
:10EEB0000410ADF80C30ECE7B8F81230B8F81000D8
:10EEC000C21AB2F5806FB4BF92B24FF4806213449D
:10EED00079199BB204EB81089842A8F812302B4AAA
:10EEE0002BD0536D002B7FF458AF66E7DA681B8A8E
:10EEF0008DF804800292ADF80C3037E70DF104096B
:10EF0000484651460C22FDF71DFB98F80430012BB2
:10EF100025D0022B0BD1B8F80830BBF80220ADF891
:10EF20000A309B1A0122ADF808308DF804203D44C8
:10EF3000484654F8253000211DE70DF104094846E4
:10EF400000210C22FDF7FEFA98F80430012B10D0B6
:10EF5000022BECD1B8F80830B8F80A20DFE7DBF86C
:10EF60000420B8F810300292ADF80C308DF804A0EF
:10EF7000DDE70021D8F80C20B8F810308DF8041027
:10EF80000292ADF80C30D2E7282300202C23002079
:10EF9000842300200378022B02D0012B00D070477D
:10EFA0004068FDF7C7BB00BFF0B50F4C237889B0B0
:10EFB00013B1002009B0F0BD0C4B0D4A049293E848
:10EFC000070001AB83E8070001250A4F0A4A0595AF
:10EFD00018464FF4007604A906230697079600F01A
:10EFE00093FA257009B0F0BD8C25002080B3020093
:10EFF000882300208C23002095EF01000FB400B57A
:10F0000083B004A951F8040B01910BF0A9FA03B0E5
:10F010005DF804EB04B070470FB4F0B583B008ADF1
:10F0200055F8047B0195002F0FDD0026043555F8B7
:10F03000044C0195207828B100F0E8FA14F8010F8B
:10F040000028F9D10136BE42F0D103B0BDE8F0404E
:10F0500004B0704770B5161E07DD0C468D1914F804
:10F06000010B00F0D3FAAC42F9D1304670BD00BFBD
:10F0700010B50C46204600F0ADFA0528FAD0012064
:10F0800010BD00BFC30710D4810710D4420710D4AD
:10F09000030710D4C10610D4820610D4430610D43E
:10F0A000C30910D14FF6FF70704700207047012050
:10F0B00070470220704703207047042070470520E6
:10F0C0007047062070470720704700BFE8B1E1B1E4
:10F0D00010B40488944228D04488944229D084886B
:10F0E00094422AD0C48894422BD0048994422CD0D4
:10F0F000448994422DD08489944207D0C08990429B
:10F1000008BF072003D05DF8044B704706202BB1E1
:10F110000A780123834013430B70F4E70A78012334
:10F12000834022EA03030B70EDE70020002BF5D0AB
:10F13000EEE70120002BF1D0EAE70220002BEDD012
:10F14000E6E70320002BE9D0E2E70420002BE5D01E
:10F15000DEE70520002BE1D0DAE700BF2DE9F04320
:10F160009DF81C4008B301B3FAB105889D4200F038
:10F17000E48045889D4200F0E68085889D4200F04D
:10F18000E480C5889D4200F0E28005899D4200F040
:10F19000E08045899D4200F0DE8085899D4206D051
:10F1A000C089984208BF072002D0BDE8F08306203E
:10F1B00001238340484200F003009042DBB228BFA5
:10F1C0001046002C5BD1042A00F2AF8010460D7867
:10F1D000DC43E4B2254001280D7000F0B2804D7888
:10F1E000022805EA04054D7000F0AB808D780428F4
:10F1F00005EA04058D7040F0B480CD782C40CC70C9
:10F2000004468242D1D0C0EB020EAEF10406551E78
:10F21000B6082D1A0136022D4FEA860C1AD90025A0
:10F2200063F3070563F30F2563F31745084463F39E
:10F230001F65ED43A0F104094FF0000859F8047F61
:10F2400008F101082F40B04540F8047BF6D3E645AD
:10F250006444AAD00D5DDB43D8B200EA0503651C07
:10F26000AA420B55A1D94E5DA31C9A4200EA06049E
:10F270004C5578D9CA5C1040C854BDE8F083042AC4
:10F2800057D810460C78012844EA03040C7056D075
:10F290004C78022844EA03044C7050D08C7804283F
:10F2A00044EA03048C705AD1CC781C43CC700546D8
:10F2B000824252D0C0EB020EAEF10406541EB608D4
:10F2C000241A0136022C4FEA86081AD94FF0000C96
:10F2D00063F3070C63F30F2C084463F3174C63F3D9
:10F2E0001F6CA0F10409002759F8044F01374CEABC
:10F2F0000404B74240F8044BF6D3C64545443FF4F6
:10F3000054AF485D6C1C1843A24248557FF64DAF80
:10F310000E5DA81C824243EA06050D557FF645AFF7
:10F320000A5C13430B54BDE8F08300283FF46BAF35
:10F330004DE705460028BDD0A4E7002038E7054684
:10F34000B6E704465DE7012032E7022030E70320FC
:10F350002EE704202CE705202AE7BDE8F0830325EB
:10F36000A6E703244DE7BDE8F08300BFD0B10388D2
:10F3700093421DD0438893421CD0838893421BD074
:10F38000C38893421AD00389934219D04389934288
:10F3900018D08389934206D0C389934208BF0723BC
:10F3A00002D0002070470623194101F00100704788
:10F3B0000023F9E70123F7E70223F5E70323F3E747
:10F3C0000423F1E70523EFE700293AD012F0010307
:10F3D00030B402D00B8883800123950704D500EB5D
:10F3E00043044D88A5800133540704D500EB430442
:10F3F0008D88A5800133150704D500EB4304CD8823
:10F40000A5800133D40604D500EB43040D89A58003
:10F410000133950604D500EB43044D89A5800133E3
:10F42000540604D500EB43048D89A5800133D2092D
:10F4300004D000EB4302C98991800133036030BCE2
:10F4400070470160704700BF30B50478012C83B06D
:10F4500016D0022C30D00CB103B030BD254826495F
:10F46000FDF7B2F918B3234B9A68DB689A42F3D1DF
:10F4700002A8032300F8083D204B1B689847EBE7E0
:10F4800043681F4D19782846FDF786F908BBAA681E
:10F49000EB689B1A012B24D0A968EB68AA885B1A39
:10F4A0009A42D9D30121174800F0D4FED4E70121B4
:10F4B000114800F033FED6E7C368124801930121DA
:10F4C0008DF8004000F0C6FE0C4B68461B6898475C
:10F4D000C2E70A4B01908DF800401B6868469847C8
:10F4E000DAE702AB054A03F8080D126818469047A0
:10F4F000D2E700BF9C250020902500209425002005
:10F50000AC250020982500202DE9F0472B4C88B031
:10F5100022600C4600294AD0054609682848A2887E
:10F520001F46FDF729F910B108B0BDE8F08725485E
:10F53000A168A289FDF720F90028F5D1224E95F89F
:10F5400004A095F80590D5F8088095F803C095F8C3
:10F5500002E00FCE6C460FC496E80F001AF10006C9
:10F5600018BF0126B9F1000F84E80F0014BF0E2464
:10F5700000242A786B7815498DF81C7068468DF840
:10F5800014608DF81540CDF81880CDF808C0CDF87E
:10F590000CE00192009300F0F9FC0028C4D19DF822
:10F5A0001D3043B101210A4800F054FEBCE707209A
:10F5B00008B0BDE8F08700F03BFFF3E7942500209A
:10F5C000AC2500209C2500208CB3020049F40100EA
:10F5D0009825002010B50B4A9168D36892885B1A71
:10F5E0009A42044605D021460648BDE81040FDF782
:10F5F000EBB80548012100F02DFE0028F3D00520CE
:10F6000010BD00BFAC2500209825002010B5014694
:10F610000B48FDF7C1F8044608B1204610BD00F0C4
:10F6200011FE0028F9D106480649FDF7CDF800285B
:10F63000F3D104480121BDE8104000F06FBD00BFC8
:10F640009C25002090250020002810B418DB00F134
:10F65000604303F561434901C9B283F80013C3B2A3
:10F660004009800000F1604000F5614003F01F0296
:10F6700001239340C0F8803103605DF8044B70476C
:10F68000C3B2044A03F00F0449012244C9B21176FF
:10F69000E6E700BFFCEC00E038B5194C94F8545094
:10F6A0000DB1082038BD4FF0FF3306200146FF2280
:10F6B00023636363A363E36323646364A364E36416
:10F6C00023606360A360E36023616361A361E3611E
:10F6D000236284F850306362A36284F85230E3629C
:10F6E00084F8533084F85120FFF7AEFF054A4FF0FD
:10F6F00000410123C2F8041384F85430284638BD71
:10F70000BC25002000600040034B93F854000030FB
:10F7100018BF0120704700BFBC250020F0B5634C26
:10F72000251895F93030002B01DB0820F0BD91F849
:10F7300003E09446BEF1000F56D02368013300F079
:10F74000AD80082600256B1C584F54F82320013249
:10F7500051D0AB1C9E4245D957F8232001324AD0E4
:10F76000EB1C9E423ED957F82320013243D02B1D7B
:10F770009E4237D957F8232001323CD06B1D9E4260
:10F7800030D957F82370013735D0AB1D9E4229D9A7
:10F7900054F82320454F01322DD0EB1D9E4221D934
:10F7A00057F82320013226D005F108039E4219D9CB
:10F7B00057F8232001321ED005F109039E4211D9CA
:10F7C00057F82320013216D005F10A039E4209D9C9
:10F7D00057F8237001370ED00B35AE4202D9E36AD9
:10F7E000013307D00420F0BD236A01334ED00C262C
:10F7F0000825A8E70B232618DDB244F823C086F8B5
:10F800003050BEF1000F02D1234483F848008B78BA
:10F81000ABB94A784FF0A04600F5E073920046F885
:10F820002320CB78ABB96AB2083A1444097894F82B
:10F83000502042EA811284F850201846F0BD83001F
:10F8400003F1A043D3F8002722F00202C3F80027F7
:10F85000E7E76BB29B0003F1804303F5C0430A78EE
:10F86000D3F8101521F4473121F44071C3F8101575
:10F870001204000202F44031D3F8104500F4F852AB
:10F880000A432243C3F810250020F0BD082685F85E
:10F8900030603346C4F820C03546B5E7002385F80C
:10F8A0003030C4F800C01D46B1E700BFBC250020C1
:10F8B000F0B42E4D2E1882B096F8302053B2072B9C
:10F8C0001CDD2B4493F848309B09032B40D0012BBF
:10F8D0000CBF4FF400314FF44031800000F1A040E4
:10F8E000D0F8002722F44032C0F80027D0F80037C3
:10F8F0000B43C0F8003702B0F0BC7047072AFAD8B3
:10F90000980000F1804000F5C04003F140029200F1
:10F91000D0F8104592B202F18042002744F0010471
:10F9200002F5C042C0F81045019701981760002900
:10F93000E1D096F9302055F82220002ADBD00122B0
:10F940000B4902FA03F3C1F8043302B0F0BC70476C
:10F950004FF0A0420123D2F810258340134214BF78
:10F960004FF440314FF40031B7E700BFBC25002011
:10F97000006000404FF0A043D3F8103523FA00F0A8
:10F9800000F00100704700BF2DE9F04FA94B1A6845
:10F99000012A83B000F0B2800024A74B1A68012A24
:10F9A00000F0BE80A54B1A68012A00F0CB80A44B62
:10F9B0001A68012A00F0D880A24B1A68012A00F0C8
:10F9C000E580A14B1A68012A00F0F2809F4B1A686B
:10F9D000012A00F0FF809E4B1A68012A00F00C817A
:10F9E0009C4B1A68012A00F019814FF0000814F0AE
:10F9F000FF0F17D0E20700F13581A30700F1418125
:10FA0000670700F14D81260700F15981E50600F1F5
:10FA10006581A00600F17181610600F17D812206F9
:10FA200000F18981002C02DB03B0BDE8F08F8A4D24
:10FA30004FF0FF36A5F153074FF0000A874C4FF007
:10FA4000000914F8011FFF2920D0C9B221F0C0001D
:10FA500026FA00F3DB0719D53B18890993F93030F2
:10FA600057F823204AB34FF0010E03290EFA00FE87
:10FA700029D0830003F1A0431EEA080FD3F800C782
:10FA8000CCF3014C10D1BCF1030F1FD0AC42D8D144
:10FA9000B9F1000FC8D04FF0A043D3F81035984506
:10FAA000C2D098465646C9E7BCF1020FEED10329F1
:10FAB00011D0002AEAD09047E8E70329E6D14FF0B9
:10FAC000010E0EFA00FE4AEA0E0AD2E70329F0D12F
:10FAD0004FF4003B01E04FF4403BD3F800C72CF457
:10FAE000403CC3F800C7D3F800E709F101094BEA2D
:10FAF0000E0E5FFA89F9C3F800E7DAE75849D1F842
:10FB0000041311F001043FF448AF002119601B6891
:10FB10000093009B484B14461A68012A7FF442AFB9
:10FB20004F4AD2F8042391077FF53CAF00221A60B8
:10FB30001B680093009B414B1A68012A44F00204A1
:10FB40007FF435AF464AD2F8042352077FF52FAF32
:10FB500000221A601B680093009B394B1A68012A27
:10FB600044F004047FF428AF3D4AD2F80423170779
:10FB70007FF522AF00221A601B680093009B314B77
:10FB80001A68012A44F008047FF41BAF344AD2F803
:10FB90000423D6067FF515AF00221A601B68009378
:10FBA000009B294B1A68012A44F010047FF40EAF21
:10FBB0002B4AD2F8042395067FF508AF00221A607D
:10FBC0001B680093009B214B1A68012A44F0200413
:10FBD0007FF401AF224AD2F8042350067FF5FBAE32
:10FBE00000221A601B680093009B194B1A68012AB7
:10FBF00044F040047FF4F4AE194AD2F8042311060D
:10FC00007FF5EEAE00221A601B680093009B114B3B
:10FC10001A68012A44F080047FF4E7AE00221A60DB
:10FC20001B6801934FF0A043019AD3F8108544F06C
:10FC30000044DCE6006100400461004008610040CF
:10FC40000C610040106100401461004018610040E8
:10FC50001C6100407C6100400F2600200B26002024
:10FC6000006000403A4B3B4AD3F81005D3F810151A
:10FC70001368C0F30420C1F301419847A3077FF53F
:10FC8000BFAE334B334AD3F81405D3F81415536879
:10FC9000C0F30420C1F30141984767077FF5B3AE75
:10FCA0002B4B2C4AD3F81805D3F818159368C0F3DA
:10FCB0000420C1F30141984726077FF5A7AE244BE6
:10FCC000244AD3F81C05D3F81C15D368C0F30420CC
:10FCD000C1F301419847E5067FF59BAE1C4B1D4AD9
:10FCE000D3F82005D3F820151369C0F30420C1F31D
:10FCF00001419847A0067FF58FAE154B154AD3F802
:10FD00002405D3F824155369C1F30141C0F304203D
:10FD1000984761067FF583AE0D4B0E4AD3F8280550
:10FD2000D3F828159369C0F30420C1F30141984723
:10FD300022067FF577AE064B064AD3F82C05D3F89A
:10FD40002C15D369C0F30420C1F30141984769E63B
:10FD500000600040BC2500202DE9F0412D4B1A68C1
:10FD600084B0002A31D12C4B2C4F1D68002D47D177
:10FD70003C699CB14FF000480126B4FA84F18B0035
:10FD800003F58C7303F1804202F5E04228FA01F09A
:10FD9000116824EA000421B9002CEED104B0BDE8BA
:10FDA000F081A3F58C7383F00401C1F38001DB08BB
:10FDB0008DF8083015608DF804608DF809103B68E7
:10FDC00001A89847002CD8D1E8E70022134F1A6009
:10FDD0007B68134902938DF80420FB68D1F8340640
:10FDE000ADF80C009BB1B88A7B600123FA603881C2
:10FDF0000B603B6801A89847074B1D68002DB7D0E2
:10FE000000221A6087F8272004B0BDE8F08187F847
:10FE10002730EEE7047100401471004014260020E2
:10FE20000070004070B5174B93F826400CB10820C5
:10FE300070BD21B3144A154D1960002808BF104643
:10FE4000134A0178C5F8F0154178C5F8F4156FF03C
:10FE50000041C5F808131460817883F82740012613
:10FE6000072083F828401C6183F82660FFF7ECFB2D
:10FE70000223C5F80433C5F80065204670BD07208D
:10FE800070BD00BF14260020ACB30200007000401B
:10FE90000471004038B5154B93F82720012A22D071
:10FEA00000F1080203EB4204A47924B993F8284036
:10FEB000013483F828400D4603EB42038979EA793F
:10FEC000997104462946DA7100F02CFC200100F1FA
:10FED000804303F5E043AA79E979C3F81415C3F820
:10FEE0001025002038BD112038BD00BF1426002089
:10FEF000F0B41B4B1B4A93F827600224012E0546E1
:10FF0000C2F8084312D0184FC2F804430126002457
:10FF100058601981C2F82C06DC602046C2F8301601
:10FF20003C6083F827601660F0BC7047D86820B149
:10FF3000C2F804431120F0BC70470B48DD60998281
:10FF40000368094A002BFBD0064B002002241060F6
:10FF5000C3F82C56C3F83016C3F80443E4E700BFD7
:10FF6000142600200070004000710040054B93F8FB
:10FF700027300BB911207047034B01221A60002073
:10FF8000704700BF1426002004700040F8B5594C9B
:10FF9000E37E0BB10820F8BD574A002808BF104681
:10FFA00001250768467F26774FF0A042BD40C2F882
:10FFB0000855056805F5E0754FF0030E42F825E099
:10FFC000456805F5E07542F82530002E33D14B4BDE
:10FFD0008569C3F82455077D457D3D43C3F86C55BD
:10FFE00090E8A000C3F80C55C3F81475077D012FE5
:10FFF00064D003696160236071B1017F002E48D134
:020000022000DC
:100000003F4E404D3D4A4048002333602B60C2F8CC
:1000100004030220FFF718FB237F002B49D0374B46
:100020000822C3F8002500200123E0752076A07582
:10003000A076E376F8BD314D8769C5F8247590F850
:1000400014C0477D4CEA0707C5F86C7590E880102E
:10005000C5F80C75C5F814C5077D012FC9D1866890
:1000600006F5E07642F82630C3689F40C2F808756E
:10007000C36803F5E07342F823E08368C268C5F8FB
:100080000825C5F810350369616023600029C3D0D5
:10009000017FDFF884E01D4F1D4E1A4D174A1D48A1
:1000A0000023CEF800303B6033602B60C2F80403BD
:1000B000AFE7124B0422C3F80025B4E7856805F5C5
:1000C000E07542F82560C568AF40C2F80875C5689C
:1000D00005F5E07542F825E0C5688268C3F8085563
:1000E000C3F81025036961602360002994D0017F63
:1000F00086E700BF40260020B0B302000020004089
:100100001C210040442100408000020020210040CA
:100110002421004010030200102100402DE9F001CD
:10012000414A137F43B1030C1B04B3F1005F0AD0B3
:100130001020BDE8F0017047937D002B2AD01120DC
:10014000BDE8F0017047957D002DF8D1374E384C51
:10015000384B394F91754FF0010C958290602560B6
:100160001D60C6F84405C6F84815C7F800C05168B8
:1001700029BB184600E023BB21680368003318BF81
:1001800001230029F7D0002B0CBF00200F200023F3
:100190009375CEE7294C284D9382012623602E606B
:1001A0002360958A938A9175A9B2204E5768415C65
:1001B000906001339BB29382C6F81C151FB10020DA
:1001C000B7E70F20E3E721461546907D938A164C4A
:1001D0009BB2984205D818E0938A9BB2B3F5807F12
:1001E00002D00B68002BF7D0938A9BB2B3F5807FC7
:1001F000ECD00F60AC8AAB8AA868A4B20133005D72
:100200009BB2AB82C6F81C05DFE7A38A9BB2B3F5AD
:10021000807FD6D009490B68002BFCD0084B012108
:1002200019600020B3E700BF4026002000200040F6
:100230002021004058210040082000401C2100409F
:100240000C200040024B987D003018BF0120704701
:1002500040260020F0B56F4B1A7F32B1040C240405
:10026000B4F1005F4ED01020F0BD5C6824B16A4D3F
:100270004FF40176C5F80863DD7D664EB5B9B27EF0
:10028000F175F060757635763AB96448644D624927
:100290007468026001202A600860002C55D05E4B13
:1002A0004FF40172C3F804230020F0BD1D7E594EA7
:1002B0005DB1002C00F08C80574B002A3FD04FF4EA
:1002C0000472C3F804231120F0BD30613176002A96
:1002D000E3D0514A534E544C35602560C2F8340582
:1002E000C2F83815D2F8001241F02001C2F800120D
:1002F0005A68002A6ED0484B4FF40472C3F80423A6
:100300000020F0BD5C6824B1434D4FF40476C5F87D
:100310000863DD7D3F4E002DC8D13F4ADFF804E180
:10032000414F75760124F175F0603576CEF80050B6
:100330003D60C2F83405C2F838151460D8E74FF4B0
:100340000172C3F804231120F0BD374A334E344DF7
:10035000304FDFF8C4E01460144631682868226822
:10036000003118BF0121003218BF012230B9E2B9B3
:100370000029F2D00022DA750320F0BD0029F9D15E
:10038000AAB9D97DB9B92960DEF818255A7ED97D78
:1003900020489142E1D8837E0022C275002B33D0E1
:1003A0001D4B012119601046F0BD0029E2D1002249
:1003B000DA750F20F0BD2A60787EDEF818157A7E97
:1003C00002F1010CFA6811545FFA8CF27A76DDE7DB
:1003D0001120F0BD134E144D104C02E061B9002AFB
:1003E000C8D1306829682268003118BF0121003265
:1003F00018BF01220028F1D00020D875002ABBD1F7
:10040000814218BF0F20F0BD084A01211160184633
:10041000F0BD00BF40260020002000402421004005
:1004200008210040102100404421004004200040E9
:10043000084B1A7F62B99A7E52B90749074810B42F
:10044000074C0A6001212260997601605DF8044B37
:10045000704700BF402600202421004000200040BB
:1004600008210040F0B59C4C237F85B0002B74D14F
:100470009A4AD2F80413890548D4984BD3F8042338
:10048000520710D5964A116869B1E17D924800295A
:1004900040F008811160D3F81835627EE17D8E4B03
:1004A000914200F0E3808F4B1A68A2B1A28AA17D2D
:1004B000894892B291424FF000021A6040F2928055
:1004C000828A838A8568854992B20133AA5C9BB28D
:1004D0008382C1F81C25844B1A68AAB1A27E002130
:1004E0001960002A79D1E27D7B4B6AB15A7ED968C6
:1004F0008DF808200020012201918DF80020D87588
:1005000093E806006846904705B0F0BD7749086853
:100510000028B2D0A07E0B604FF40173C2F80833FC
:1005200028B903F1804303F5F05301221A606B4AA6
:1005300002238DF80030D2F88034C2F88034E07D98
:10054000E26803938DF80800002301922168626835
:10055000E375684623769047A5E7644A1368002B45
:100560004FD1634A116839B15C481360D0F83C251B
:10057000E17DD2B2914260D05B4B1A68A2B1E17DBD
:10058000554800221A6079B1A3F5A273C168D3F867
:100590003C358DF80830012301918DF80030C2758B
:1005A00090E80A0068469847524B1A68002AABD078
:1005B000A17D494800221A600029A5D047498368D7
:1005C000D1F84C158DF808100193827590E80A0057
:1005D0008DF800206846984796E7A3F5A27301229C
:1005E0001A6080E700293FF476AF83688DF8081021
:1005F0000193827590E80A008DF8002068469847BC
:1006000069E700233549136002208DF80000D1F816
:100610008024C1F880240392D1F83C15E2688DF85B
:100620000810019221686268E37568462376904756
:100630002D4B1A68002AB7D0A1E7277E002F3DD0A6
:10064000D0F80022E77522F02007E6682569C0F897
:10065000007201208DF808108DF8000023762168C3
:1006600001966846E5606368984785E71A7E002A28
:1006700044D19B7E13B9204B01221A60174AE068CF
:1006800063684FF40171C2F80813627E8DF8082088
:10069000012201908DF80020216800226846E27551
:1006A000984700E700211160427ED3F81855437E39
:1006B000C1680133DBB28D544376EEE6E2688DF813
:1006C000081001238DF80030019294E80A00E775C4
:1006D0006846984750E700BF4026002000200040B1
:1006E000082100401C2100404421004024210040FA
:1006F000102100402021004004200040D968587E8D
:10070000019101218DF808008DF800101E69DA753D
:1007100093E8220000226846DE601A765A76A847DF
:10072000C1E600BFF0B44D788E780F78CC780A79A6
:100730004B792D01360206F4E06605F030053543AD
:10074000240307F003062E4304F480541204050129
:10075000344302F4E0221B0505F1804505F5E04530
:10076000224303F480131343C5F818358B79CA79F3
:10077000C5F81425C5F81035F0BC7047064B1B684A
:100780005B0701D40820704720B1044B5B780360FD
:10079000002070470E2070472C2700206026002084
:1007A0004FF0A042D2F80435D94301F4002103F4FC
:1007B0000023C2F80815C2F80C3570470D282DE942
:1007C000F047044607D00E2837D00F2837D010281E
:1007D00037D0BDE8F0870025012911D020D30229A8
:1007E000F7D1214B05EB45051D446E78002EF0D066
:1007F0001E4B1B68002BECD03046BDE8F047184775
:10080000DFF864806F007B1908EB030218F80360BF
:100810005378C3B92F444744154BBA785A55E5E786
:100820001448FCF72FFC1049114A05EB45030B4413
:10083000565D9B789E42CCD1D8E70125CCE70225B6
:10084000CAE70325C8E70C4BDFF830901968094860
:1008500001EB810149004A46FCF7AAFB0028D9D1E7
:1008600089F80040D6E700BFAC27002060270020B1
:1008700054270020642700205C270020A8270020A0
:10088000C94B1B68DB0700D4704770B5C74B1C7899
:10089000172C22D8DFE814F0680075007500AE0050
:1008A000D500F5001A013D0139002200390022006F
:1008B0001800500150015001500150014E005800E5
:1008C0009E007801180018004FF0A0434FF4F0117B
:1008D0000022C3F80C15C3F8082570BD4FF0A042E4
:1008E000B34CD2F80435B348D94301F4802103F462
:1008F0008023C2F80815C2F80C352168002201EBEC
:100900008101BDE87040FCF753BB4FF0A042A84CFA
:10091000D2F80435A748D94301F4802103F4802399
:10092000C2F80815C2F80C3521680022BDE87040F5
:10093000FCF73EBB4FF0A0434FF4F0110022C3F888
:100940000815C3F80C2570BD4FF0A04300224FF4EA
:10095000E0104FF40031C3F80805C3F80C25C3F8C4
:100960000C15C3F8082570BD934B1B684FF0A042CF
:10097000DB4303F4F0130021C2F80835C2F80C156C
:1009800070BD8D4A12684FF0A040D24302F4E012CD
:100990000025C0F80825C0F80C55D0F8042582F4CD
:1009A000F01212F4003200F03881022C4FF40032C1
:1009B000C0F808250CBF12212821C0F80C557C4A2C
:1009C0001C7012687B4802FB01F1BDE870400022F8
:1009D000FCF7EEBA4FF0A04300224FF4D0104FF4D2
:1009E0008021C3F80805C3F80C25C3F80C15C3F81B
:1009F000082570BD704A12684FF0A040D24302F43F
:100A0000E0120024C0F80825C0F80C45D0F80425F1
:100A100082F4F01212F4003200F0F7804FF400324A
:100A2000C0F808250821C0F80C45614A61481268E1
:100A300003241C7002FB01F1BDE870400022FCF7AA
:100A4000B7BA5D4A12684FF0A040D24302F4E012F8
:100A50000024C0F80825C0F80C45D0F8042582F41D
:100A6000F01212F4003200F0C1804FF40032C0F8EE
:100A700008252821C0F80C454D4A4E481268042428
:100A8000D7E74D4A12684FF0A041D24302F4E0127A
:100A90000020C1F80825C1F80C05D1F8042582F41E
:100AA000F01212F4003200F0A9804FF40032C1F8C5
:100AB0000825C1F80C053E4A3E48116805241C7003
:100AC00049000022BDE87040FCF772BA3A4A126849
:100AD0004FF0A041D24302F4E0120020C1F80825F3
:100AE000C1F80C05D1F8042582F4F01212F400329A
:100AF00075D04FF40032C1F80825C1F80C052C4A16
:100B00002C48116806241C700022BDE87040FCF7D8
:100B10004FBA294B1B684FF0A042DB43002103F47E
:100B2000E0134FF40030C2F80835C2F80C15C2F8D3
:100B30000C05C2F8081570BD2048FCF7A3FAD4F1E3
:100B4000110402463ED000283CD11B4E4FF4002336
:100B5000012C336010D0C825194B15491748096876
:100B600005FB04F4A3FB04435B0901FB03F1FCF761
:100B70001FFA336803F4F0134FF0A0420021C2F8CB
:100B80000C35C2F8081570BD4FF0A04300224FF499
:100B9000C0104FF4C021C3F80805C3F80C25C3F8F2
:100BA0000C15C3F8082570BD5827002084270020A5
:100BB0005C270020302700205027002088270020B5
:100BC0001F85EB511A4A13684FF0A040002103F42F
:100BD000F013C0F80835C0F80C15116070BD4FF463
:100BE0000030C1F80C05C1F8082588E74FF4003142
:100BF000C0F80C150421C0F808253DE74FF400307B
:100C0000C1F80C05C1F8082555E74FF40031C0F8CC
:100C10000C150221C0F8082507E74FF40031022C1B
:100C2000C0F80C150CBF02210421C0F80825C6E647
:100C30005027002003780D2B15D00E2B15D00F2B2D
:100C400004D0102B08BF032301D070470223084AA9
:100C500003EB4303134458780028F6D0054B1B6878
:100C6000002BF2D018470023F1E70123EFE700BF84
:100C7000AC27002060270020032803D900230B7035
:100C800000207047074A4FF0A04352F82000D3F8E5
:100C9000102501238340934314BF012300230B70CD
:100CA00000207047D4B30200F8B5BF4B1A6812F0A9
:100CB000010201D11046F8BD0446172800F2EA816E
:100CC000DFE810F03901490149017C00A400CC00A3
:100CD000F20058002F0018002F00180017017C01A7
:100CE0007C017C017C017C01A40125012F014400D1
:100CF0006F006F004FF0A042AC4CD2F80435AC4806
:100D0000D94301F4802103F48023C2F80815C2F806
:100D10000C352168002201EB8101BDE8F840FCF7A9
:100D200047B94FF0A042A14CD2F80435A048D943AE
:100D300001F4802103F48023C2F80815C2F80C35B1
:100D400021680022BDE8F840FCF732B999484FF01D
:100D5000A0434FF4C01200214FF4C0251524C3F85E
:100D60000825C3F80C150A46C3F80C55C3F8081536
:100D700004709FE7904B8F4C1B684FF0A041DB4302
:100D8000002003F4E0134FF400360725C1F80835BE
:100D90000246C1F80C05C1F80C65C1F808052570BC
:100DA00088E74FF0A04383484FF4F0120021C3F8C6
:100DB0000C25C3F808150A4604707BE77E4B1B68B8
:100DC0004FF0A042DB4303F4E0130020C2F80835E3
:100DD000C2F80C05D2F8043583F4F01313F4003391
:100DE00000F041814FF40033C2F808350821C2F801
:100DF0000C056E4A6F4B12686D4803241C7002FB91
:100E000001F1BDE8F8400022FCF7D2B86A4B1B683C
:100E10004FF0A042DB4303F4E0130020C2F8083592
:100E2000C2F80C05D2F8043583F4F01313F4003340
:100E300000F021814FF40033C2F808352821C2F8B0
:100E40000C055A4A5B4B1268594804241C7002FB7B
:100E500001F1BDE8F8400022FCF7AAB8564B1B6828
:100E60004FF0A042DB4303F4E0130021C2F8083541
:100E7000C2F80C15D2F8043583F4F01313F40033E0
:100E800000F001814FF40033C2F80835C2F80C15A8
:100E9000464A484B1168464805241C704900002208
:100EA000BDE8F840FCF784B8434B1B684FF0A04204
:100EB000DB4303F4E0130021C2F80835C2F80C1537
:100EC000D2F8043583F4F01313F4003300F0B98042
:100ED0004FF40033C2F80835C2F80C15354B334ACD
:100EE0003348116806241C700022BDE8F840FCF766
:100EF0005FB84FF0A0432F484FF4F01200210C24AC
:100F0000C3F80C25C3F808150A460470D2E64FF062
:100F1000A04328484FF4E01200214FF40035132479
:100F20001DE74FF0A04323484FF4D01200214FF4A7
:100F30008025142413E7204B1E4C1B684FF0A04063
:100F4000DB43002103F4F013C0F808350A46C0F86B
:100F50000C152170AEE6184B1B684FF0A042DB4326
:100F600003F4E0130020C2F80835C2F80C05D2F8EB
:100F7000043583F4F01313F4003369D0022C4FF4DA
:100F80000033C2F808350CBF12212821C2F80C0525
:100F9000064B084A1B68147003FB01F10448002249
:100FA000BDE8F840FCF704B8582700205C27002073
:100FB0003027002084270020502700203648FCF7E7
:100FC00061F8D4F1110402462ED068BB334E4FF4C1
:100FD0000023012C336011D0314B324F19682E4859
:100FE000C82505FB04F3A7FB03435B0901FB03F1E1
:100FF000FBF7DEFF3368024603F4F0134FF0A04125
:101000000020C1F80C35C1F8080553E64FF0A043A5
:1010100025484FF4F01200211224C3F80825C3F824
:101020000C150A46047045E61C490B684FF0A044B5
:10103000002003F4F013C4F80835C4F80C05086068
:1010400038E64FF40031C2F80C15C2F8083545E710
:101050004FF40031022CC2F80C150CBF0221042100
:10106000C2F8083594E74FF40031C2F80C1502219C
:10107000C2F80835BDE64FF40031C2F80C15042162
:10108000C2F80835DDE64FF40031C2F80C15C2F89D
:101090000835FDE600220DE68827002050270020B5
:1010A0005C2700201F85EB5184270020F8B5234DD5
:1010B000234E244B2860044610F0020031601A6071
:1010C0001FD0214B21484FF00D0E0E270F26102563
:1010D0004A0883F800E00421DF709E715D72FBF71F
:1010E000BBFAF0B1E3070BD54FF0A0434FF4F01279
:1010F0000021C3F80825C3F80C15C3F8182510B152
:10110000F8BDE207F0D41248124A0021FBF73EFF77
:101110000028F5D11048114A0121BDE8F840FBF73D
:1011200035BFFBF7F1FA0028DCD101460C4A0D4827
:10113000FBF72CFFE107E2D5D6E700BF58270020D8
:101140005C27002060270020AC270020E8B30200C5
:10115000E4B302008108020008B40200A107020003
:10116000350C0200D0B30200032801D907207047D4
:10117000012A12D0012917D008D30229F6D10D4B2C
:1011800000EB4000034400205A707047094B00EB0D
:101190004000034400209A707047012901D00022CA
:1011A000E8E700F10D02D2B200EB40030149002054
:1011B000CA547047AC27002070B41D4E1D4DD6F8A0
:1011C00000371D4C1D4910F0010F14BF4FF4403281
:1011D000002223F440331343C6F80037D5F8003714
:1011E00010F0020F23F4403214BF4FF440330023B9
:1011F0001343C5F80037D4F8003710F0040F14BFBC
:101200004FF44032002223F440331343C4F8003734
:10121000D1F8003710F0080F23F4403214BF4FF418
:10122000403300231343C1F80037002070BC7047DF
:1012300034000050380000503C0000504000005086
:1012400008B50320FFF7B8FF10B1062808BF00203B
:1012500008BD00BF10B50388102B08D0112B05D195
:10126000264B18680138186038B110BD10BD234CEA
:10127000206880B10130206010BD02210122FFF7FB
:1012800073FF48B3072827D01D4B1B68002BECD0F9
:10129000BDE81040184701460122FFF765FF48B13D
:1012A000072807D0164B1B6803B198472068013008
:1012B000206010BD012002210722FFF755FF08B171
:1012C0000728EFD1002002210422FFF74DFF00285C
:1012D000ECD00728E6D1E9E7012002210722FFF739
:1012E00043FF08B10728CFD1002001460A22FFF7AB
:1012F0003BFF0028B9D00728C6D110BDBC2700206D
:10130000B827002010B5204B82B00C461860A9B158
:1013100000200DF10601FFF7AFFC08B102B010BDCF
:1013200001200DF10701FFF7A7FC0028F6D19DF879
:1013300007301BBB9DF806301BBB2370134B18688E
:1013400010B1002002B010BD02210122FFF70CFFF6
:1013500008B10728E2D1012002210722FFF704FF8C
:1013600008B10728DAD1002001460A22FFF7FCFE67
:101370000028E6D0072808BF0020CFE7022323700B
:10138000DCE70B232370D9E7B8270020BC27002017
:1013900076DF704777DF704778DF70477ADF704716
:1013A0007CDF7047A8DF704767DF70473CDF70471E
:1013B00048DF7047FBF7BEB9FBF7BCB908B5FEF7CD
:1013C000D5FD00B908BDBDE80840FBF7B3B900BFC3
:1013D00010B50446FDF794FC2046BDE8104001F02E
:1013E0002DBE00BF10B5044684B002F0AFF8204611
:1013F00007F0A8FA21463B4802F06CFB204602F0B9
:101400004BF82146384803F02FF92146374803F0BE
:101410006BFA2146364801F037FE2146354803F085
:101420001BFA2146344803F021FB2046FFF712FF48
:101430002388112B26D012D8022B2DD0102B09D1A6
:101440000720FFF731FC002848D12648A18802F088
:101450000FFB80B9204601F07DFD04B010BD512B7B
:1014600025D0552B01D03A2BF4D1A0881321FFF7BA
:101470008FFF0028EED0FBF75DF9204601F06AFDF2
:1014800004B010BD0020FFF70FFC0028F3D1204668
:1014900001F060FD04B010BDA0880021FFF784FFBB
:1014A0000028E8D1204601F055FD04B010BDA37915
:1014B000002BCFD0A27B043A022ACBD8022B18BF34
:1014C00001234FF4C172A0888DF800306946ADF851
:1014D0000420FFF767FF0028BCD0CCE7FBF72AF910
:1014E000B3E700BFA82A00202C280020942A00205F
:1014F000802C0020C8270020542C002001460148E1
:1015000003F04AB9C82700200378012B03D14268B1
:101510000AB9014A13707047C1270020037803B14C
:10152000704710B54368012118461C88FEF7E0FC9F
:10153000002846D123B203EB8303C3EB0313DB0084
:1015400048BF03F2FF339B1203EB43035B0003F539
:1015500087739BB240F6B732934213D96421304867
:1015600001F092FE30F008020BD043F204029042E8
:1015700007D043F20142904203D0BDE81040FBF790
:10158000D9B810BD40F6543293421DD840F6B4226B
:10159000934228D840F68812934233D840F634025A
:1015A00093423BD9C3F51863083303EB43031D494A
:1015B0005B0081FB0321DB17A3EBE1110631C9B20C
:1015C000CDE7FBF7B7F8B5E7C3F53B633A2208333D
:1015D000154902FB03F381FB0321DB17A3EB611128
:1015E0006431C9B2BBE7C3F53563043303EB43038E
:1015F0000E49DB0081FB0321DB17A3EBA1112A318C
:10160000C9B2ACE7C3F52B630749043381FB03215F
:10161000DB17A3EBE1011231C9B2A0E700219EE77D
:10162000802C0020616060601F85EB5167666666F4
:1016300008B50B7803B108BD4B78012B0CD002D351
:10164000022B0FD008BD1120FFF72EFB0028F2D08F
:10165000BDE80840FBF76EB80D20FFF725FB00281A
:10166000E9D0F5E71020FFF71FFB0028E3D0EFE7F4
:10167000043810B50A280FD8DFE800F0060E0E0E69
:101680000E0E2F0E0E180F00214B13211889FFF795
:101690007FFE30F0080305D110BD1120FFF704FBD9
:1016A0000028F9D0BDE81040FBF744B8194B1B786F
:1016B000002BF1D0184C1648237803BB022103F00D
:1016C000E1F800B343F204039842E5D043F201434A
:1016D0009842E1D00528E5D1DEE70020FFF7E4FAE3
:1016E00050B9FFF7ADFD20B9FFF760FE0028D9D152
:1016F00010BDFBF71FF8F7E7FBF71CF8F1E7002137
:1017000003F0C0F8DDE7237883F00103237010BDF8
:10171000C8270020C02700202828002008B50A7804
:101720003AB1012A04D10848FBF7ACFC40B908BD26
:1017300008BD05484FF47011FBF73AFC0028F6D0BD
:10174000BDE80840FAF7F6BF602C002008B50B781A
:1017500033B1022B03D1094B00221A7008BD08BD1A
:101760000B46074849889A8903F0B0F808B1FAF7A0
:10177000E1FF024B01221A7008BD00BFC027002004
:10178000C827002000B5037883B00E2B0BD8DFE804
:1017900003F0150A15212E360D0A1D0A0D3F0D0AFC
:1017A000080007F057F903B05DF804FB80680028D3
:1017B000F9D0FAF7BFFF03B05DF804FB808807F0AB
:1017C0007BF91128EFD00028EDD0F2E70020FAF7DE
:1017D000B1FFE8E7428941F206039A42E3D140882B
:1017E000012107F02BF930F00803DCD0E1E702A972
:1017F000002301F8043D408807F02AF9D3E7FCF7FD
:1018000091FF0E280346CED033F00803CBD0D0E7AB
:10181000032001F0FFF90028C5D0CAE708B50B780E
:1018200003B108BD4B78012B0CD002D3022B0FD093
:1018300008BD1120FFF738FA0028F2D0BDE80840B3
:10184000FAF778BF0D20FFF72FFA0028E9D0F5E767
:101850001020FFF729FA0028E3D0EFE708B530B1F0
:10186000032803D10220FFF71FFA50B908BDFFF784
:101870001BFA50B9FFF7E4FC50B9FFF797FD0028B9
:10188000F4D0BDE80840FAF755BFFAF753FFF1E787
:10189000FAF750FFF1E700BF2DE9F0439DB0FDF7E7
:1018A00083FB08B1FAF746FF002003460721B44A3C
:1018B000FBF7FEFA08B1FAF73DFFB248B24A012140
:1018C000FBF764FB08B1FAF735FF032040F6CD4182
:1018D000AE4AFFF7EBFB08B1FAF72CFF0EA9002088
:1018E000FFF710FD08B1FAF725FFA94BA9491868C1
:1018F0000590482205A800239DF8384008F052FDC5
:1019000008B1FAF717FF002001210EAA08F0B4FD74
:1019100008B1FAF70FFFA04808F0C6FD08B1FAF7C2
:1019200009FF0EA808F0CAFD08B1FAF703FF9B48AB
:1019300008F076FD08B1FAF7FDFE994808F07AFD47
:1019400008B1FAF7F7FE00209649FEF76BFA08B1E6
:10195000FAF7F0FE944B186859680EAB03C30020E9
:101960000EA9FEF797FA08B1FAF7E4FE8F480121B5
:10197000FEF7BEFA08B1FAF7DDFE8D480121FEF749
:10198000B7FA08B1FAF7D6FE06F0F0FF08B1FAF799
:10199000D1FE022C00F00D82002105220EA8FAF7DC
:1019A000D1FD9DF838309DF83B109DF83C2043F068
:1019B0000103032003F0F10360F306130143024324
:1019C0006FF3C713072510240EA88DF838308DF853
:1019D0003B108DF83C208DF839508DF83A4007F0D7
:1019E0001DF808B1FAF7A6FE724807F003F808B12F
:1019F000FAF7A0FE9DF814306F48012262F303034A
:101A000062F307138DF8143008F0A1FD6A4982B221
:101A100005A8FFF7C5FC08B1FAF78CFE4FF410706B
:101A2000FFF7BAFC08B1FAF785FE002108220EA8DC
:101A3000FAF788FD4FF4C8734FF4487100220EA8DE
:101A4000ADF83830ADF83E30ADF83A10ADF83C2086
:101A5000FFF7A4FC08B1FAF76DFE6FF00700FFF77F
:101A600099FC08B1FAF766FE0024002138220EA87E
:101A7000FAF768FD01254FF002094FF005084FF015
:101A8000040CDFF858E100942827B42621464B4B7C
:101A900008940EA805AA0594069407940B940C9438
:101AA0000D948DF838908DF83A508DF820508DF8BF
:101AB0003B80ADF848C0CDF84CE009970A9600F09D
:101AC000E5FF08B1FAF736FE3D4801F04FFF08B1D7
:101AD000FAF730FE002103220EA8FAF733FD9DF835
:101AE00039309DF83A203748012161F3030302F0B1
:101AF000F002022161F307136FF30712F8240EA915
:101B00008DF839308DF83A208DF8384002F0B4FF66
:101B100008B1FAF70FFE00210EA80422FAF712FD11
:101B2000294B2A480E930EA902F0BCFD08B1FAF722
:101B300001FE00210C220EA8FAF704FD9DF84120B9
:101B40009DF8423022490E91012161F3030261F3B5
:101B50000303022161F3071261F307131D4E1E48B0
:101B60008DF8412000240EA98DF842300F968DF893
:101B7000404002F0FFFE98B3FAF7DCFD30E000BF12
:101B80003C28002020B40200BD13020071160200A0
:101B90000CB40200E0270020E81F0020E51302003B
:101BA000D11302001D15020010B40200C42700204A
:101BB000C62700208517020024B402005D18020029
:101BC000FD140200542C00201D1802002C280020B7
:101BD00031160200B5130200942A0020E4200020F0
:101BE000002114220EA8FAF7ADFC9DF845509DF88F
:101BF00046409DF848209DF84770774B0E9301238F
:101C00004FF0000E63F3030563F3030463F3030271
:101C100007F0F00763F3071563F3071463F3071284
:101C20006EF307174FF0640C6C488DF845500EA901
:101C30008DF83C308DF846408DF848208DF847707F
:101C4000CDF840E08DF844C001F04AFA08B1FAF747
:101C500071FD002108220EA8FAF774FC604A614B5E
:101C600061480F9600240EA914700E9302F0D6FD61
:101C700008B1FAF75FFD00211C220EA8FAF762FCFA
:101C80004FF4203600234FF4702503240121574AD6
:101C90000E930EA8ADF8463013930F9610958DF85D
:101CA00044408DF84810149201F0BCFB08B1FAF7DB
:101CB00041FD4F48FBF7E6FF002800F08280FAF76D
:101CC00039FD0023ADF81830059306E00EA8FCF7A7
:101CD000ABFC48480E99FDF791F941F2111042F220
:101CE00022210EAA05ABFCF755FD0028EED0FCF72B
:101CF00019FD08B1FAF71EFD3F4B0393022541F28F
:101D0000111442F2222203AE01230EA805A9ADF858
:101D10001050ADF81440ADF816200696ADF81C3002
:101D2000FCF7D4F9002852D0FAF704FD334B1A78A7
:101D3000002AFCD00023324805930693FDF75EF994
:101D400041F2111042F222210EAA05ABFCF722FD4E
:101D500020BB0EA83146FCF703F90446F0B9294828
:101D60000E99FDF74BF92848FDF748F9039B049DB0
:101D70005B885BB123B2254855F82310FDF73EF987
:101D8000039B01345B88E4B2A342F3D82048FDF7FB
:101D900035F90EA8FCF708F90028D1D0032000F08F
:101DA00039FF18B9FFF704FB0028FBD0FAF7C2FC93
