:020000040001F9
:10B00000103D0020F5B001000FB1010011B10100A9
:10B010000000000000000000000000000000000030
:10B0200000000000000000000000000013B101005B
:10B03000000000000000000015B1010017B1010080
:10B0400019B1010019B1010051BA010019B1010093
:10B0500019B1010000000000D1B7010071B7010073
:10B0600019B1010019B1010019B1010019B10100B4
:10B0700019B1010019B1010019B1010019B10100A4
:10B0800019B1010069B9010019B1010019B101003C
:10B0900089B9010019B1010091B9010019B101008C
:10B0A00019B1010019B1010000000000000000000A
:10B0B0000000000000000000000000000000000090
:10B0C0000348854600F084FA004800471D0402004A
:10B0D000103D0020401E00BF00BF00BF00BF00BFEA
:10B0E00000BF00BF00BF00BF00BF00BF00BFF1D165
:10B0F000704700000321094802680A4302600848BB
:10B1000002680A4302600748804707480047FEE795
:10B11000FEE7FEE7FEE7FEE7FEE70000240500404D
:10B1200054050040B1B90100C1B0010030B50B4673
:10B13000014600202022012409E00D46D5409D4211
:10B1400005D31D469540491B254695404019154697
:10B15000521E002DF1DC30BD70B5002425460028BC
:10B1600001DA01244042002901DA01254942FFF7B2
:10B17000DDFFAC4200D04042002C00D0494270BDFF
:10B1800003460B439B0703D009E008C9121F08C000
:10B19000042AFAD203E00B780370401C491C521EAB
:10B1A000F9D27047D2B201E00270401C491EFBD2B6
:10B1B00070470022F6E710B513460A4604461946C2
:10B1C000FFF7F0FF204610BD30B5044600200346CF
:10B1D00000E05B1C934203D2E05CCD5C401BF8D0E6
:10B1E00030BDF0B51FB40646002082B005464024AD
:10B1F000019100901BE0019922460F46304600F075
:10B2000009FA049A059B801A994110D310461946F1
:10B21000224600F0EFF9361A8F41019722460120AD
:10B220000021009F00F0E6F938184D4100902046BB
:10B23000641E0028DFDC019B00982946324607B0D7
:10B24000F0BD0000F0B507460846584087B0C00F73
:10B25000049048000E46590040084908BC1A88412D
:10B2600005D2384631461E4617460B460246580060
:10B27000400810434CD0300D039040055900400D5C
:10B28000490D0590401A0290402872DA18030121F6
:10B29000000B09050843019004980092002805D08E
:10B2A0000199524200208841009201900298402169
:10B2B0000A1A0199009800F09DF905460C466B4664
:10B2C00007CB00F0B8F9C0197141039A0E0D0023A5
:10B2D000D71756401A467A40164344D0049A002A9B
:10B2E0002DD0029A012A039A15DC1205C01A914149
:10B2F00001263605001C7141D20F059ED20700932E
:10B30000019202962A46234600F0B5F907B0F0BD37
:10B3100038463146FAE71605224A0F46B218C01AD7
:10B32000B74101210905001C4F4100187F4111461A
:10B3300018187941E20F10436D19644113E0E207D8
:10B340006D0815436408C2071443039A01261205C9
:10B35000C01A91413605001C7141CE0740083043A8
:10B360004908C01851412A46234600F077F9CDE735
:10B37000FFE7049801224000C117121A00238B41F5
:10B3800004983146C417381AA141EEE730B40124BD
:10B39000E407634030BC55E730B40124E407614062
:10B3A00030BC4FE70000E0FFF0B51FB488B00B9948
:10B3B0000998002448400999C00F4900490809919B
:10B3C000C0070B990090490049080B91099908980A
:10B3D000A64608431CD00B990A98084318D0099830
:10B3E00001244000420D4800410D09982405000346
:10B3F000000B204309900B980003000B20430B9097
:10B4000050181C494018002201901446104605E0CF
:10B41000002001460DB0F0BD032801DA034600E02C
:10B4200003239C46C11A0AAE0AE05F0008ADED5B3B
:10B430004F00F75B7D430027AA187C41491C5B1E27
:10B440006145F2DD410004AB5A522104120C0A435B
:10B45000240C401C0828DFDB0198029000997046FC
:10B4600001910090059B049A0799069800F003F952
:10B47000D0E700000DFCFFFFF0B50C465C4085B046
:10B48000E40FE40703944C00002664085900944636
:10B49000490802460296224321D062460A431ED042
:10B4A0006200570D4A000E032303550D0124024686
:10B4B0002C492405781B1B0B360B401823432643CD
:10B4C000614600901C46501AB44103D30098401CBA
:10B4D000009002E0921800985B41002803DA0020F7
:10B4E000014605B0F0BD002001210905074686464A
:10B4F00011E064461D46141BB54106D36546521B38
:10B50000B341744607430C43A646CD07400849089B
:10B51000284392185B4105460D43EAD11046184373
:10B5200013D06046194650407140084306D060462B
:10B53000101AB34106D20122002306E000220123A3
:10B54000DB0702E00122D243531000987446010544
:10B55000381C6141029C039D0019694100F07EF88E
:10B56000BFE70000FD0300004A0009030123090BA7
:10B570001B0519430A4B10B5520D9A4202DA0020FE
:10B58000014610BD064B34339A4203DC9A1A00F090
:10B5900041F810BD034BD21800F02CF810BD00008C
:10B5A000FF030000CDFBFFFF10B5002904DB0124E1
:10B5B000E40740428C412146002B04DB1C4601235A
:10B5C000DB075242A341994200D1904210BD0000D6
:10B5D000064C0125064E05E0E36807CC2B430C3CE6
:10B5E00098471034B442F7D3FFF76EFD20460200AF
:10B5F0004046020010B5202A04DB0146203A914063
:10B60000002010BD914020239C1A0346E3401943BB
:10B61000904010BD10B5202A04DB0846203AD040E7
:10B62000002110BD0B46D340D0402024A21A9140E7
:10B630000843194610BD10B5202A06DBCB17084673
:10B64000203A1041C1170B4306E00B461341D0408E
:10B650002024A21A91400843194610BD10B5002BB2
:10B6600008DA0024401C614192185B411A4301D161
:10B670004008400010BDF0B51FB482B005460C0074
:10B6800003D0084600F0F2F902E000F0EFF92030B4
:10B690000246009021462846FFF7ACFF049B059A1E
:10B6A00004460F4618431143084314D0184610436C
:10B6B0001BD0009840210A1A18460599FFF7AAFFE7
:10B6C00005460E46009A05990498FFF793FF084334
:10B6D00005D0012004E02046394607B0F0BD002027
:10B6E000C11705430E432C43374300990E98630559
:10B6F000401A7905E40A00220C43FD0A0A3002D5FB
:10B7000000200146E9E70105101969410C9C0D9DD7
:10B7100000196941FFF7A2FFDFE770B58C180578C3
:10B72000401C6B075B0F01D10378401C2A1106D126
:10B730000278401C03E006780E70401C491C5B1E1A
:10B74000F9D12B0705D40023521E0DD40B70491CD0
:10B75000FAE70378401CCB1A921C03E01D780D70A9
:10B76000491C5B1C521EF9D5A142D8D3002070BDE4
:10B77000FEB5134C0026E0680125124F002810D0BA
:10B7800000F030FE00280BD00120B860684606703B
:10B79000E0680190217C68460181A5742168884792
:10B7A000FEBD094806600120B86008480660694689
:10B7B0000D7080688880A57468462168EFE70000F6
:10B7C00014300020007300400071004000750040FC
:10B7D000F0B50025FF248BB0013401262F460195DA
:10B7E000204605F015FB002808D047484068304245
:10B7F00004D046480021201835430160241D7600FE
:10B800007F1CA4B2042FEBD3FF207D3005F000FB9A
:10B81000002807D03E4800210160400705433D480D
:10B82000006901903C4C280712D0012700262F42C6
:10B830000AD03A48B200111808690969C004C00E5C
:10B840008903A258890F90477F00761C042EEED3FF
:10B85000002D57DA00200590401E4DE0A11940311F
:10B8600008788506AD0E42B2521C39D00121A9409C
:10B87000089A0091114233D080090390284602F0C3
:10B88000D7FC800020580490002802D10398032898
:10B8900026D103980099032802D105980843059002
:10B8A0001F4AA80080180068019A8003800F114287
:10B8B00002D0022802D013E0032811D103990329F2
:10B8C00007D102281CD00221284605F091FA7F1CDE
:10B8D000FFB20498002803D0049A284603999047A1
:10B8E000761C042EBAD3002F0CD00A4800690199A7
:10B8F000884207D00190059800273E460890ADE7A2
:10B900000321E1E70BB0F0BD0063004000600040A0
:10B910007C61004000050050283000200065004098
:10B92000000700508307FF22DB0E9A408907090EAB
:10B93000994000280BDA0007000F083883080848F0
:10B940009B001818C36993430B43C3617047830876
:10B9500004489B001B181868904308431860704700
:10B9600000ED00E000E400E010B5064900200860AA
:10B9700048608860C860034940390860486008F042
:10B9800069F910BD4011014010B508F0F9F810BD7B
:10B9900010B506484068002805D08047002801D02F
:10B9A00000F0C0FF10BD04F033F910BD18220020D4
:10B9B00010B504F0B5F9002805D01F491D484860AE
:10B9C000C8131E4988611E48018CC9B201290BD1D8
:10B9D000828C120708D1028D1206120F042A03D19D
:10B9E000828D1206120F0AD0012921D1818C0907FC
:10B9F0001ED1018D0906090F0A2904D007E0114A5A
:10BA000001219160F5E7828D1206120F05D00D29F4
:10BA10000ED1808D0006000F0AD10B480168012964
:10BA200004D00A49016001680129FCD1C0214161AB
:10BA300010BD0000DFFF07C000050040006C0040A3
:10BA4000C00F00F00006004000EC064075930000B7
:10BA500010B508F00DFA10BD10B5024B024A00F007
:10BA6000F3F810BD31EE0100142200202021020C59
:10BA700001D010211046020A01D0104608390209EF
:10BA800001D01046091F820801D01046891E4208C5
:10BA900001D0881E7047081A704730B47446641E7F
:10BAA0002578641CAB4200D21D46635D5B00E31841
:10BAB00030BC184702E008C8121F08C1002AFAD19A
:10BAC00070477047002001E001C1121F002AFBD11E
:10BAD00070470000F0B51FB486B00998089A030DAE
:10BAE0000021024314D05148514A181850430514FC
:10BAF0001198012810981AD0281A401C00264D4F82
:10BB00004D49009601910490002812DA444211E058
:10BB10001198012449A3012801D11098C143069826
:10BB2000119A84600360C26041600BB0F0BD404276
:10BB3000E4E70446210500203F4A001C51410391DF
:10BB4000029012E0E00707D032463B460199009888
:10BB5000FFF72AFC0191009032463B4610461946F9
:10BB6000FFF722FC06460F466410002CEAD1049829
:10BB7000039B0028029A0999089806DAFFF714FC3B
:10BB8000019B009AFFF710FC05E0FFF775FC019B95
:10BB9000009AFFF771FC04460E460022284BFFF77F
:10BBA00003FD03D80020C043014607E00022254BD7
:10BBB00020463146FFF746FBFFF7D6FC102409E08C
:10BBC000002C0ADB0A220023FFF70BFB079B303215
:10BBD0001A55641E02460A43F2D11122641C079BC7
:10BBE000121B1C19119B012B03D0012308430ED1FA
:10BBF0000AE0084304D0112010900020119077E74C
:10BC00001098151A6D1E0BE01098824202DD002379
:10BC10006D1C03E0824201DA00236D1E002BEED082
:10BC2000069811998260C16030C07EE701FCFFFF79
:10BC3000104D0000000014400000F03F30000000F4
:10BC40000000F0430000E03FFFB597B00646002536
:10BC500018E2252877D100242746FD49049400E006
:10BC60000443761C32780120203A90400842F7D1F4
:10BC700030782A280ED0022230780146303909293E
:10BC800016D804990A235943303940181443761CB6
:10BC90000490F1E7189802C804911890002904DA7A
:10BCA0000120400304434842049002200443761CD0
:10BCB00030782E2814D1042004437078761C2A286A
:10BCC00009D11898761C80C8189009E00A214F43C2
:10BCD000303FC719761C3078014630390929F5D92B
:10BCE00030786C2810D006DC4C281AD068280ED08A
:10BCF0006A2817D104E0742813D07A2812D110E0F2
:10BD00000120400504430CE00121090501E0032165
:10BD100009050C437178814203D1012000052418E4
:10BD2000761C761C3078119066280BD013DC5828CE
:10BD30007DD009DC00287BD04528F6D04628F4D0F9
:10BD400047281AD1A5E118E0632835D0642870D0BF
:10BD5000652812D19DE170286CD008DC6728F1D0ED
:10BD600069287BD06E280DD06F2806D1BAE07328E1
:10BD70002ED0752871D0782859D01A9A19999047E1
:10BD80006D1C7EE16002400F022809D003280DD00F
:10BD90000428189801680DD00D60001D189070E1FE
:10BDA0001898EA1701680D604A60F6E7189801686C
:10BDB0000D80F2E70D70F0E718986A46017811726D
:10BDC000001D18900020507202A80090012005E08C
:10BDD000189802C8189000200091C04361070DD543
:10BDE000002101E00199491C0191B94212DA814216
:10BDF000F8DB009A515C0029F4D10BE0002101E04E
:10BE00000199491C01918142FADB019A0099895CF0
:10BE10000029F5D1019904981A9B471A2146384602
:10BE2000199A00F097FA0199401945180BE04FE074
:10BE30002CE113E04EE0009800990078491C009135
:10BE40001A9A199990470198401E0190401CF2D10E
:10BE5000214638461A9B199A10E137E00A20002142
:10BE6000009001916002410F022907D0189A01CA7F
:10BE70001892C2179446032908D00AE01898C01DEA
:10BE8000C108C90005C91891944607E000B2C2175D
:10BE90009446042902D140B2C1178C460022614663
:10BEA000944506DA0A460021404291418C462D21F4
:10BEB00002E0210504D52B216A461173012103E01C
:10BEC000E10701D02021F7E7029155E00A200AE0BE
:10BED000102008E01020009000210420044301916C
:10BEE000082703E008200021019100906002410F23
:10BEF000022907D0189A01CA1892002294460329F1
:10BF000008D008E01898C01DC108C90005C91891DB
:10BF1000944603E080B2042900D1C0B2002102910E
:10BF2000210729D51199702906D0009A1021019B6B
:10BF30004A401A4305D00EE040216A4611730121A0
:10BF400008E06146014306D030216A461173119919
:10BF5000517302210291009A0821019B4A401A4321
:10BF60000AD16146014301D1610705D530216A46F6
:10BF7000117301217F1E02911199582904D035A116
:10BF80000E910DA90D910DE037A1F9E76146019BD6
:10BF9000009AFFF726F90E9B8C469B5C0D9A521E69
:10BFA0000D92137061460143F0D10D9805A9081A4E
:10BFB00020300190600703D501200004844300E095
:10BFC00001270198874201DD381A00E0002001991D
:10BFD00000904118029809180498401A0490E00350
:10BFE00006D421461A9B199A049800F0B3F9451912
:10BFF000002706E003A81A9AC05D199990476D1CA6
:10C000007F1C02988742F5DBE0030CD521461A9B82
:10C01000199A049800F09EF9451904E01A9A302004
:10C02000199990476D1C0099481E00900029F5DC75
:10C0300008E00D980D990078491C0D911A9A1999EC
:10C0400090476D1C0199481E01900029F1DC63E1C5
:10C0500009280100303132333435363738396162DE
:10C0600063646566000000003031323334353637A2
:10C0700038394142434445460000000000F05AF977
:10C080004519761C3078002800D0E2E528461BB020
:10C09000F0BD600700D406271898C01DC108C9006C
:10C0A00048680A680831C30FDB071891190001D0EE
:10C0B0009CA108E0210501D59BA104E0E10701D086
:10C0C0009AA100E09AA1430011985B08109165289D
:10C0D0000CD006DC452809D046281DD0472841D180
:10C0E00041E0662818D067283CD13CE00021112FA0
:10C0F00001DB112000E0781C0191009008A911A833
:10C10000FFF7E8FC139905910021119A15927F1C05
:10C1100012980197009150E00120C0070390012080
:10C12000019008A9009711A8FFF7D4FC139A14995D
:10C1300005920022119B009212981593059A019284
:10C14000002901D0104602E0791C40180190381AED
:10C1500001D5019804E04042401E0090781C0190F7
:10C16000C01B029043E0012F00DA01270021112FAC
:10C1700001DD112000E038460191009008A911A8C6
:10C18000FFF7A8FC13990591119A002112981592B6
:10C190000091019721070CD40599B94201DB01995F
:10C1A00000E00191012904DD159A491E515C3029F6
:10C1B00006D0B84201DA011D05DA0121029115E02D
:10C1C0000199491EEDE7002805DC0099411800910E
:10C1D0000199091A03E0019A411C914200DD019185
:10C1E0000099401A401C02900120C00703902007CC
:10C1F00006D402990198814202DB0020C0430290DC
:10C2000000206946C87707AF012103980337C907A3
:10C21000884224D0022011902B20129003980028ED
:10C220000CDA404203902D20129007E00A21039877
:10C23000FEF77CFF30317F1E039039701199481E44
:10C2400011900029F2DC03980028EFD1791E129892
:10C2500008703078202108404530BF1E387006A88D
:10C26000C01BC01D039010980078002800D001204A
:10C27000019941180298C0170918039809180498E1
:10C28000401A401E0490E00306D421461A9B199AD6
:10C29000049800F05FF8451910980078002803D042
:10C2A0001A9A199990476D1CE00324D521461A9BD0
:10C2B000199A049800F04EF845191CE000980028DF
:10C2C00007DB00990598884203DD1598405C1999B1
:10C2D00001E0199930201A9A904700986D1C401C73
:10C2E00000900298401E0290002804D11A9A2E2035
:10C2F000199990476D1C0199481E01900029DDDCB9
:10C3000005E038781A9A7F1C199990476D1C03999B
:10C31000481E03900029F4DC21461A9B199A0498C0
:10C32000ACE600002D0000002B0000002000000003
:10C3300000000000F8B5044600251E461746880494
:10C3400004D405E039462020B0476D1C641EF9D5A1
:10C350002846F8BDFFB50446002581B01E46C80337
:10C3600001D5302700E02027880404D505E03846B1
:10C370000399B0476D1C641EF9D5284605B0F0BD81
:10C3800010B50178002926D14068445E012104F0EF
:10C3900049FA002801D000F0C5FA4B2000014443BF
:10C3A000E017800D0019801241004018FF300F3057
:10C3B00080B200F071FD0146074800F0CDFF002873
:10C3C00009D0082807D00549884204D0044988428A
:10C3D00001D000F0A7FA10BDE426002004300000D0
:10C3E0000134000070B514490020124B0860134955
:10C3F00008608C681248427CC5685600521CAC53D9
:10C40000D2B24274047CA24212D2846800226468D0
:10C41000002C0AD001228460206848600120086056
:10C42000002A00D01860002070BD44688460F3E7E3
:10C43000012070BD00700040007100400075004098
:10C440001430002010B500280CD000290AD0027842
:10C450000B789A4206D10622401C491CFEF7B4FE16
:10C46000002801D0002010BD012010BDF7B584B018
:10C470000025168807461580406B1446002813D007
:10C4800003780598032E51D30221017021881122CF
:10C49000491C89B2218042542188491C89B22180DB
:10C4A00043542088401C2080386B00281DD005464E
:10C4B0002088059902461232B24237D811220A5416
:10C4C00020881022401C80B220800A542088401C02
:10C4D00020800F202A5C2388401ECA54228840B244
:10C4E000521C22800028F5DA0025384620300290C0
:10C4F000807B002806D033462246059903F045FC90
:10C50000050014D10298407B002806D0324621460F
:10C51000059801F0B3F9050009D1B878002823D0B7
:10C52000059886462088001DB04202D90C2007B02D
:10C53000F0BD684679DF0028F9D1218803207246D2
:10C54000505420881921401C80B22080115420882A
:10C550007146401C80B2208041186846008807F070
:10C560001BFD218840182080F878002817D02188EA
:10C5700003230A46FB56C91C0598B142D6D80221AE
:10C58000815421880122491C89B22180425421888A
:10C59000491C89B2218043542088401C208078683F
:10C5A000002817D021880023C3560A46C91C0598C5
:10C5B000B142BBD80221815421880A22491C89B288
:10C5C000218042542188491C89B22180435420880B
:10C5D000401C2080388900280AD0009438460196F3
:10C5E000062202210830059B07F057FD05009ED169
:10C5F000388A00280AD00094384601960722032181
:10C600001030059B07F049FD050090D1388B0028BC
:10C610000AD0009438460196152214211830059B43
:10C6200007F03BFD050082D1386A002806D033466A
:10C630002246059901F0B2FE0500D8D1786A00289B
:10C6400006D033462246059904F008F80500CED1FD
:10C650000298007B002807D03346224638460599C9
:10C6600006F05EFE0500C2D13878002807D03346B8
:10C6700022463846059904F033F80500B7D128461C
:10C6800055E710B501220221002001F0FDFB002832
:10C6900001D0072812D107220221012001F0F4FB6A
:10C6A000002801D0072809D100210A22084601F0FC
:10C6B000EBFB002801D0072800D1002010BD10B5E9
:10C6C000032000F053FD002801D000F02BF910BD2D
:10C6D000F0B50F468DB0002116466D460F24621A44
:10C6E000825C6A54491C1029F9D328460D21103068
:10C6F000FEF75FFD0020221A395C5219401C1174AC
:10C700000328F8D368464DDF0020211A491920314B
:10C7100009783154401C0328F7D30DB0F0BD000058
:10C7200070B590B005461C216846FEF742FD69468B
:10C730000878042108436946087000240194039492
:10C7400004940594012608A906948E70144869463D
:10C750000884601C00070794000F0C77203048778E
:10C76000887FF9210840F721801C0840EF2108400C
:10C77000B0436946887714210AA8FEF71AFD08A974
:10C780000C7107A80A910B9069460E864C868E861E
:10C7900009A80E90A888AB1D0AAAA2DF10B070BD30
:10C7A000062A0000F0B58FB00D4606461C216846EB
:10C7B000FEF7FFFC684601780A20014368460170D5
:10C7C00000240194039404940594012708A8069476
:10C7D00087701649684601840794697A0177A97AB7
:10C7E0004177807FF9210840F721801C0840EF2124
:10C7F0000840410849006846817714210AA8FEF7DD
:10C80000D8FC297A08A801710A9007A80B906846FD
:10C8100007864486878609A80E90334630890A33F6
:10C820000AAA6946A2DF0FB0F0BD0000062A000088
:10C8300010B5002805D0012808D0022805D1102005
:10C8400005E0112003E000F06DF810BD0D2001F0AF
:10C850003FFB0028F7D110BD044842680121C905FB
:10C860000B46934383600A40C26070470005005046
:10C8700070B50024064D06E06968E000085C0121FF
:10C8800004F068F8641C28788442F5D3002070BD59
:10C89000BC210020F8B515460C460646052A01D2F3
:10C8A0000720F8BD04F02CF9002803D104F0FEF8AD
:10C8B0000028F6D1104900204E600C70C8608D60D1
:10C8C00008610E4D0DE0E0006968801900918178E3
:10C8D0006A46517000780A4A694604F08BF80028CD
:10C8E000DFD12046641EE4B20028ECD1054A0021C5
:10C8F000024800F04DF8F8BDBC210020F8450200C8
:10C900004DF50100CDE50100BFF34F8F0449034809
:10C91000C860BFF34F8F00BFFDE700000400FA05B9
:10C9200000ED00E00EB50021029000916A460191F1
:10C930000148FFF7E9FF0EBD0140000010B5826815
:10C94000C368934203D002F009FA002010BD05200D
:10C9500010BD002906D0002A02D0531E134203D076
:10C96000092070470E20704701608380002181609C
:10C97000C1600846704710B58268C3689A1A8388F8
:10C980009A4203D802F0F4F9002010BD042010BD33
:10C99000094B9B68002B07D0002A07D0002805D040
:10C9A0000068037C002B03D00820704707207047E5
:10C9B0004174426100207047D0210020FFB59007EC
:10C9C000002581B014460E46002832D11B4F002CA2
:10C9D00031D006F0F3F904987861032038703346BB
:10C9E0001821224600204B43BC601834C10089182E
:10C9F0000D704D708E704C601C19401C0328F5DBC7
:10CA0000FD607D7001240E48BD7024050460032183
:10CA10001420FEF787FF0B4804600B4C0198A060C0
:10CA200003211120FEF77EFF60683861002005B009
:10CA3000F0BD0720FBE7BD60FBE70000D021002030
:10CA400080E200E000E100E000150140FEB50D4687
:10CA50001B4917468968044600292AD0002C28D093
:10CA6000052D01D20720FEBD6069002821D0607C21
:10CA7000012820D0002607F0D3FAC0001049019009
:10CA800089684018694607F0F5FA002815D0012199
:10CA900001700C49446049680830E2C008490198B7
:10CAA0008968411868460078487007F0ABF80020A4
:10CAB000FEBD0820FEBD2E46DDE70420FEBD0000C1
:10CAC000D021002000150140F8B5134D0446A96897
:10CAD00000291CD0002C1AD06069002817D000262D
:10CAE000267407F09DFAC700A8686946381807F051
:10CAF000C1FA00280DD0022101704460A8683918DD
:10CB000068460078487007F07DF83046F8BD082088
:10CB1000F8BD0420F8BD0000D021002070B5044607
:10CB2000224888B01E460D0042601CD0A8882968A3
:10CB300082B21F48FFF70DFF002815D1A889A96808
:10CB400082B21B481030FFF704FF00280CD12022CE
:10CB500018496846FEF714FBA06806902079002863
:10CB600004D0012103E0072008B070BD0021684611
:10CB7000017506776079002800D00E206946487557
:10CB8000E0780290A078039020780190607800907F
:10CB90000949684603F0BCFF0028E5D104F042F8DB
:10CBA00002480121401C04F017F8DDE79021002025
:10CBB000F42F0020B4450200C13D020010B501462B
:10CBC0000A48FFF7D8FE04000ED104F0D1F800287F
:10CBD0000AD107490548FFF7B1FE002804D1012119
:10CBE000034804F079F80446204610BD04300020C4
:10CBF0009021002030B5EFF3108172B6094A5468D5
:10CC00000123002C04D00370002900D162B630BD8E
:10CC10005360054B1D68054C254015601C600022C3
:10CC20000270F1E72C22002080E100E0FC06FFBC4E
:10CC300008494A68002A0CD000280AD1EFF3108076
:10CC400072B60A68044B1A6000224A60002800D1BC
:10CC500062B670472C22002000E100E0F0B50446E7
:10CC60008BB0008800F012FD0690208802F0FCFED8
:10CC70000646A0680090657A684605741E4F2088B5
:10CC8000797B002200F052FD0698002831D06079AF
:10CC9000400710D50721304604F0DAFE002813D0F3
:10CCA000082269460A7422884A828E82069004A865
:10CCB00001F0D2FD08E0F97B208800F025FD002876
:10CCC00002D0304602F0B0FE03216846017121888F
:10CCD000C18060794007C10F68460172A0794007A2
:10CCE000C10F6846417201788172C57201A801F0D6
:10CCF000B3FD0BB0F0BD00002021002000B585B0D1
:10CD000014216846FEF755FA134800900121684641
:10CD100001710020029064216846017301200146E0
:10CD20006846103141730120014668461031817315
:10CD3000002001466846C173012001466846103153
:10CD400001746946054800F041FB002801D0FFF757
:10CD5000E9FD05B000BD0000610E0200E4260020E0
:10CD6000F0B50546007D002493B00E4600280DD096
:10CD7000012001466846103103940173717B4173B1
:10CD8000817BF92001406846891C81731C2104A81D
:10CD9000FEF70FFA6946087C0221084369460874C9
:10CDA0002A7DEF21002A02D01022104300E0084023
:10CDB0006A461074059407940894287D002800D0D2
:10CDC00003A8099001270A9410469771304A82807F
:10CDD0000094B27B0270F27B42708078F92210409E
:10CDE000F722801C1040EF210840410849006846A6
:10CDF0008170317B017214210BA8FEF7DAF901A8CA
:10CE00000B9068460C908786C486078702A80F900F
:10CE1000A888AB1D0BAA04A9A2DF002835D1B068F1
:10CE2000002830D0684687711A4981800094317C8F
:10CE3000017000200146684641708078F921084061
:10CE4000F721801C0840EF2108404108490068464E
:10CE5000817011A8B16800F09FFE064614210BA84E
:10CE6000FEF7A7F901A80B9068460C908686C48649
:10CE7000068711A80F902A46E8880E320BA9A3DF77
:10CE8000002802D100E0EC81002013B0F0BD0000CA
:10CE9000192A0000082900001C4A10B5904201D34D
:10CEA000642010BD19496439884207D9101A3A2103
:10CEB00048436421FEF750F9642109E0144A904286
:10CEC00009D9081A18214843A021FEF745F92A215B
:10CED000081AC0B210BD0F49884208D9101A0C2197
:10CEE0004843FF212D31FEF737F91221F0E70A4AB6
:10CEF000904208D9081A06214843FF215531FEF710
:10CF00002BF90621E4E7002010BD0000B80B00005B
:10CF1000B40A0000880900003408000010B503F0CE
:10CF2000E3FC10BDF0B50C4693B01F216A4611809A
:10CF3000072600279180002809D0C17849070DD520
:10CF400002A9FFF793FA002809D102AD01E00025FC
:10CF50001780002C0ED0E078002802D0304613B0A5
:10CF6000F0BD01AA0AA92046FFF780FA0028F6D1F1
:10CF70000AAA02E068460022878068468088C3B219
:10CF800068460088C1B2284672DFE8E770B50D46F2
:10CF900004991646040042D0002E40D04248002298
:10CFA0004271C3600161242231464048FEF7E8F82F
:10CFB00000F0D4F83D493431084610380160203182
:10CFC000816038215C38FEF7F4F838482178383829
:10CFD0000170A1788170E178C170617841706269F7
:10CFE000216942610161E268A168C2608160014615
:10CFF000E369A269CB618A61616A002919D001469F
:10D00000AC310246B83241628A60636A1B880B8089
:10D01000616A436A898899800021436A06E00E208C
:10D0200070BD666AB668765C5654491C9E888E420E
:10D03000F7D8A16A00291CD01C4AAC3211460C3921
:10D040008A608162A36A9B888B80A16A836A09884F
:10D0500019800021836A04E0A66AB668765C56549B
:10D06000491C9E888E42F7D82C210A5D0F49183939
:10D070000A73216A002909D00B4914310162226A1E
:10D0800052884A80216A026A0988118061680029F1
:10D0900004D00549891D4160616841600348294603
:10D0A0003838FFF73FFF70BDC0200020B8270020B0
:10D0B00010B502881C4C102A17D00021112A1AD052
:10D0C0001B2A11D1007A00280ED1607901281ED0C8
:10D0D000022822D0032822D0042805D12171E26839
:10D0E0000846002A00D0904710BD817D0129FBD160
:10D0F0008088208110BD6170808821898842F9D1A3
:10D10000012005E021690029F4D0884710BD0220E4
:10D1100000F02CF80028F5D110BD0320F8E703201B
:10D1200020710420F4E70000C020002010B5022880
:10D1300001D003280ED1084C207800280AD0002006
:10D140002070607900F012F8002803D021690029CE
:10D1500000D0884710BD0000C020002010B5072176
:10D160000148FEF726F810BDD8200020F0B5784C15
:10D1700087B06071002606A8069605F007FC012717
:10D18000082802D0002808D104E006A801F0DCFE3F
:10D19000002804D10698002801D02770D4E0FFF7BA
:10D1A000DDFF6C4D6878002802D06079012807D037
:10D1B000A87800280CD06079012801D0022824D159
:10D1C000E168002903D0E7700820884700E0E67096
:10D1D0006079012808D16878002809D05C481930A6
:10D1E00004F0D4FF002803D06079022802D00CE0BC
:10D1F00002206071A878002805D05548193004F045
:10D20000C5FF002801D103206071287B002804D1CC
:10D210006079032801D104206071287E002804D1A0
:10D220006079042801D166712671E16800290AD06D
:10D230006079032801D0042805D12878002802D07D
:10D240006078002817D0A67018216846FDF7B1FF56
:10D2500068460670019606720396607901280ED022
:10D26000022815D03B4E243637465C3F03281BD09E
:10D2700004285DD13AE0A77007208847E4E73448E6
:10D28000183001906846077046820682277152E086
:10D290002F48183001906846077029894182A98873
:10D2A00001820220207146E0A88A69464882288AC5
:10D2B00008822848243006F05FFF002805D028782F
:10D2C000002802D06078002801D003202FE002203F
:10D2D0006946087204200396F8701E480021383809
:10D2E000FFF720FE002830D1052020E0A88B6946FA
:10D2F0000882288C48821748243006F03DFF002819
:10D3000005D02878002802D06078002801D00420B9
:10D310000DE002206946087204200396F8700D485B
:10D3200000213838FFF7FEFD00280ED106202071BD
:10D330006079002803D0684673DF002805D1E168D2
:10D34000002901D020798847002007B0F0BD0000F7
:10D35000C0200020B827002073B586B004002FD06D
:10D360006A46217C127F0020914227D000250126A9
:10D37000684600950680458007A80190E188608A8C
:10D380006A46A4DF002819D16846007F2074608AAD
:10D390000D49884216D0207D002813D002950395B0
:10D3A00004950595E18868460181867241888181EE
:10D3B000049001980590608A02A9A6DF08B070BDAC
:10D3C0000E20FBE70820F9E7FFFF000038B50D4607
:10D3D00004001AD0002D18D0286820600020C04317
:10D3E000608228792075FF202074012168468170B1
:10D3F00007490180221D69460120A0DF002803D1D2
:10D4000029462046FFF7ACFC38BD0E2038BD000091
:10D410000F18000038B5002824D0002922D00A882F
:10D42000102A1AD0112A1AD0502A1BD1027D002AA4
:10D4300018D0CA884389891D9A4213D14A89022A81
:10D4400010D10268002A0DD04B7B0C7B19022143BE
:10D45000C907C90F07D0002106E0898801E0002133
:10D46000C943418238BD01216B4619706946904716
:10D4700038BD000070B5054601461C220E48FDF778
:10D480007FFE0E4C002626702968002906D008224F
:10D49000201DFDF775FE201D7ADF02E00748001D04
:10D4A0007BDF002807D1401E60806670044A00219F
:10D4B0000448FFF76DFA70BDA4280020E02000208A
:10D4C000A53F02004C450200F8B5214C0288002718
:10D4D0001E4DE689102A15D01E49112A21D0122A84
:10D4E0002DD0502A1CD1C288801DB24218D1428949
:10D4F000022A15D1427B037B10021843C007C00FDC
:10D500000CD112E081886980014610480822183148
:10D510000C30FDF735FE6F70002E01D100F086FF54
:10D52000F8BD0020C04368806F700868FFF7CCFA30
:10D530000028F5D0A1690029F2D08847F8BD08225B
:10D54000811802480C30FDF71BFEE7E7E0200020C1
:10D55000A42800204C45020010B503490A7D091D8E
:10D5600005F027FD10BD0000C0280020034B10B5BA
:10D570000246D97D181D05F009FD10BDC028002008
:10D58000034B10B50246197E181D05F0FFFC10BDB7
:10D59000C0280020F0B5044602883A488DB0014604
:10D5A00015310191102A09D0112A50D01A2A4AD1D6
:10D5B000217A090901294ED901234DE0027D417DDF
:10D5C00005468A43011D07A805F0F3FC142207A9AC
:10D5D00002A8FDF7D5FD00262A48374614300890EA
:10D5E0000AE0710002A8081883881D220097281DF0
:10D5F000089905F08BFC761C0298B042F1D8287D82
:10D60000A688C043C0B205F0A5FC1F49884217D0C8
:10D6100040004019868001233246281D019905F0FB
:10D62000EBFC01233246281D089905F0E5FCA07D9E
:10D6300002280AD000231349A2881631281D1DE0B4
:10D640000420FFF76FF90DB0F0BD0123F3E70023CD
:10D65000A288001D12E000230A490546A28817315E
:10D66000001D05F0C9FC207A0009022801D9012318
:10D6700000E000230349A2881831281D05F0BCFCF6
:10D68000E1E70000C0280020FFFF000070B50B4E4E
:10D6900005460024317D2A46301D05F077FC002820
:10D6A00009D0B17D2A46301D05F070FC002801D05C
:10D6B000022400E00124204670BD0000C0280020A4
:10D6C00010B50024204606F09FFC002805D0641CFD
:10D6D000E4B2182CF6D3182010BD044801220168CA
:10D6E000A24011430160204610BD0000C028002068
:10D6F00010B5044606F088FC002802D00148001945
:10D70000407E10BDC028002070B505460C46084676
:10D7100006F07AFC002806D003482A460119497E03
:10D72000001D05F033FC70BDC028002070B5064612
:10D7300015460C46084606F067FC002807D004484A
:10D740002B4601193246001D193105F055FC70BDFC
:10D75000C028002070B500280AD00F4D2978002974
:10D7600008D0044605F004FB002805D0002070BD59
:10D770000E2070BD082070BDE868062809D2074A4F
:10D780008100891822880A8062884A80401CE860EB
:10D79000ECE7042070BD0000F4200020F4280020F5
:10D7A000002808D0002205490123CA600B708A6056
:10D7B0004860104670470E2070470000F42000209B
:10D7C00010B5002811D000290FD0124A1278002A73
:10D7D0000BD00A88112A11D0302A07D0322A09D05A
:10D7E000332A02D1091D03F011FC10BD091D03F0FD
:10D7F000C3FC10BD091D03F091FB10BD8A88FF21F9
:10D80000AB31095A8A42F8D10021FF30A130C171F1
:10D8100010BD0000F420002010B50B4600280ED0EB
:10D82000144A117800290CD0D168002909D0044687
:10D83000FF34A134E179002905D0112010BD0E205C
:10D8400010BD082010BDFF21AB310B5200219160AB
:10D85000024621720848A1710188118040885080D9
:10D860000121184690DF0028ECD10120E071002052
:10D8700010BD0000F4200020F42800207CB50546EF
:10D8800008880C460930904201D90C207CBD6846BE
:10D8900071DF0028FAD121880820685420881B21D4
:10D8A000401C80B220802954208800A9401C80B2EE
:10D8B0002080401906220131FDF762FC208869466C
:10D8C000801D80B220800978002900D001212954D0
:10D8D0002088401C208000207CBD000010B504463C
:10D8E000FFF758FE204604F035FF21461348FFF7A6
:10D8F00067FF2046FFF7E8FD2146114800F0DCF8FD
:10D900000F482146103000F01DF90D482146243003
:10D91000FFF780FD0A4821463C3000F042F80848F5
:10D9200021460C3800F094F9204600F0C1F9204659
:10D9300003F0AEFA2046FFF7BBFB10BD0825002020
:10D94000C0260020002803D00181C2820020704739
:10D950000E20704710B5002817D00A68002A14D08E
:10D96000002912D00260496841600021C943018149
:10D970000021C18201210174054AC2810173054958
:10D9800041810A30FFF7E6FE10BD0E2010BD0000F9
:10D99000062A000002180000C08A002800D00120DA
:10D9A00070471FB50988112910D104460020C043D3
:10D9B00020812046FFF7F0FF002807D002206946AB
:10D9C00008702268204690470020E0821FBD0000BA
:10D9D000F3B585B000270C46009701970297012107
:10D9E00068460397017061884180264620780E368C
:10D9F00000281BD1A0881349884217D1A07901289B
:10DA000014D100250FE028460C214843325A0E4914
:10DA1000CA4207D181190879400703D50A2201A813
:10DA2000FDF7AEFB6D1C207AA842ECD868468089D1
:10DA3000002801D06846077005986946026890473B
:10DA400007B0F0BD02180000FAD5FFFF33B583B070
:10DA50000446FFF7A1FF002811D02089E48A0021A5
:10DA600000916D46019101236C8002242C70A980E5
:10DA700004AAEB806946029298DF05B030BD05200C
:10DA8000FBE7000038B50446086800280FD0206086
:10DA900001216846817007490180221D69460120E5
:10DAA000A0DF002802D12046FEF73AFE38BD07204D
:10DAB00038BD00000218000008B50A88102A12D0EC
:10DAC000502A0FD1CA88C388891D9A420AD14A892F
:10DAD000012A07D100236A461370097B517002683E
:10DAE0006946904708BD8988C18108BD1CB50022E0
:10DAF00001246B4600921C805A8001914189408A22
:10DB00006A46A5DF1CBD000038B5044608680D460E
:10DB1000002813D020606868606001216846817029
:10DB2000074901802246083269460120A0DF00280B
:10DB300003D129462046FEF735FE38BD072038BD03
:10DB40000318000038B50B880022102B0BD0112BC6
:10DB50000CD0192B1AD1097A002917D169460A70FD
:10DB60004A70026816E089884182F7E70446087A1D
:10DB700008280BD168460270411C2046FFF7B6FF0B
:10DB8000002804D06168002900D0884738BD226889
:10DB900069462046904738BD0A780270497841703E
:10DBA0000220704700B51A4887B0406805900023EE
:10DBB0004822184905A805F0B7FF002801D0FEF754
:10DBC000B1FE6A460121002005F096FF002801D031
:10DBD000FEF7A8FE104805F04BF9002801D0FEF72B
:10DBE000A1FE684605F07EFF002801D0FEF79AFEF0
:10DBF0000A4805F06DFF002801D0FEF793FE0848A3
:10DC000005F0ACFF002801D0FEF78CFE07B000BD88
:10DC100000450200C0240020E81F0020DDD80100DC
:10DC2000713B020038B504460D46012168468170FB
:10DC300006490180224669460120A0DF002803D161
:10DC40002946204606F06CF838BD00000418000094
:10DC50000A88102A01D18988418170477CB5134E0A
:10DC600000250C463060002918D06946002000F0DD
:10DC7000B5F8002819D101A9012000F0AFF800285B
:10DC800013D1684601790020002901D0022004E068
:10DC900069460978002900D00B20207070680028A0
:10DCA00002D1FEF7EEFC054628467CBDB8200020D8
:10DCB00010B51C4C0188606810290DD011290AD1BB
:10DCC000401E606007D1FEF7DCFC002803D021680D
:10DCD000002900D0884710BD00281ED10021012254
:10DCE000084600F0D1F8002801D0072811D10722FA
:10DCF0000221012000F0C8F8002801D0072808D12F
:10DD000004220221002000F0BFF8002805D00728D7
:10DD100003D02168002900D088476068401C6060FB
:10DD200010BD0000B820002010B5032000F02AFA32
:10DD3000002801D0062800D1002010BDF8B5074604
:10DD40000024234802E0641C042C1AD2A20082584A
:10DD5000BA42F8D1042C14D21D481E4E0C380029AA
:10DD600029D001290ED002290BD16000201880197A
:10DD70004578002D05D018480169002901D02846B2
:10DD80008847F8BD61006118755C8E1971780029AB
:10DD90000CD011490A224968806851430E4A521C2E
:10DDA000FEF754FE002801D10B4847700A48B178AD
:10DDB00014300155DDE78068FEF786FE06486100F5
:10DDC000611814308919005D8D78A842D1D0F8BD52
:10DDD0001C45020054270020A020002004280CD25B
:10DDE000074A1269074B80001B5C01209840904352
:10DDF00000D001200870002070470020FAE70000E2
:10DE0000000500501C45020010B504280CD00A285B
:10DE100007D00D2811D00E2805D1112000F058F898
:10DE200008E005F021FB10BD13481321008976DFBF
:10DE30000828F8D0002815D110BD104C20780028F3
:10DE4000FAD0A078002810D000210B48FFF7FEFD83
:10DE500000280CD00A498842EED00A498842EBD00B
:10DE60000528E9D0FEF75EFD10BD0221EDE7A078A0
:10DE700001214840A07010BDFC2600208020002019
:10DE8000043000000134000070B50023042811D2D2
:10DE9000440004190D4D012A02D101290DD00022A0
:10DEA00046008019094E801900290CD0012906D09E
:10DEB000022906D00723184670BD0D30C2B22A557C
:10DEC000F9E74270F7E78270F5E700005427002079
:10DED00010B5054A0146127A0020D20702D0084642
:10DEE00000F054F810BD0000A020002070B50E46D0
:10DEF000204905464E608D6000200A61A9071ED5A5
:10DF00000024012211462046FFF7BEFF641C042CAA
:10DF100002D20028F5D012E0002810D172080421A6
:10DF20001548FEF7B7FC002809D1FEF7A1FC002830
:10DF300005D11148114A00211438FEF729FDE907DF
:10DF400006D00F220E4952058A600023CB608A61F9
:10DF500000280DD108480B4A00211C38FEF718FD97
:10DF6000002805D10448084A01211838FEF710FDA1
:10DF700070BD0000A02000202C450200C1E101007E
:10DF800000050050E1FD010059C80100FEB57A4DC1
:10DF90000722EB6892059A4302936B6800939C00FA
:10DFA00006461B1900200121019349050746734CC1
:10DFB0003300FDF772FD180D1515374755677C883E
:10DFC0007F8891DE9E9E9E9E9EC8CED1D8DEDE14B6
:10DFD0000F21029A49059143A160E7602F70FEBDB1
:10DFE000A260E76060680F2252055040800209D5A8
:10DFF000A160E760022E02D1E120C0000AE07D208E
:10E00000400107E0E160A760022E01D1C82001E0D5
:10E01000FF2091302E706421FDF788F8009941436C
:10E0200000223FE0A260E76060680F225205504086
:10E03000800204D5A160E76019204001EAE7E160B1
:10E04000A760E3E7A260E76060680F2252055040D6
:10E05000800202D5A160E760D1E7E160A760D7E761
:10E06000A260E76060680F2252055040800202D52E
:10E07000A160E76001E0E160A7602E7000984100B8
:10E0800000220FE0A260E76060680F225205504056
:10E09000800202D5A160E76001E0E160A7602E7018
:10E0A0000099002236480068FEF7D0FCFEBDA26051
:10E0B000E7601BE061680120800502468A43A26098
:10E0C0000140E16010E06068012189050A46824351
:10E0D000A2600840E060E3E76068012189050A4624
:10E0E0008243A2600840E0600199C9E7E160A7604F
:10E0F0002DE023484068FEF7E7FC11218A1B01D080
:10E10000002807D00F22E96852051140A160E7609E
:10E11000EF60FEBD0121C905E960012A0CD9104656
:10E12000C82148436421FDF701F869680022414392
:10E1300013484068FEF78AFC0F22E9685205114037
:10E14000E160A760FEBD0F214905A160E7602E7068
:10E15000FEBD07229205AAE70D214905A160E760EF
:10E1600001218905C2E70321C905A160E760891083
:10E17000BCE70F214905B9E7A020002000050050A9
:10E1800010450200F0B500210B4C0C4D03273F0455
:10E190008A00A25892005619326801238B4003402E
:10E1A00000D00323BA431B0413433360491C0429E2
:10E1B000EED30020F0BD00001C4502000007005017
:10E1C00010B500780221FFF7B9FD10BD0022D2433F
:10E1D000830004490428CA5002D30818203002776B
:10E1E0007047000028300020F0B50025ED43002ADC
:10E1F00002D00023042601E0042308260B4C04E08F
:10E200009F00E7597F1C04D05B1CB342F8D328461B
:10E21000F0BD26185DB2203635709E00A151002A4F
:10E22000F5D1E11820310877F1E70000283000200F
:10E2300002490918202008567047000028300020A5
:10E2400038B50B460146FF310246A1318879462494
:10E25000604380184A79002A08D0521ED2B20C219D
:10E260004A431118498A6A46491C01E0C1886A4636
:10E270001180008950801146184692DF38BD000099
:10E28000002807D00449814204D80449814201D9B9
:10E2900001207047002070473822002048220020CB
:10E2A000044A0168914201D0083101E0014938393E
:10E2B000016070474C32002070B50D4D04460A468F
:10E2C0002846AC4208D1FF2401342146104604F010
:10E2D000FFF9A0420AD070BDFF2CFCD821461046A1
:10E2E00004F0E8F9002801D0204670BD284670BD32
:10E2F000FFFF0000F8B52348C16800293ED00E6832
:10E3000021494C680769C078E11B0D022D0AED1CFC
:10E31000002814D101201D4A000450601B4A403AD5
:10E3200050601B49400008601A4908601A490120E2
:10E3300008602F20FCF7CEFE12490120C870B542BC
:10E3400000D23546E81900020F4B000A403318602E
:10E350000D4A5168001B091B0902090A0002000A44
:10E36000C91C814209D9506818602F20FCF7B2FE01
:10E3700001200749400480390860F8BD04F01EFD03
:10E38000F8BD0000D02100200015014040130140DD
:10E3900080E200E000E100E000100140F8B5064630
:10E3A000108814468446801D0D46984201D90C20E1
:10E3B000F8BD32880720062AFAD31927FF01184B27
:10E3C000BA4201D99A42F3D171880629F0D3B942F1
:10E3D00001D99942ECD19A4203D0994201D08A42A4
:10E3E000E6D805216046295420881221401C80B2BD
:10E3F000208029542088401C80B220804119308818
:10E4000005F0CAFD2188401880B22080411970882B
:10E4100005F0C2FD2188401820800020F8BD0000D2
:10E42000FFFF000010B5FEF77DFA10BDF8B51648E5
:10E4300001F02AFC144D00260C3D144C002807D096
:10E44000616900291CD001206A461070684616E0F8
:10E450002878002805D06169002911D06846067027
:10E460000DE0687800280DD0A168094800220068F6
:10E47000FEF7ECFA002803D0A169002900D08847F4
:10E480002E70F8BD6168F0E7EC200020A428002081
:10E490004C45020010B501460148FFF799FA10BD3E
:10E4A000FC260020F0B585B00C46002802D00120E3
:10E4B00005B0F0BD207900270126002806D01F4DA9
:10E4C000012820D002282CD00F20F1E702970397D3
:10E4D000E0680190694601A804F08EFB00280ED088
:10E4E00002988188E18000882081029804F0FEFB78
:10E4F000694609880A01124951188E7300E00A2002
:10E5000002212171D4E70F4B6A460021A01D04F0BF
:10E5100031FB002807D00B4908398F60CF600A28EB
:10E52000C6D12846C4E7019804F0E0FB0549898874
:10E530000A01034951188E73F1E700001D1D000008
:10E540005C320020F8210020F7B50546FF3506466D
:10E55000A135A8794621484387196C790C2060437E
:10E56000C1193A79601C0A3182B0904226D101ABC0
:10E570000022304601F096FB002822D010E0401E19
:10E58000A04201D1002003E00C206043C0191630E6
:10E590000246009001AB304601F084FB002807D012
:10E5A00003980021017001A9049893DF05B0F0BD24
:10E5B00068790099401C641C6871E4B23879A04203
:10E5C000DDD80398012101700020EFE7F8B500269F
:10E5D0000124154D23E06968F0004718387821467A
:10E5E0002A698140114218D08A432A6102F054FA04
:10E5F0003A782146EB68914019400346934099428E
:10E600000BD17978012901D0012100E000217B683C
:10E610004140002B01D010469847761CF6B228786E
:10E620008642D8D3F8BD0000BC210020F7B5FF21F9
:10E63000A7311446095C462251430F18384604F0AE
:10E6400097FB060033D01A4A906806282FD221463D
:10E65000144650225043174D4622401941803946F6
:10E66000001DFCF78DFD01980027002804D0A0684C
:10E67000502148432F5404E0A06802215022504307
:10E680002954A068502141434919401CCE64A06020
:10E69000E16888420BD1002605E050207043401904
:10E6A000C16C8847761CE0688642F6D3A760FEBD41
:10E6B000F42000200C29002030B50D46FF21A731A1
:10E6C0001446095C4622514393B0081804F050FBED
:10E6D000030005D0684644800121017001959847E8
:10E6E00013B030BD10B50E4900234A788C78A24291
:10E6F00012D0521CD2B24A70022A00D14B704A7812
:10E70000074B920018339A580260086910180002EB
:10E71000000A0861012010BD0360002010BD000048
:10E72000D02100203EB5094D38CD009302950194CB
:10E730006B46588099809A7105490022497BFEF703
:10E74000F5FF684600F088F83EBD0000A8450200CD
:10E750002021002010B5047800222300FDF79DF948
:10E76000070605070D1D262C06000A7010BD0122A4
:10E770000A7002898A81828814E002220A70028962
:10E780008A818288CA81C2688A60007C062802D099
:10E790000020087410BD0120FBE703220A70C28824
:10E7A0008A810289CA81C068886010BD04230B7009
:10E7B000C0888881CA8110BD0520087010BD000086
:10E7C00070B5064D06460024A0002958002901D046
:10E7D00030468847641C032CF6D370BD903100206E
:10E7E0000EB5002910D011290ED0002200920292FD
:10E7F0006A46508001910D2907D0042907D00920CD
:10E800001070104600F038F80EBD0B20F8E70A2013
:10E81000F6E7000070B506460024054D04E0A000B0
:10E82000295830468847641C287BA042F7D870BD21
:10E83000EC2A002070B506460024064D05E0A00035
:10E840004019016930468847641C287FA042F6DCE5
:10E8500070BD0000D42F002070B506460024054D81
:10E8600004E0A000295830468847641C287BA04259
:10E87000F7DC70BD2021002070B506460024054D50
:10E8800004E0A000295830468847641C287BA04239
:10E89000F7D870BD70210020002805D0002242600A
:10E8A0008260016010467047052070477FB50446BE
:10E8B000406800280BD00020039020780026374DB8
:10E8C0000300FDF7EAF80663061D243B5D630120A3
:10E8D000F2E76068002811D0032168460170A08922
:10E8E00000F04FFA014668464180E08904F00EFAD4
:10E8F000014668460171606803901AE00021ECE768
:10E900006068002801D00421E7E70121E5E760689D
:10E91000002811D0052168460170A08900F031FA65
:10E92000014668464180E08904F0F0F901466846F6
:10E930000171A068029026E00221ECE7E08900283E
:10E9400021D1A089164988421DD000F01AFA6946E3
:10E950004880E08904F0DAF9FF20694608716068B0
:10E96000002806D0072008706E77AE7703F01AFCF7
:10E9700009E0062168460170408803F0ADFCF3E72A
:10E98000082069460870684603F0A2F9A87F0028AD
:10E9900002D0AE7703F006FC7FBD0000242C0020DF
:10E9A000FFFF000000B5104987B00978890702D43D
:10E9B000022007B000BD0D49884201D10420F8E7CC
:10E9C000052269460A7001220A71C8800022114698
:10E9D000684602F03FFC002803D004F0AFF80020A6
:10E9E000E7E70820E5E70000F0210020FFFF000036
:10E9F00000B50F4887B00078800702D4022007B026
:10EA000000BD06206946087000221146684602F0E3
:10EA100021FC002809D007480178002901D00121F4
:10EA2000817304F08BF80020E9E70820E7E7000095
:10EA3000F02100209C32002000B58DB014216846E2
:10EA4000FCF7B7FB1E480078810703D56846FFF73F
:10EA5000B7FE32E0C00730D1012000F0B1F900F07C
:10EA600031FA02F085FC00280ED006280FD00121D3
:10EA70006A4611750300FDF710F80C1911191119E8
:10EA800018191819131613190B200DB000BD022008
:10EA900000F096F9012000F079F9D7E7002000E0B6
:10EAA0000320107602E00220FBE7117600221146D7
:10EAB00005A802F0CFFB04F041F80020E5E70000D4
:10EAC000F0210020F0B587B00020059006901AA034
:10EAD00001F09AFC1E4D6E1022E003A9684600F07A
:10EAE000B1F8002825D11BA0009901F08DFC1FA0D2
:10EAF00001F08AFC0024049F06E0A00039581DA004
:10EB000001F082FC641CE4B203984088A042F4D86F
:10EB100015A001F079FC684600F030F8002808D113
:10EB200005AB6A462946304600F06AF80028D4D082
:10EB3000002007B0F0BD000053746172742073654B
:10EB400061726368696E672E2E2E200D0A00000028
:10EB500022220000466F756E64205265636F7264F6
:10EB6000204944203D2025640D0A00004461746161
:10EB7000203D2000307825387820000038B504008A
:10EB800014D0694604F038F8002813D0684600888D
:10EB90000101094809188889002809D0A27A002AA9
:10EBA00006D0401E88810020A07238BD052038BDE7
:10EBB000062038BD0A2038BD5C32002000B50F4960
:10EBC00087B00978890702D4022007B000BD002869
:10EBD00010D0042269460A7000220A71006803906E
:10EBE0001146684602F036FB002805D003F0A6FF68
:10EBF0000020EAE70520E8E70820E6E7F02100200A
:10EC00001FB501A9684603F0B5FF04B010BD07B5F4
:10EC100013460A466946002003F0ACFF0EBD07B557
:10EC200013460A460021684603F0A4FF0EBD0028E3
:10EC300005D0002903D00068086000207047052037
:10EC40007047000038B50D46040017D0002D15D0D0
:10EC5000694603F0D1FF002812D068460088616839
:10EC60000201084812189089401C90812960606850
:10EC70000C3068600120A072002038BD052038BD2E
:10EC80000A2038BD5C32002010B5002804D00323D0
:10EC9000002205F0DBFA10BD052010BD10B50223DF
:10ECA000002205F0D3FA10BD10B5002A03D00223CC
:10ECB00005F0CCFA10BD052010BD000010B5064AC5
:10ECC0005178032906D08B00044C491CE050517048
:10ECD000002010BD0C2010BDF0210020903100203C
:10ECE00038B504460A480D460078800701D4022052
:10ECF00038BD002C0AD06946284605F0DBFB002809
:10ED0000F6D1694609882180658038BD052038BD67
:10ED1000F021002010B504460E480078800701D489
:10ED2000022010BD002C10D0218804290FD80A4AD7
:10ED30000801801842896088121A032A07D405F056
:10ED4000AFFB00202080608010BD052010BD042096
:10ED500010BD0000F02100205C3200208268838812
:10ED60001A4003689A5C0A708168491C8160704788
:10ED7000C26883881A4003689954C168491CC160FD
:10ED8000704703218903401A80B2704702490A780C
:10ED900082430A7070470000F021002010B504463D
:10EDA0000078182802D1FEF78BFC207010BD10B53A
:10EDB00004460078182802D1FEF782FC207010BDAE
:10EDC00002490A7802430A7070470000F0210020CF
:10EDD00070B5064600200546042906D0112902D048
:10EDE000002903D070BD012500E001200F4C002A4E
:10EDF00011D00246A17C3046FEF798FC617C2A4681
:10EE00003046FEF793FCA17B00223046FEF78EFCD5
:10EE1000617B002206E00246A17B3046FEF786FCBD
:10EE2000617B2A463046FEF781FC70BD70210020D0
:10EE300010B50446C0B2FDF7C1FE204610BD00006B
:10EE4000F8B506461B48154600780C46C0070AD0A0
:10EE50003046FFF715FA002807D0002C07D0A00590
:10EE600007D00620F8BD0120F8BD0220F8BD032020
:10EE7000F8BD3068A04204D8A80271680019884221
:10EE800001D90520F8BD002D10D0684603F0A8FD7B
:10EE900000280DD00098022106600171A101090C23
:10EEA0000181858103F058FE0020F8BD0420F8BDE3
:10EEB0000720F8BD0822002010B5084603F0ACFD7D
:10EEC00010BD0000F0B51C491C48081A05091C4873
:10EED0004169481C03D1012000074069810219489B
:10EEE00000220078541E8646C00701D00020F0BDE5
:10EEF000002319E0002084460AE0104E0701BE19E5
:10EF0000A04204D0767B664501D3B4460246401C3D
:10EF1000A842F2D30948140120184160047BA402DE
:10EF2000091B14465B1C0160AB42E3D305487146E4
:10EF3000012211430170D9E7482200203822002025
:10EF40000010001008220020002804D00349496D59
:10EF5000016000207047032070470000AC320020A1
:10EF6000F8B507461D481E46007815460C46C007F2
:10EF70000ED03846FFF784F900280BD0002D0BD0B7
:10EF8000002C09D028462043800707D00620F8BD72
:10EF90000120F8BD0220F8BD0320F8BD3868A0426A
:10EFA00004D8B10078680919884201D20520F8BD5B
:10EFB000002E0FD0684603F013FD00280CD00098F7
:10EFC0000121076001718560C460068203F0C4FD01
:10EFD0000020F8BD0420F8BD0720F8BD082200205D
:10EFE00070B5174B0446186D142148431549C018D5
:10EFF0000A78950715D5022C02D0032C1CD102E00B
:10F0000002F090F818E04A78521CD2B24A70032AF3
:10F0100012D900224A70082104F0C2F803F0CAFC99
:10F020000AE0500708D5FB2002400A70586D0028FE
:10F0300002D0022002430A7003F04AFD70BD0000B6
:10F04000AC320020082200200EB51120694608725B
:10F050000B2213A102A87CDF002801D0FDF762FC7F
:10F060000920800178DF002801D0FDF75BFC00213A
:10F07000FF20913000916A46019110804300538037
:10F080009180D08068467ADF002801D0FDF74AFCE5
:10F090000720C04377DF002801D0FDF743FC0EBDF9
:10F0A0004E6F726469635F50726F780070B50028AC
:10F0B00001D0012070BD164C0025A07B002801D096
:10F0C000A57301E000F098F820780300FCF7E5FC58
:10F0D000081E05080B0E1E111A1E00F01BF870BD4D
:10F0E00000F07AF870BD00F05FF870BD00F038F8FD
:10F0F00070BD60880649000140394018406802F040
:10F100001BF970BD656002F023F970BD0F2070BD62
:10F110009C32002070B5104900208A1C0D46034621
:10F12000403D0C18A67A002E08D0A3720401641981
:10F13000A689002E02D1A47B012C08D0401C80B2ED
:10F140000428EED30B704B8004484B6070BD1080D8
:10F1500000F042F870BD00009C3200201D1D000030
:10F1600010B50E4C6088010120464038081881898E
:10F1700000290AD0052020700948022181800168F9
:10F1800001220848FFF75CFE10BD416801220548D6
:10F19000FFF756FE0421217010BD00009C320020B4
:10F1A000002200203822002010B5094907480B68CA
:10F1B000898842688900591853880324DB1C04702D
:10F1C0009BB20448FFF7CCFE10BD00009C3200202B
:10F1D000002200203822002010B506494888091D69
:10F1E00003F05AFD002802D0FFF7DEFF10BDFFF745
:10F1F000B7FF10BD9C320020F0B51D481D490778AF
:10F200000246012502268C88403A3B00FCF745FC6B
:10F21000080517171A212C2C16170189491C018182
:10F220000021418081730B01D35C002B08D00023A7
:10F230004418491C89B2A3720429F4D30570F0BDA7
:10F240000123F5E742685288D21CA2188A80067012
:10F25000F0BD45880B682D01AA1855680D605360F4
:10F2600014818E80062100E007210170F0BD0000AE
:10F270009C320020002200207047000010B50400DE
:10F2800007D0054802F0F4FA002801D103490C60C8
:10F2900010BD0E2010BD0000DD1402000C21002066
:10F2A000F0B505460088384C8DB050281DD0522846
:10F2B00002D0542826D103E0A88800F0EDFF21E019
:10F2C000062069460870A88800F0CEFB6946488091
:10F2D000AA888A8000F062F9A179A8880022FEF746
:10F2E00025FA2168684688470CE0287B012809D167
:10F2F000A87A012806D128892449884202D1A88801
:10F3000001F006F86079FEF7F3F9002819D008A893
:10F31000FEF722F9142208A903A8FBF731FF002504
:10F3200003AE0BE0680087196179B888FEF7ECF945
:10F33000002802D0B88800F0AFFF6D1C0398A842E7
:10F34000F0D82079FEF7D4F9002819D008A8FEF7E4
:10F3500003F9142208A903A8FBF712FF002503AE46
:10F360000BE0680087192179B888FEF7CDF90028ED
:10F3700002D0B88800F0CCFF6D1C0398A842F0D8EA
:10F3800003F030FF0DB0F0BD042100200229000081
:10F3900070B586B0044614216846FBF70AFF608802
:10F3A0006946888000F0C4FA6946488026780020C3
:10F3B0000822072105253300FCF76FFB0A06060B20
:10F3C0000D0F1416281A1D256B46197058721A72E3
:10F3D00019E00D2009E00E2007E06A461170507216
:10F3E000157210E00F2000E01020694608700AE056
:10F3F0006846057007E0062168460170A068029023
:10F40000A188684641806846FFF714FA06B070BDCF
:10F4100070B5050030D01B4800F008F900282CD149
:10F420001948FFF72BFF002827D118480021044670
:10F4300041601748256000F051FB00281DD1154898
:10F4400004F014FB050018D1FEF73AF92071FEF71D
:10F4500037F96071FEF734F9A071FEF731F9E07108
:10F46000217918290AD06179182907D0A17918299A
:10F4700004D0182802D002E00E2070BD03252846D3
:10F4800070BD0000C5F5010079F2010004210020E3
:10F490005DF90100F5370200F0B585B000F0DCF849
:10F4A0006846FEF759F800246D460C4F0EE06000E8
:10F4B0004619B08800F0D8FAB84205D108480122B0
:10F4C0008179B088FEF732F9641CA4B20098A0429A
:10F4D000EDD803F087FE05B0F0BD0000FFFF00008F
:10F4E0000421002010B504460A48C17D2046FEF7DD
:10F4F0000BF900280CD0084800210C224A431218AE
:10F50000128AA24201D1C8B210BD491C0829F4D305
:10F51000FF2010BD0C2C0020EC2A002070B50A4DF5
:10F5200000242E46FF3621360C2060434019F17D21
:10F53000008AFEF7E9F8002804D0641C082CF3D3F5
:10F54000FF2070BDE0B270BDEC2A0020F8B5074680
:10F55000104E0125BD403068FDF7B6FA00280DD1E8
:10F560000D4C2069284207D1384601F095FA002851
:10F57000E06804D0284303E0A8432061F8BDA84315
:10F58000E0602069002228432061A1683068FDF70F
:10F590005DFAF8BDF8450200BC2100201CB5074902
:10F5A0000968002908D0064A9168D2680192009142
:10F5B0000022694602F03EF91CBD00001421002023
:10F5C000544502003EB50446408869464880154DC2
:10F5D00020782968002813D001281CD002280ED1D9
:10F5E000207900280BD0608800F0A2F90E498842EB
:10F5F00005D0A9790122FEF799F803F0F3FD3EBD8D
:10F6000000206A46107068468847608800F090F9CC
:10F6100000F042FE3EBD012268460270A288828050
:10F6200088473EBD04210020FFFF000010B5040004
:10F630000BD0074802F01CF9002805D1054900222B
:10F640004A60421E8A800C6010BD0E2010BD000072
:10F65000F91402001421002010B5054C2068002880
:10F6600005D0044802F08EF8A08003F0E7FD10BD3D
:10F6700014210020FFFF0000F1B51D4882B0006892
:10F68000002811D0029800F0EFF900241949032551
:10F690000127264688420DD000236A46082102F041
:10F6A000DBF8002802D005E00820FEBD019886881E
:10F6B0000568841D2B46324621460298A9DF04289E
:10F6C00004D0082804D00B2807D002E0112000E065
:10F6D0000020002FE9D10B20FEBD0027A80701D58F
:10F6E0000125E7E73443F6D0002426460325E1E769
:10F6F00014210020FFFF0000F1B5214882B000680E
:10F70000002808D0029800F0AFF907461D4887424C
:10F7100003D11D48FEBD0820FEBD01252A466D1CF3
:10F720000026ADB26B460821384602F0E3F804002B
:10F7300002D0072C21D021E0019903230B600A1D80
:10F74000891D0298AADF040004D00C2C08D0052CD7
:10F7500008D008E00821384602F07AF904460DE0A6
:10F76000012600E000240821384602F053F9002861
:10F7700000D00324002ED1D100E00C242046FEBD91
:10F7800014210020FFFF0000023000001CB500F033
:10F790006BF900236A46012102F05EF8002801D0CF
:10F7A00000201CBD01201CBDF8B5074E074C084DBC
:10F7B0000746324621883846A7DFA84203D1208871
:10F7C000401C2080F5E7F8BDFFFF0000102100205D
:10F7D000033000008188054A914204D00088002847
:10F7E00001D001207047002070470000FFFF00009B
:10F7F0003EB5044600780D46022815D10322611C4F
:10F800006846FBF7BDFC0322211D02A8FBF7B8FCEC
:10F8100001AA02A92846FCF75BFF032201A968465A
:10F82000FBF7D2FC002801D000203EBD01203EBDE8
:10F8300070B50D4D0C46297B00290FD0002C0FD040
:10F84000FFF750FEFF280DD00C2148434119072235
:10F8500020461231FBF794FC002070BD082070BDDB
:10F860000E2070BD052070BDEC2A0020F0B50546C5
:10F87000008887B0102854D1E97D28462A4E0830E8
:10F88000CA0734460090002A06D04808274940009D
:10F8900040184030C48D32E0287A03282FD020460B
:10F8A00026E0287A002804D0012802D002281ED1A0
:10F8B0000DE0002302AA0721384601F0CDFF002801
:10F8C00015D1039900981131FCF7BCFD0CE0002321
:10F8D00002AA0721384601F0BFFF002807D103998B
:10F8E0000098491CFFF784FF002800D03C463846AA
:10F8F00001F048FF0746B04201D0B442D1D0A888F9
:10F90000009900F03DFFB4420BD0A888214600F0DA
:10F9100087F8A888694648810120087202A8FEF786
:10F9200079FF07B0F0BD0000FFFF0000EC2A0020C7
:10F93000084A00210C234B439B18DB89834204D1E6
:10F940000C2041438818008A7047491C0829F1D3CC
:10F9500001487047EC2A0020FFFF000010B5044664
:10F96000007801280DD1608800F096FC6088FFF7D0
:10F970000DFF002805D00348012281796088FDF73A
:10F98000D5FE10BD0421002010B50446007886B0D5
:10F9900000281AD0012816D10E480122817F6088E4
:10F9A000FDF7C4FE14216846FBF703FC6088694636
:10F9B0004880608800F058F8694688800020087008
:10F9C0006846FEF737FF06B010BDE08802F0D4FEAF
:10F9D000F9E70000D42F00200188002903D1421844
:10F9E0009278002A01D001207047491C0829F6D3DB
:10F9F0000020704710B50C460346FFF7EDFF0028C6
:10FA00000BD018882188884206D10822A11C981C96
:10FA1000FBF7DAFB002801D0002010BD012010BD4B
:10FA200010B502F097FC10BD70B504460C48007B81
:10FA300000280DD02046FFF77BFF0546204601F049
:10FA4000BDFE084904468D4207D0002C02D004E0D8
:10FA5000082070BD284602F07DFC204670BD0000E5
:10FA6000EC2A0020FFFF000010B5FFF73BFD064920
:10FA70000A7B002A06D0FF2804D00C2250434018ED
:10FA8000C08910BD014810BDEC2A0020FFFF000016
:10FA90007CB5114D0646284617E000236A4607212B
:10FAA00001F0DAFE00280FD1019930464631FFF708
:10FAB000A1FF002806D1019930462A31FFF79AFFAD
:10FAC000002801D020467CBD204601F05BFE0446A4
:10FAD000A842E2D128467CBDFFFF000070B50500BA
:10FAE00005D0184C0020217B002902D01FE00E20F9
:10FAF00070BDFF2139311348FBF75BFB0020124E2C
:10FB00002073B0751820F075104900200C22424374
:10FB10001219401C11820828F8D3FDF7D1FDF075A9
:10FB200018280DD00A4801F0A3FE0028E0D1217B5F
:10FB3000032905D289006550217B491C217370BDC2
:10FB4000042070BDEC2A00200C2C0020FFFF0000D8
:10FB500045150200F8B50F46002804D00120FFF734
:10FB600015F90120F8BD397900290AD00026244D65
:10FB700001290BD0234C022920681FD003293AD138
:10FB800024E001F0E5FB0121397132E000200101A0
:10FB9000695C02290BD0401C80B20428F7D30220F4
:10FBA000FFF70EF90120FFF7F1F81748F8BD04013F
:10FBB0006019406801F0C0FB2E551AE00146012291
:10FBC0001248FFF73DF90221A18011E001F0B4FBDA
:10FBD0000B492368403149880A01094951184D6889
:10FBE00025604B60A3880B810221A18004498E54BB
:10FBF0003E710028DAD00120FFF7C8F80E20F8BDCA
:10FC00005C320020002200201D1D00003822002050
:10FC1000F8B51C4C2078002833D02069002807D084
:10FC20000026E068002805D00025002E04D011E051
:10FC30000126F6E70125F8E7684652DF052804D0DB
:10FC4000002804D0FCF76EFE04E0012602E02169E2
:10FC500000988847002D10D1608869460880A06808
:10FC600061DF052804D0002804D0FCF75BFE04E027
:10FC7000012502E0E168A0688847002EDCD0002D55
:10FC8000D3D0F8BD1822002041880548028891424F
:10FC900004D34088814201D801207047002070477A
:10FCA000E420002030B50989002A05D0D088491CFD
:10FCB000814213D1002030BD0246FF32A132947937
:10FCC00046256C4324182489A142F3D0491C19808D
:10FCD0009179462251430818008902E01980D088A2
:10FCE000401E5880012030BD70B504460D46401CB2
:10FCF00000F03AF8002806D01022691C601CFBF7BF
:10FD000063FA00280AD00026294620461131113016
:10FD1000FCF798FB01463046084370BD0126F3E727
:10FD20001048018CC9B2012917D1818C090714D15F
:10FD3000018D09060A0F03D1828D1206120F0ED013
:10FD4000090F012903D1828D1206120F07D0032952
:10FD500003D1808D0006000F01D0002070470120E4
:10FD600070470000C00F00F00021425C002A01D063
:10FD700001207047491C1029F7D3002070478007E5
:10FD800001D0002070470120704730B51588EC1C69
:10FD90009C4201D90C2030BD02244C5513881C25EF
:10FDA0005B1C9BB21380CD5413885B1C9BB21380E9
:10FDB000012807D0022807D0032807D0042807D03D
:10FDC000072030BD002004E0012002E0CC5401E017
:10FDD0000320C8541088401C1080002030BD000053
:10FDE00010B50448017AC90702D00078FEF7CEF8B2
:10FDF00010BD0000A0200020FFB5254D81B01F469A
:10FE00000E0003D00021039A019806E0687D0028C7
:10FE10001BD01F49039A1631019803F02FFD0446A9
:10FE2000014600220198FEF7D3FF002F03D02146A0
:10FE30000198FEF7D5FC0D2C10D009DC002C0DD05C
:10FE4000042C19D0082C08D108E0052005B0F0BD1D
:10FE5000112C05D00F48C44200D003242046F5E7FA
:10FE6000297C32460198FDF761FCE97B039A0198F1
:10FE7000FDF75CFC0024F1E7297C32460198FDF790
:10FE800055FCE97B039A0198FDF750FCE6E700007A
:10FE900070210020FECFFFFFFEB517460C0006467E
:10FEA00004D02078C00704D0012003E000217EDFC9
:10FEB000FEBD0220694608713046FFF7D5FD17499F
:10FEC0000546884208D001A800902B463A462146B4
:10FED000304600F025F806E020782146C00730467D
:10FEE00003D000F081F804460BE07EDF04460020DA
:10FEF0000090002C08D0002201232946304603F050
:10FF00001BF9002C02D006E00122F5E768460179D2
:10FF1000304603F037F92046FEBD0000FFFF000029
:10FF2000FFB585B000252E462B4601AA07210E9F5E
:10FF3000089801F091FC040008D1029D4420405D26
:10FF40001835C607F60F01D0029D343507982043B7
:10FF500012D1002D10D0002E05D128461230FFF707
:10FF60003BFD002808D029462A461231059885DF36
:10FF700004460020387023E0002C01D0052C1FD14E
:10FF800006980078C0070DD003AB0122072108981E
:10FF900001F0B0FC04000AD10721089801F0C4FD6B
:10FFA000040004D1069905987EDF040008D00721DB
:10FFB000089801F02FFD002802D0052800D0032466
:10FFC000002000903878002801D0012300E00023B1
:10FFD000002C07D000220899059803F0ADF82046C0
:10FFE00009B0F0BD0122F6E7FEB50F46064601F066
:10FFF000D7FB05461848854220D001AB01220721D6
:020000040002F8
:10000000284601F077FC04000AD10721284601F0B8
:100010008BFD040004D1394630467EDF040008D051
:100020000721284601F0F6FC002802D0052800D060
:10003000032401200090002C0BD002E003240020B8
:100040000090002201232946304603F075F820462F
:10005000FEBD0122F6E70000FFFF0000F7B5114DDD
:100060000F461646697B0098FDF74EFB002812D01C
:100070000098FFF7F9FC04460B4884420BD0A97B9B
:100080000098FDF741FB002806D033463A4621464A
:10009000009801F0CFF9FEBD324639460098FEF7D0
:1000A00041FBFEBD20210020FFFF0000F1B586B01E
:1000B0000698FDF71DFB002821D06846FDF74CFA95
:1000C00000246E4618E060008519A8880699FDF79F
:1000D0001BFB00280FD00B4FA888F97BFDF714FB02
:1000E0000590397CA888FDF70FFB0146A8880123FD
:1000F000059AFFF781FE641C0098A042E3D807B080
:10010000F0BD000070210020F8B52C49C8680A69CC
:100110000C780F7989688646944600913EE00099F4
:10012000E20055182A7836E0182353436968521CB8
:10013000C918AB78D2B2934200D100220B78022BBF
:1001400002D0032B27D123E04E680346014603E08B
:10015000B14204D00B46C96900291CD0F8E7002938
:1001600019D08B4208D1C069002805D1144F01264F
:10017000BE600026B44601270E68C969D96100290E
:1001800009D00B689B190B6005E00174C06900E0A1
:1001900000210028F9D169789142C5D12146641E19
:1001A000E4B20029BBD1054962460A61C8600F71FB
:1001B000704501D00120F8BD0020F8BDD0210020FD
:1001C00000100140F8B5044631480026C16800918E
:1001D00007784EE02E48F90080680D1843E0002CA7
:1001E00002D02046E4691FE02878182141436A685C
:1001F000401CC0B251182870AA78904200D12E70CD
:100200000A784868012A30D1027C002A2DD18A68F8
:100210004260CA6882600A69C260496981611C499A
:100220000979002900D04660194943680A699C464B
:10023000991A0902174B090A994202D28268891851
:1002400007E06146511A09028268090A8A4202D906
:10025000511A016000E00660466001218660017469
:10026000C66103F0D7FC002CB9D1287869788842A0
:10027000BAD138467F1EFFB20028ABD10448C1680E
:100280000098814201D00120F8BD0020F8BD000097
:10029000D0210020FFFF7F00FEB50446194800274B
:1002A00084422DD02046FFF7E7F9174E050012D003
:1002B0000B2D14D0112D10D01448C5421BD009218C
:1002C000684601702046FFF7CFFB01466846418033
:1002D000848002950DE0022102E001270BE003215A
:1002E000684601702046FFF7BFFB01466846418023
:1002F00084803168884771793A462046FDF716FABE
:10030000FEBD0000FFFF000004210020FECFFFFF24
:10031000FEB504460027FFF7EFF9194D06460C28F5
:100320001AD004DC002E13D0042E05D126E0112EA5
:1003300010D01448C6421BD00921684601702046DF
:10034000FFF792FB014668464180848002960DE0EB
:10035000012102E001270BE007216846017084803B
:100360002046FFF781FB014668464180296888479F
:1003700029793A462046FDF7D9F9FEBD0821ECE778
:1003800004210020FECFFFFFF8B5054600780C469B
:10039000002620420FD10020694608706846FCF70D
:1003A00029FC2878204202D1204328700126684683
:1003B0000078FCF73DFC3046F8BD000030B50E4C2F
:1003C00087B02078002802D0002007B030BD0B4A4B
:1003D00004AB07CA07C308480125401C0090084821
:1003E00002906802039001950323064A694604A817
:1003F000FCF794FB2570E8E70A220020144602006F
:1004000004330020AD3D02000FB410B503A90298DB
:10041000FBF722FB10BC08BC04B0184798B0FFF7EC
:10042000CDFF002801D0FCF77DFA0023714A072197
:100430001846FCF7C3FA002801D0FCF773FA6E4A9D
:1004400001216E48FCF7A4FA002801D0FCF76AFAF3
:100450006B4A6C490320FDF749FD002801D0FCF7E9
:1004600061FA02A90020FDF7F9FB002801D0FCF792
:1004700059FA6846007A022873D00020694608714C
:10048000FDF790FB6049002000F00EFA002801D033
:10049000FCF748FA5D481C2201689143183101605D
:1004A00000F0F2F959480121001F00F0BBF90028C3
:1004B00001D0FCF737FA6846007901F089FFFEF7B2
:1004C000C3FD382101A8FAF774FE022668460671BA
:1004D000012585710521C171042181824B482421A8
:1004E000083006900FA8FAF764FE10A805722820BD
:1004F00000241390B42000941490454B0FAA214679
:1005000001A8FCF743FD002801D0FCF70BFA414895
:10051000FDF746F9002801D0FCF704FA02F04CFF81
:100520001C216846FAF745FE0520C00301900F2004
:10053000000402900094032168460173C48105748D
:100540003548069005946846FCF794FF002801D0D2
:10055000FCF7E8F93148FEF7B1FB002807D102E0CB
:10056000FFE701208AE7FEF767FA002801D0FCF7D1
:10057000D9F9684604820394294C671006E068465E
:10058000FEF71CFB27A00099FFF73EFF03AB6A466E
:1005900021463846FEF734FB0028F0D0FEF728FA53
:1005A000002801D0FCF7BEF9144803A908300690D2
:1005B000684686838781C48106A804906846858240
:1005C000FEF76CFB002802D0FCF7ACF903E01CA09E
:1005D0000099FFF719FF0D48083841780029FCD031
:1005E000FEF770FAFCF76BF848DF0028FCD0FCF748
:1005F00099F9F9E7682200201DCF010000450200AB
:1006000009DE0100CD0C000081C30100882000201C
:100610003F0E020095E4010025E40100C50602003A
:100620002222000044656C65746564207265636F06
:1006300072642049443A202564200D0A000000001D
:1006400057726974696E67205265636F72642049DE
:1006500044203D202564200D0A00000070B514469A
:1006600082880E4605462088111D4118921C994229
:1006700001D8FE2A01D90C2070BD521C32542088AA
:10068000FF21401C80B2208031542088401C80B261
:1006900020808119288803F07FFC2188401880B2CF
:1006A0002080AA88002A09D0A968002908D08019CA
:1006B000FAF766FD2088A98840182080002070BDC8
:1006C000072070BD0178002907D0012905D14068B5
:1006D000002802D101490120487070478020002085
:1006E000F8B50F46017814460546012902D168780D
:1006F000002806D02088821C9A422DD8012902D0D9
:1007000006E00720F8BD69784118891C994223D872
:10071000181A801E86B2684606802188B81C081800
:1007200069467DDF0028EDD12878022805D1694689
:100730000988B14201D809210AE00821012805D120
:100740006878B04202D86A46108001E068460680A8
:1007500068460088FE2801D90C20F8BD2288401C7C
:10076000B8542088401C80B22080395420886946C3
:10077000401C20800988401820800020F8BD00001F
:10078000F8B5FF240F46054600291ED0104EB5428D
:100790001BD010480122C17D2846FCF7C7FF284620
:1007A000FEF7A0FE0446FF2804D1FEF7B7FE04467C
:1007B000FF280AD00C200849604340180582C681F2
:1007C000072239461230FAF7DBFC2046F8BD00005C
:1007D000FFFF00000C2C0020EC2A002070B50B4D10
:1007E0000E46A84201D1002000E0401C84B209E07E
:1007F0002146304601F086FF002801D0204670BD1A
:10080000641CA4B2FF2CF3D9284670BDFFFF000082
:10081000034940180068002800D0012070470000FC
:100820000070004070B5144CA27C022A16D002223F
:10083000A2746268A260217400216174E0600F48B4
:10084000126842600E4A8615116001250560206815
:10085000002805D00B49012048600BE0112070BD35
:100860003046FFF7D5FF0028FAD0FBF7BBFD002884
:10087000F6D0A574002070BD143000200075004033
:1008800000710040007300400021064A4160516839
:10089000002902D15060704711464A68002AFBD1F6
:1008A000486070471430002070B50C4D0C46A97C90
:1008B000002901D0082070BD094A00211160002CD8
:1008C00006D0002800D107480178072000F012F870
:1008D00001202C60A874002070BD0000143000209E
:1008E00000710040D44502000149012008607047B2
:1008F000007000408207D30EFF229A408907090E3C
:1009000010B5994000280BDA03071B0F083B9C0821
:100910000C4BA400E318DC6994430C43DC6107E052
:100920008408094BA400E418236893430B43236015
:10093000C106C90E012088400449086004490860C6
:1009400010BD000000ED00E000E400E080E200E007
:1009500000E100E0F3B581B00F46019801F074FDAD
:10096000012400281E4E019817D0FDF761FC801964
:100970002030007F8009032802D0012806D007E03C
:100980001848006901998C40204201D1022100E001
:100990000321019800F02CFAFEBD01F061FD002852
:1009A000FAD00198FDF744FC05468100C81D0E4AA7
:1009B000F93089180A6980B222430A610B4940184C
:1009C00000210160002FE7D00198FDF731FC800085
:1009D00030580028E0D00648AC404460FEBD00001E
:1009E00028300020000500500065004000600040F5
:1009F00000630040FEB5044623480E46001920213E
:100A000041560027C8171346401C01D0082738E07C
:100A1000F27819462046FDF7E7FB0546401C2FD02B
:100A2000B078002807D01948A100091808680222E8
:100A30009043086007E000217378204600910A4641
:100A4000019100F09DF9F078002810D01048AA001C
:100A50001018317802690F4B1A400261E206D20C7D
:100A60008907890B0A4301690A43026109E00648C4
:100A7000327840192030017F92011143017700E064
:100A800004273846FEBD0000283000200007005033
:100A900000650040FFE0FCFF03490969C140C80749
:100AA000C00F00D0012070470005005070B5124DF6
:100AB0002879002801D0082070BD0F490020403956
:100AC000421E0B182033401CC0B21A702028F8D3E5
