:020000021000EC
:10B0000000800020CD8702000D8802000F8802001A
:10B010000000000000000000000000000000000030
:10B020000000000000000000000000001188020085
:10B0300000000000000000001388020015880200D4
:10B040001788020017880200F5EC0100178802003B
:10B0500017880200000000000DE701004DE3010029
:10B06000178802001788020017880200178802005C
:10B07000178802001788020017880200178802004C
:10B080001788020035B501001788020017880200F2
:10B0900011B60100178802003D87020017880200E0
:10B0A000178802001788020000000000000000005E
:10B0B0000000000000000000000000000000000090
:10B0C00010B5064C2378002B07D1054B002B02D07E
:10B0D000044800E000BF0123237010BD942100202C
:10B0E0000000000034A1020008B5084B002B03D07B
:10B0F0000748084900E000BF07480368002B00D15B
:10B1000008BD064B002BFBD09847F9E70000000074
:10B1100034A10200982100208021002000000000BE
:10B12000164B002B00D1144B9D46402292029A1AD6
:10B13000924600218B460F461348144A121A00F01B
:10B1400067F80F4B002B00D098470E4B002B00D018
:10B1500098470020002104000D000D48002802D06F
:10B160000C4800E000BF00F02DF82000290004F09A
:10B17000B7FE00F011F8C046000008000080002073
:10B180000000000000000000942100207035002025
:10B190000000000000000000084B10B5041C002B4C
:10B1A00002D0002100E000BF054B1868836A002B25
:10B1B00000D09847201C00F033F8C0460000000083
:10B1C000CC9902000E4B70B500251E1C0D4CE41AE4
:10B1D000A410A54204D0AB00F35898470135F8E716
:10B1E0000EF0E6FB084B00251E1C084CE41AA410C8
:10B1F000A54204D0AB00F35898470135F8E770BD7D
:10B200007821002078210020782100207C21002056
:10B21000031C8218934202D019700133FAE7704779
:10B22000FEE7C046F8B54D465F4656464446F0B484
:10B23000224B1978994600292AD0214B002598469F
:10B24000204B214F01269A4603E00135EDB28D4295
:10B250001ED243461B68321C9C46EC006444207896
:10B260003B6882401342F0D093433B6003F044FAC2
:10B27000331C22785146934009680B40011C9140D1
:10B280008B420BD04B4601351978EDB28D42E0D39D
:10B290003CBC90469946A246AB46F8BD61686378CF
:10B2A0008B460029EED0591E4C424C41211A4B428C
:10B2B0004B41101CD9B2D847E4E7C046B821002062
:10B2C000B4210020DC210020E0210020F8B5124D3F
:10B2D000071C281C00F0C8FC002807D10124BC4032
:10B2E0000E4E3368234202D0A3433360F8BD381CAE
:10B2F00003F002FA0A4A136800280BD023431360B4
:10B300003368281C1C43074B00221968346000F086
:10B310002FFCEBE7A343F2E7BC210020E021002053
:10B32000DC210020B0210020F0B54F464646C0B4D5
:10B33000141C071C83B00E1C0720042A04D803B079
:10B340000CBC90469946F0BD03F0CAF800282FD0F7
:10B350001A4B1B4A1F601B4B751E1E701A4BEDB219
:10B360001C6000231360194A1360002E1AD0184B7A
:10B3700001AC994603230026984600E01D1C424676
:10B38000EB00FB182270A670E6709A78187862704D
:10B39000211C4A4603F0AEF80028D0D16B1EDBB268
:10B3A000002DEBD100210B4A0B4800F0C7FBC6E78C
:10B3B00003F062F80028CBD0C1E7C046B4210020DA
:10B3C000DC210020B8210020B0210020E021002055
:10B3D000CDB2010025B20100D099020070B5094D2F
:10B3E0002B78002B0BD00024074E3268E300985CCA
:10B3F000012103F02DF92B780134A342F5D8002068
:10B4000070BDC046B8210020B4210020002300B543
:10B4100085B001AA9060002103481380536000F0BA
:10B4200005F805B000BDC04601400000BFF34F8FD6
:10B43000034A044BDA60BFF34F8FC046FDE7C046B6
:10B440000400FA0500ED00E010B500290DD0092335
:10B45000002A01D1181C10BD541E2240FAD182606E
:10B4600001608480C2600023F4E70E23F2E7C04647
:10B47000031C10B59C888068DA68121A0420944274
:10B4800000D210BDDA68002014401A681155DA683D
:10B490000132DA60F5E7C04610B58468C268031C63
:10B4A0000520944209D098689A8802401868825C06
:10B4B00000200A709A6801329A6010BD80218023B2
:10B4C000184A8902D1508022D221174B520289009A
:10B4D0005A5040395A5001222F205A600138C04634
:10B4E000C046C046C046C046C046C046C046C0462C
:10B4F000C046C046C046F1D19A6000230B4A2F20B7
:10B5000013600138C046C046C046C046C046C0466B
:10B51000C046C046C046C046C046C046F1D1044AF7
:10B520001370704700E100E000100140E4210020AA
:10B5300004220020A021F0B5002347462B4A4900F1
:10B5400080B453500431535004315350043153509C
:10B550004C39535004315350254B1B68002B35D0C8
:10B560002449002652582449244F0C68141B0022F9
:10B570002402240A904602E0002D18D02B1C1A68E1
:10B58000A24214D8A41AB6181A7CDD69002AF3D096
:10B59000424699691A745A693B68002B19D0101CED
:10B5A00098470028E8D0FFF731FF002DE6D1144B73
:10B5B00014491A780B789A420ED0134A9B009E5079
:10B5C00080218023114A49035B00D15004BC90467E
:10B5D000F0BD081C9047CFE70132D3B2022B01D057
:10B5E0000B70EAE700230B70E7E7C046001001404C
:10B5F000E821002004050000E4210020EC210020C7
:10B60000F8210020F9210020FC21002000E100E0C9
:10B61000F0B55F4656464D464446F0B4B54BB64A83
:10B620001B68B64989B0019309781378994200D113
:10B63000B3E10133DBB2022B00D100231370B04A17
:10B640009B009B58AB4A9946019B4B441B021B0A2B
:10B65000136001230493AB4B00241B689B46AA4B49
:10B66000D8461B781A1C0293A84B944607931B6874
:10B670000393A04B1B680693A54B1B7805935B4671
:10B680006646013EF2B29446FF2A4FD06246D00091
:10B69000039A9246504401784578A942F0D04A0076
:10B6A0005218877801314668C9B27F1AB2467E1EA9
:10B6B000B741D2007F42524439401778022F0AD056
:10B6C000032FEAD1002BE8D01C74DB69002BFBD1DF
:10B6D00045789846E1E75668002B25D09E421AD05F
:10B6E0001F1C00E0171CFA69002AD6D09642F9D137
:10B6F000321C3D1CBE4200D1EBE01768D269EA6102
:10B70000002A06D013689A46574417604578434686
:10B71000C3E74578C1E7DE691A1C002E00D1DDE0E1
:10B72000B046331C151CE8E70023B6E74146754ACE
:10B73000181C11606F4A0699039311606946744A98
:10B74000097D1170049A002A00D02AE15B461B1A79
:10B750005A1E93410025DBB20493079B00271B6808
:10B76000039E0693634B1B689C46664B1B689A4678
:10B77000674B1B780593674B019301239846029B07
:10B78000013BDBB20293FF2B00D18FE0069ADB0076
:10B7900093469B44002D27D06968AB68281CED694F
:10B7A0006246019C8A1A1202120AA24250D8D31889
:10B7B00042460360476087600274C761002E56D01E
:10B7C0003168341C994204D35FE01168994263D216
:10B7D000141CE2695B1A002AF7D10360331CC261B2
:10B7E000E0611E1C002DD7D15B465A461B7852786B
:10B7F0009A42C4D0594649685A0089465946D218D7
:10B800000133DBB20B708978D2004A4499424AD0A6
:10B8100011785068331C0129E3D1037C99464946CD
:10B82000331C0029DDD191684160D36883601469BD
:10B83000C46052698261059A002AB1D04A4600214B
:10B8400042606246019C8A1A1202120AA242AED9D2
:10B850006246511A0902090A99420CD242465B1A01
:10B860000360476087600274C761002EA8D1031C83
:10B8700082461E1CB6E74346076047608760037434
:10B88000C761002EF3D000233168CB1A3360031C4C
:10B89000C66182461E1CA5E7C91A11600360C26119
:10B8A000331CE0619DE75B461D70B1E75246154BC6
:10B8B0001A60039BB34231D1049B002B2ED100238D
:10B8C000134A137009B03CBC90469946A246AB4659
:10B8D000F0BDDE693A1C002E00D021E701250E4B99
:10B8E00001369D600023059600269846151C069695
:10B8F00003E7C046E4210020F8210020F9210020C0
:10B90000FC210020E8210020F0210020F42100206B
:10B91000FA210020FEFF7F0000100140002E62D0BF
:10B92000474B48493568CC58474B484E1B683078E0
:10B93000E21A1202120A0332904600285ED04246F2
:10B94000AA4200D22A1CA820D21812023D49130A8A
:10B95000C0003B4D0B504A591B1B121B1202120A0E
:10B960001B0203321B0A9A42A9D94B590B502F20B4
:10B970000138C046C046C046C046C046C046C04664
:10B98000C046C046C046C046C046F1D18021802393
:10B990002F4A89025B00D15091E700239946049316
:10B9A00059E647460025002100244846002B13D0C5
:10B9B0001A6882421AD8DE68801A89181C60DF690A
:10B9C000002E07D0DD611D1C019A9E608A181202AC
:10B9D000120A5A603B1EEBD11E4B1F6000230393DB
:10B9E00001330493B9E6FFF769FD68E7121A1A609C
:10B9F00003930123174904930F60AEE68020D127FB
:10BA00004002BF00C851403FC851C02280271048A3
:10BA1000BF0252008750076001272F200F600138B6
:10BA2000C046C046C046C046C046C046C046C046E6
:10BA3000C046C046C046C046F1D137707FE7C04619
:10BA40000405000000100140E42100200422002031
:10BA500000E100E0E8210020F8B54F464646C0B4BA
:10BA60000326351C80460F1C141C994615400720E0
:10BA7000002D03D00CBC90469946F8BD002A44D056
:10BA8000FFF71CFD4A46224B80201A60221C214BE6
:10BA900018321E70204B62601C607B00DB19DB00DB
:10BAA000D218E260D318C022636125706570A77058
:10BAB00025726572A77225746574A774C524FF2169
:10BAC000164B40031D60164B52001D70154BA40011
:10BAD0001D70154B98501A598A433F390A431A5121
:10BAE000A122186040461149D2008850C42080002D
:10BAF0001C580F4A2240C024240222431A500D4BE6
:10BB00000020CA580C4B1A60B4E7034B1A60B1E727
:10BB1000EC210020F0210020F4210020E821002069
:10BB2000F8210020F921002000E100E00010014090
:10BB3000FF00FFFF04050000E421002010B50B4BBF
:10BB40001B68002B0BD0002A07D0002805D0036803
:10BB500008201C7C002C04D010BD0720FCE7082026
:10BB6000FAE759745A610020F6E7C046F421002034
:10BB7000F0B5474680B4374B1C68002C08D000282D
:10BB800006D00723042905D8181C04BC9046F0BD34
:10BB90000823F9E74369002BFAD00025437CA84627
:10BBA000012B2FD0EFF30583DB05DB0D1025002BD8
:10BBB0002CD164196378A5785E1CF6B2AD1B6F1E9C
:10BBC000BD416D422E402578B5421DD05D00EB1879
:10BBD0006568DB00ED180423002DD5D0033B2B70E6
:10BBE00068601D4B1D48C358E960AB604346802127
:10BBF0002B6180236A611A4A5B0049036670D15049
:10BC00000023C1E78846CDE70423BDE7103BDEB241
:10BC100075B2002D13DBAD08114EC035AD00AD5926
:10BC200003263340DB00DD402B069B0FDBB20025F3
:10BC3000012BBED00835032BBBD00835B9E70F2345
:10BC4000084D3340AC46083B9B089B0063445D684D
:10BC50000323E6E7F4210020040500000010014062
:10BC600000E100E018ED00E030B52E4A031C126838
:10BC70000820002A2ED0002B2CD05969002929D069
:10BC800000211974EFF30581C905C90D102500299C
:10BC900023D155196A78A978541CE4B2091B481EAF
:10BCA000814149420C402978A14214D051008A18A0
:10BCB0006968D2008C4662440420002A0AD002211E
:10BCC00053601170802380210020174A49035B00D4
:10BCD0006C70D15030BD0420FCE71039CCB260B29A
:10BCE000002813DB8008104CC0308000005903246A
:10BCF0002140C900C8400106890FC9B200250129A9
:10BD0000C7D008350329C4D00835C2E70F2107483A
:10BD10002140844608398908890061444868032124
:10BD2000E6E7C046F421002000E100E018ED00E065
:10BD3000F0B5EFF3108172B60A4B5A68002A0DD1A4
:10BD400001248025084E5C607459084F3C401C60FB
:10BD500077510270002900D162B6F0BD0123037053
:10BD6000F8E7C0466435002000E100E0FC06FFBCB7
:10BD700010B5084B5A68002A0BD0002809D1EFF300
:10BD8000108272B604491C680C605860002A00D109
:10BD900062B610BD6435002000E100E0033083B2DC
:10BDA00030B50920FD2B00D930BD114A107800288C
:10BDB00006D1548910892018181880B2FF280DD98F
:10BDC000147C0720002CEFD1558B148B2C191C19D7
:10BDD000A4B2FF2CE8D80124063801E0002400209A
:10BDE0000C8001015218518900205B185381DBE758
:10BDF00058220020F0B5474680B443688846002B9F
:10BE000003D0334A11688B4236D200234246138056
:10BE100001339C462F49304E80234F68DB00FD18CC
:10BE200000230CE01A68013211D09A881C88B242B3
:10BE300007D0002C05D09A680468A24211D0002BCC
:10BE400017D05A88033292009B18AB42EAD343467C
:10BE500062461A8063461031022B36D002239C467C
:10BE6000DAE743601D4B1B890381012004BC904627
:10BE7000F0BD3B1C0833E8E752689342C5D89A07E7
:10BE8000C3D1164A018912899142BED102689968CC
:10BE90008A42BAD10F494A68934207D98020C0002C
:10BEA00084466244934201D200230AE04A6900209A
:10BEB0009342DBD98021C9008C4662449342D5D29B
:10BEC0000123424601201380D0E70020CEE7C04680
:10BED0008421002058220020FFFF0000782200204B
:10BEE000F0B54D46444656465F46F0B4CC4C89B05A
:10BEF000256F8146EE00731B9B00E218E35C9046C1
:10BF0000062B00D97FE0C7499A008A589746002837
:10BF100000D0EDE0C44F3B7B002B00D1BAE23B7870
:10BF20003873072B6ED8C14A9B00D3589F46002810
:10BF300000D0DEE0721B9200A1188B46097901291E
:10BF400000D1EBE2002900D1D2E202295BD100222C
:10BF500003AF7A6062E0721B9200A218101CB44F0B
:10BF60000830BB46418909018B444946002900D06D
:10BF7000DEE05A461189526889009146027A894466
:10BF8000062A00D9FEE2AB4992008A58974600285B
:10BF900000D0C3E043461F79012F00D1DDE2002F1E
:10BFA00000D1CFE2022F00D1D6E0032F00D0E7E28C
:10BFB000A14FA24A39680223A14801F0EDFB3B687A
:10BFC0009B4A9C46984B92465B881B01D21851684D
:10BFD000396061465160B988118102225146BA80A8
:10BFE0004A465A5443461A71002844D0731B9B009A
:10BFF000E35C0120934903AF0A7882430A700E2262
:10C00000924603E006230F22924603AF52467A601F
:10C0100042461278023A012A00D875E0062B05D86C
:10C02000894A9B00D3589F4605233B700025874EC5
:10C030007359002B01D0381C984704350C2DF7D1CB
:10C04000236F0021D800C01A800020181C22FFF79F
:10C05000DFF8636F002B09D00321226F013B01320F
:10C060000A4022676367002B00D071E00421754A03
:10C0700013788B43137009B03CBC90469946A24696
:10C08000AB46F0BD00233B70D0E70423751BAD0029
:10C090003B706519EB88BB810023FB81C6E7032356
:10C0A000751BAD003B706519EB88BB812B89FB814B
:10C0B000EB68BB60BAE70223751BAD0065193B70E6
:10C0C0002B89BB81AB88FB81EB68BB602B7C063B7B
:10C0D000594259413974A9E70123751BAD003B70E2
:10C0E00065192B89BB81AB88FB81EB68BB609DE741
:10C0F000062301229246524603AF7A6042461278E6
:10C10000023A012A00D989E74246917D504A106CD3
:10C1100008181064506C411A51647FE70121494AA4
:10C1200003AF13788B4313700122012392466DE70E
:10C130005946D0880989C21C51185A46118159465E
:10C14000528903AF121A033A4A81012292465DE7EF
:10C150000020FFF7C5FE8EE7374B01229A4619688B
:10C16000374801F061FB53464A469F8043461A71A7
:10C170003AE77B882E4A1B01D3189A89002A00D1FE
:10C1800086E2052302223B702B4B2D489A801968CA
:10C19000013A01F049FB82465346002B00D16AE781
:10C1A0001C236B4303AFE35C30E7234B7A68998829
:10C1B0001B6889000320C9185388387003339BB269
:10C1C0001F4801F0E9FA8246E6E7731B9F00E31976
:10C1D0009A461A1D1A480123494601F0DDFA022346
:10C1E00052461374002800D145E70E2292463B5D6B
:10C1F0005946721B9200A218D0880989C21C511896
:10C200005A46118159465289121A033A4A81114AF3
:10C21000924500D19BE6F8E60E4A9246E8E7C04612
:10C2200088220020D499020078220020F099020090
:10C2300058220020109A020008230020C49A02000D
:10C24000842100201C2300202C9A0200202300209F
:10C25000082200201D1D0000082249469146731B3C
:10C260009F00E31999444A4604310123C84801F06C
:10C2700093FAE35D033B594259410622531A4A4659
:10C2800013720028B1D1F6E6C24BC1485968C24AC0
:10C29000012301F081FA002800D0F0E10623751B8C
:10C2A000AD0064192374E6E60023BA4803AF436087
:10C2B000731B9B009A46E3189B69391C0360FFF7C8
:10C2C00099FD002800D080E753460A221B5D924664
:10C2D0009CE6B248436C002B00D156E10727026C64
:10C2E000013B4364731B511C9B003940E71810232A
:10C2F0009A46BA44534601649988D3008900494458
:10C30000814699441A584B46A1489B8801F044FA4B
:10C310004B469A8853469B88D3185246938093790C
:10C32000013BDBB29371002B01D101333B74002838
:10C3300000D1A0E6731B9B000E22E35C924657E7F8
:10C340004946731B9F00E2190C32012308319048C3
:10C3500001F022FAE3199B7D0322002B00D1023A5F
:10C36000731B9B00E1180A740028E5D183E68C4A10
:10C370007B8893461B0106225B443A7059688448C7
:10C38000884A022301F008FA824605E7796878882E
:10C39000002900D1A1E14A8803329300CA18804BDA
:10C3A0009B46030199465B464B445B689C46802054
:10C3B000C000604482425ED2136801335BD07A4988
:10C3C00013889A4693888B424CD05346002B49D011
:10C3D000764B7A6099881B688900EBE607233B70EF
:10C3E00000237B60714B6A481968714A022301F08F
:10C3F000D3F98246D0E63B89694A01333B81002369
:10C4000011787B803B734B424B41BB72127C534291
:10C410005341FB7201233B70BB7A002B0BD00023EE
:10C42000BB725F4B9B469B89002B04D15B469B7B79
:10C43000002B00D0A3E1FB7A002B0BD00023FB7272
:10C44000574B9B469B8B002B04D15B469B7F002B5D
:10C4500000D05DE100233B707B807B60731B9B0001
:10C46000E35C74E5538803339B00D218904202D9F1
:10C4700013680133A4D15B464B449B89002B00D049
:10C480007FE661464248012201F0CEF9042382464C
:10C490003B7081E63B78072B00D9B3E545499A000C
:10C4A00089588F4601233B70B6E7404A3C491368E0
:10C4B0008B469C467B881B01C91848681060604603
:10C4C0004860908808810221918054E7374A7B6850
:10C4D00059889388CB1803339380022378883B7064
:10C4E000796858E7072B00D98CE5334B9B589F465A
:10C4F0005B46DB6803AF039302AB04900590991C85
:10C50000381CFFF777FC0A239A46002800D0C8E0C1
:10C510000222731B9B00E3181A713DE6274B1B7820
:10C520009B074FD402239A46254F381C002108222E
:10C53000FEF76EFE53460A2B00D02DE6731B9B00C0
:10C54000E35C04E5194B1A4A19681148022301F00B
:10C5500023F901234246137146E5114B9B461B7894
:10C56000022B00D1C4E05B461B7C022B00D1CDE046
:10C570000223124A11780B43BB4313700123E6E4F4
:10C58000012336E50F22924632E61B68FFDEC046E5
:10C590008421002010230020B89A020008220020E5
:10C5A00058220020C49A0200FFFF00000823002048
:10C5B000BC9A0200489A0200689A02001C230020DC
:10C5C000002300206F4FBB880093012B15D86E4BC2
:10C5D000AC469B46B246111C6C485A46009B1B0158
:10C5E000D25C002A0CD00122009B009201339BB246
:10C5F000BB80022BF1D1654656460A239A4694E742
:10C600005B445B68802299463E68D2004A440193AD
:10C610000D1CB14605E039606619F68889469E42D0
:10C6200016D04B46002B55D0598803318900494418
:10C63000914220D20B6801331DD08B880E88834233
:10C6400001D0002EE7D14B8803339B00C918EFE7D8
:10C6500001234F484F4A654601F09EF80023564695
:10C660009A46002801D00E239A460122BB881B015E
:10C670005B449A735EE70023291C3B60B3E7062105
:10C68000731B9B00E21811740E22E35C9246AFE527
:10C6900059683F48013201F0C7F8042382463B70D5
:10C6A0007AE55A4679683A488B88D3800B8813819B
:10C6B0000123384A01F070F800239A46002801D07F
:10C6C0000E339A4602AB5B882F4A1B01D318012216
:10C6D0009A731DE701990831AAE72B4B9B4603018A
:10C6E00099465B464B445B681A1C9C4608325EE6E2
:10C6F00000231F015B46DB195968274A022324489F
:10C7000001F04AF800235A46D3556DE40123F0E7BF
:10C710000122131C79687A8000292AD04A881B01DB
:10C72000033292008A185B445B6880209946C000FF
:10C73000484482421AD21368013317D01349138830
:10C740009C4693888B4208D06346002B05D0134843
:10C750007A6081888B0001682CE5538803339B0045
:10C76000D218904202D913680133E8D108484946EB
:10C7700089E65A461B01D21852680832D3E70022D4
:10C78000131CC7E70023002058220020FFFF0000F1
:10C7900084210020B89A0200C49A020008230020D5
:10C7A00008B5081CFFF79CFB08BDC04610B506493C
:10C7B0000C220B78032B05D0044A9C00A0500022C9
:10C7C00001330B70101C10BD5422002020230020C8
:10C7D000F0B556465F464D4644460023F0B49F4EA2
:10C7E0008DB00793089309930A930B9333789A07B4
:10C7F00011D500249A4D2B59002B01D007A898473A
:10C8000004340C2CF7D100200DB03CBC9046994666
:10C81000A246AB46F0BDDA07F5D4012213433370CC
:10C8200000F068FF8F4B1F689B468F4B1C680823E6
:10C8300098468023DB00E018C0231B019C46A444DB
:10C8400063460293002301930393884BA0449A46C6
:10C85000C146BC462268231C111E854A914204D160
:10C8600021E00433984200D1D9E01A680132F8D0AF
:10C870008023DB009846029B4444C14440449C42D0
:10C88000E8D15B4667461F606B461B790B20002B87
:10C89000BAD0062B00D182E00B2B00D992E0754A6A
:10C8A0009B00D3589F466368734A934204D0734AEF
:10C8B000934248D0231CD8E7039B71491B011A1CE3
:10C8C0000493002390468B540B1C43441F1C5C6054
:10C8D0000223002249463B8100920A68022301326A
:10C8E00021D0684A90466246A446141C0FE08A682C
:10C8F000944200D2141C4A88033295009B189BB2C4
:10C9000049193B8181420BD20A68013208D08A88DA
:10C910000D88424501D0002DE9D101220092EAE7BD
:10C92000231C64469C46564A049B90466A461278ED
:10C9300043449A730222019B13430193039B0133E7
:10C940009BB2039394E75346022249461C609A80A7
:10C950000A680223013260D06546A446494F8A889E
:10C960000C88BA4205D0002C03D08A68954200D2C8
:10C97000151C4A88033294009A1893B2524609193A
:10C980009380814202D20A680132E8D16446AC4603
:10C99000022B42D00823019A1A43019268E702232E
:10C9A00032780024134301222D4D934333702B59C9
:10C9B000002B01D007A8984704340C2CF7D122E7AC
:10C9C000022305933048436F032B12D82F4A526C31
:10C9D000082A0ED80321026F9A180A40D1008A1A39
:10C9E00001219200821811706946097D013311718D
:10C9F000436733785A0700D505E704220020134324
:10CA00003370FFF76DFAFEE600230593DAE70323A0
:10CA10000593D7E701230593D4E70423BBE7134B22
:10CA20001B680093002B13D00225039A14491301AD
:10CA300088465D540221434419815C601449531CAB
:10CA40009BB24A8003930122019B134301930FE79A
:10CA50000222064B1C609A80F5E7C0461C2300208A
:10CA600020230020502200208421002008230020C1
:10CA7000DEC0ADDE889A0200FE011EF1FF011EF14C
:10CA800058220020FFFF00008822002008220020FA
:10CA90007822002030B5052383B000280AD0002971
:10CAA00008D06B460D1C991D041CFFF7A3F90A233F
:10CAB000002802D1181C03B030BD6B46DB88074A42
:10CAC0001B01D3189A89616801329A8129606368D1
:10CAD0000C336B600123A3720023EBE75822002084
:10CAE00010B5052382B0002818D06B46991D041C90
:10CAF000FFF780F90A23002810D06B46DA88094B2B
:10CB000012019A18918906230832002906D0A07ACA
:10CB1000002803D0002301399180A372181C02B0B1
:10CB200010BDC0465822002070B5194B1A78022358
:10CB3000920701D4181C70BD03330028FAD0CA1C18
:10CB400092B20433FD2AF5D8124C2378002B10D171
:10CB500066892389F318D3189BB2FF2B09D80025C7
:10CB600000231B01E418B218628100230580418074
:10CB7000E0E7257C0723002DDCD1668B258B75191A
:10CB80005519ADB2FF2DD5D80125063BE9E7C046C2
:10CB90001C2300205822002030B50F4B1A780223A6
:10CBA000920701D4181C30BD002813D0028802332C
:10CBB000022AF7D8094912018A1851894488083293
:10CBC0000D1B032DEED400230339091B5180038074
:10CBD0004380E7E70523E5E71C23002058220020D7
:10CBE000F0B55F4656464D464446F0B4824A89B099
:10CBF000137802279C0707D4381C09B03CBC904628
:10CC00009946A246AB46F0BD002945D00D887B4C25
:10CC10000237A542F0D04C88002CEDD04C680F892B
:10CC2000A046002F00D1DFE02468A40736D1454696
:10CC3000032608350024B446994604E063462E686E
:10CC400008351E422AD10134A742F7D84446FF00D6
:10CC500004373D1C261D4B460024454437880836C2
:10CC6000E419A4B2AE42F9D1E51CADB20927FD2DFD
:10CC7000C2D8634EA9463778002F08D17589378905
:10CC8000AC4667444F44BFB2FF2F00D8AFE0377CBB
:10CC9000002F05D00727AFE70527ADE70327ABE750
:10CCA000778BBC46378B67444F44BFB2B846454686
:10CCB0000727FF2DA0D801252F1C03954D4665445D
:10CCC000ADB200953D016F463F88029575196F81A1
:10CCD0006F460D893D71A8463D790495494DAC4696
:10CCE00067462D6801353D6001950D88464F0595D5
:10CCF0004D88BB4649687F6F06950791B946032F5B
:10CD00004CD842494546496C8A460821491B8A4508
:10CD100044D85F4603263F6F69464F443740FD00C5
:10CD2000ED1B0227AD005D442F70EC800F8B8C8AC9
:10CD300001992C81E96069468989002469826946E4
:10CD4000097C6C812C744C46A97559460134AF801E
:10CD5000AE824C674146002931D02C490725096C29
:10CD6000079E0C1C294954448C464146CF0038216B
:10CD70002C40E400E14664448C46F719CC449A46C2
:10CD8000834603E02C1C0836BE4210D0251C331C01
:10CD900003CB03C56445F5D14C46F4E7029B082755
:10CDA0009C46009B66441C1B033C748124E7174986
:10CDB0005346496C584641440C1C14494C640028A5
:10CDC00007D00021019C41608172114904600989EA
:10CDD00001810027590700D50EE7042100200B43ED
:10CDE0001370FFF77DF807E70024032541E70025CE
:10CDF00003952F1C62E7C0461C230020FFFF0000A4
:10CE000058220020502200208822002008220020E2
:10CE100078220020F0B556465F464D464446F0B4B1
:10CE2000052685B0002A04D0634C033E23789D0775
:10CE300007D4301C05B03CBC90469946A246AB4690
:10CE4000F0BD002900D18AE00D885C4F0236BD425A
:10CE5000EFD04F880097002FEBD04E6802960989DB
:10CE6000002917D037680197BF077AD1371C0026F1
:10CE7000B4460336B2460837664690469C4604E000
:10CE800052463B68083713426BD10136B142F7D89E
:10CE9000634642461688019652889346484A94460D
:10CEA0006646126801323260464EB146766FB04631
:10CEB000032E58D808277F1ABC46434EB246766CDC
:10CEC000039666454FD84F463F6FBC46C4446646FE
:10CED00003273740FE00F71BBF00BC46CC44674623
:10CEE00002263E706E463D81002536887D81BE80DB
:10CEF0005E460025FE806E463D746546FA60B78842
:10CF0000A9756F820327AF8245464F4601357D677D
:10CF100000293DD055462F6C039EBC466644351C07
:10CF200007273D40CF00BC46029E3827B4449346B5
:10CF30006246ED0057449C465544D146B8460091A0
:10CF40000190131C03E03D1C08369E4216D02F1C96
:10CF5000321C03CA03C74545F5D14D46F4E7052603
:10CF600067E7032665E75946019B184A1B01D3185A
:10CF70005A890826033A521A5A815AE755466D6C67
:10CF80006346AC4655465A46009901986144696427
:10CF9000002806D0002102600D4A4160817212898A
:10CFA000028100265A0700D543E7042200201343DC
:10CFB0002370FEF795FF3CE71C230020FFFF0000D5
:10CFC0005022002088220020082200205822002021
:10CFD00078220020F0B55F4656464D464446F0B4F0
:10CFE000052389B0002804D06F4F033B3E78B20779
:10CFF00007D4181C09B03CBC90469946A246AB46E3
:10D00000F0BD002900D1A2E00C88684A02339442A6
:10D01000EFD04A88002AECD04B680D899846002D45
:10D0200000D1B7E01B689B0700D092E04246032482
:10D0300008320023A446894605E061461468083298
:10D040000C4200D085E001339D42F6D84346ED0006
:10D0500004351A1D2B1C4946002543441488083208
:10D060002D19ADB29A42F9D106AB8846041C991D20
:10D07000281CFEF793FE021C031EBAD141464C4801
:10D08000098906AB8A460168DB88013101604046A8
:10D0900000880191029040464088039020680490E7
:10D0A00040464068059043488446406F80460328C8
:10D0B00051D8414851468146406C83460820401A69
:10D0C000834548D86146096F4144081C0321084044
:10D0D000C100081A03218000604401706946428142
:10D0E00004228989438281806946049BC580027439
:10D0F0004546013A82828361524663460989013579
:10D10000018101998275C1605D675346002B34D05F
:10D110004B4607221B6C05985B4413405246D500D2
:10D120003822DB004A444B444519C84694460196D0
:10D130008B46029403E0131C0830A84214D01A1C3A
:10D14000011C50C950C26345F5D14346F4E705239D
:10D150004FE703234DE7194A1B01D3185A89033AB5
:10D16000521B5A81082344E75B46019E01934B46BC
:10D170004A465B6C029C534453640023019A6360EB
:10D18000A3720F4B22601B8923810423334203D0F7
:10D1900000232EE7002567E71E4300203E70FEF7C0
:10D1A0009FFE002325E7C0461C230020FFFF000050
:10D1B000502200208822002008220020582200202F
:10D1C00078220020F8B5164A02241378990701D472
:10D1D000201CF8BD03340028FAD0124E0768756F82
:10D1E0000334032DF4D81049496C0829F0D80320E2
:10D1F000316F002469180140C800411A04208900D9
:10D200007118013508700C71CF6075671842DFD155
:10D21000042100200B431370FEF762FED8E7C046DE
:10D220001C230020882200200822002070B5164A06
:10D2300002241378990701D4201C70BD13490234CD
:10D240008842F9D0124E0434756F032DF4D8114979
:10D25000496C0829F0D8316F053C69182140CC0091
:10D26000611A0524890071180C700135043C0C7199
:10D27000C880002475675907DED4042100200B43C1
:10D280001370FEF72DFED7E71C230020FFFF0000E0
:10D29000882200200822002038B5154A022413787D
:10D2A000990701D4201C38BD12480634416F032968
:10D2B000F8D8114D6D6C082DF4D80325046F0C19A6
:10D2C0002C40E5002C1B06250131A40005554167C3
:10D2D0000A490878002801D0012008730024590762
:10D2E000E0D4042100200B431370FEF7F9FDD9E7C9
:10D2F0001C23002088220020082200207822002001
:10D30000F0B54D4644465F465646F0B49146344A21
:10D310008846117883B00222890707D4101C03B015
:10D320003CBC90469946A246AB46F0BD4A46002A10
:10D3300040D0002B3ED09A880192012A38D8294A41
:10D34000294F9346002294465946019A12018C5C5B
:10D35000002C25D11C6803E01C60A58885422BD0D9
:10D36000002C36D0594665880335AD0064198D18F8
:10D370006E688021C9008A465644B4420ED22168A4
:10D3800001310BD0A5882188BD4201D00029E3D10D
:10D3900065880335AD006419B442F0D362461A6063
:10D3A0000121019A0191013292B29A80022ACBD1D5
:10D3B0000A22B3E70522B1E725884545D0D14A4680
:10D3C000A16811601B685360084B1B891381002200
:10D3D000A4E759468C186668341C0834C9E7C0466F
:10D3E0001C23002058220020FFFF0000782200208C
:10D3F000F0B544465F4656464D46F0B4314B1C7876
:10D400000223A40706D4181C3CBC90469946A246A9
:10D41000AB46F0BD002943D0002A41D093889846FE
:10D42000012B3BD8284B294E9C4600239946434666
:10D430001B019A46634654461B5D002B26D1156896
:10D4400004E013601C881D1C84422BD0002D32D0B8
:10D4500064466B88544403339B00EB186568802452
:10D46000E400A3465D449D420ED91C6801340BD0F4
:10D470009C881F88B44201D0002FE2D15C8803341D
:10D48000A4001B199D42F0D84B461360434601246B
:10D4900001339BB29380A046022BC8D10A23B2E786
:10D4A0000523B0E79B680B6013684B60084B1B8932
:10D4B0000B810023A7E7634653445D682B1C0833A8
:10D4C000CDE7C0461C23002058220020FFFF0000AB
:10D4D00078220020F0B544465F4656464D46F0B4EB
:10D4E000314B1C780223A40706D4181C3CBC904680
:10D4F0009946A246AB46F0BD002943D0002A41D050
:10D5000093889846012B3BD8284B294E9C460023F4
:10D51000994643461B019A46634654461B5D002BC1
:10D5200026D1156804E013609C881D1C84422BD012
:10D53000002D32D064466B88544403339B00EB18B3
:10D5400065688024E400A3465D449D420ED91C68B2
:10D5500001340BD09C881F88B44201D0002FE2D147
:10D560005C880334A4001B199D42F0D84B4613601D
:10D570004346012401339BB29380A046022BC8D1BD
:10D580000A23B2E70523B0E79B680B6013684B6082
:10D59000084B1B890B810023A7E7634653445D6852
:10D5A0002B1C0833CDE7C0461C2300205822002046
:10D5B000FFFF00007822002038B50523002807D09F
:10D5C0000D1C041C00210C22FDF722FE0023256007
:10D5D000181C38BD002805D0002903D0036800209E
:10D5E0000B6070470520FCE729DF704728DF704794
:10D5F00070B50D4C0023626D042A13D00021051C68
:10D600000E1C0320236DD31898424E4101326265EF
:10D610001422704203405343E418201CFDF7F8FD28
:10D6200001232C60181C70BD30230020F0B52F4B57
:10D6300085B01D781C1C06231D4255D1043B2B438D
:10D6400023702B4B5A6D1F6D1E1C002A4CD01423C7
:10D650007B43F3181A79012A05D0022A20D11889B0
:10D66000FFF7C4FF12E01A8A598A521AFF2A01DC16
:10D6700092B201E08022520014237B43F318D86851
:10D680009B68890040185918FFF7AEFF112805D193
:10D6900002239D43DB181D43257025E0002823D07D
:10D6A0000C2201A80021FDF7B3FD14237B43F318DE
:10D6B0001A79012A0AD0022A0FD1694601220A7179
:10D6C0001A895B894A81D31A0B8106E000226946D8
:10D6D0000A71DA681B8A02928B8114235F43F35923
:10D6E00001A89B680921984705B0F0BD2C230020B4
:10D6F00030230020F0B55F4656464D464446F0B410
:10D70000214B5F697B1C39D0204B99461B789A4688
:10D71000DB072CD41E4B1F4C9846E41A240920D05A
:10D72000002301259C4600266D424246002300202E
:10D73000AB4204D0517B814201D3081C1E1C013333
:10D740001032A342F4D1330143441A7B5F6092024A
:10D75000BF1A1F6001239B46DC44A44501D0351C41
:10D76000E3E7012352461A43131C4A461370002074
:10D770003CBC90469946A246AB46F0BD80235B0573
:10D780005F69BF02C0E7C046001000102C230020D4
:10D790008421002094210020F0B51F1C1F4B041C85
:10D7A0001B7883B00D1C161C0120DB0711D5002C43
:10D7B00011D01B4B01309C420BD31A4B9C4208D218
:10D7C000002A0AD0002D08D0331C2B4306209B07CB
:10D7D00005D003B0F0BD0220FBE70320F9E7236882
:10D7E00001389D42F5D3BB006268EB189A42F0D332
:10D7F0000138002FEDD001A8FFF7FAFE031C072027
:10D80000002BE6D00122019B1C60019B1A719E60D7
:10D81000DD601F82FFF70AFF0020DAE72C230020DB
:10D82000842100209421002070B51E4B041C1B781D
:10D8300082B00D1C161C0120DB070ED5002C0ED06B
:10D84000194B01309C4208D3184B9C4205D2002949
:10D8500026D0AB050620002B03D002B070BD0220FD
:10D86000FBE7236801389D42F7D3B3026268EB18E7
:10D870009A42F2D30138002EEFD001A8FFF7B8FE8C
:10D88000031C0720002BE8D00222019BAD0A1C607C
:10D89000019B1A711D819E81FFF7C8FE0020DCE705
:10D8A0000320DAE72C23002084210020942100208B
:10D8B000002804D0034B5B6D0360002070470320F9
:10D8C000FCE7C04630230020F0B556464D4644469E
:10D8D0005F46F0B49E4E9F4C337885B0256D9A0715
:10D8E0003FD502285FD0032800D07EE09A4A137803
:10D8F0000133DBB21370032B00D876E000231370E2
:10D90000994601AB181C0C220021AF009846FDF788
:10D910007FFC7B199B00E3181A79012A00D1E4E00F
:10D92000022A07D1414601220A701A895B89CA80FE
:10D93000D31A8B80404608217D19AD0063599B683E
:10D940009847636D013B6365002B03D10221327858
:10D950008A433270226D551C042D00D1E2E025650A
:10D9600044E004221A4240D09343626D3370002A8F
:10D9700012D00222AF00134333707B199B00E318CF
:10D980001A79012A3BD0022A55D11889FFF72EFEB9
:10D99000112846D000284ED105B03CBC904699468F
:10D9A000A246AB46F0BD00239A4652466A4BAF00F2
:10D9B0001A707B199B009946A1444B461B79012B99
:10D9C00061D0022B11D108234B449B464B464A465B
:10D9D0001B89013313815B465A465B8801339BB236
:10D9E000538092889A4200D187E0636D002BD3D098
:10D9F000AF007B199B00E3181A79012AC3D11A8A58
:10DA0000598A521AFF2A13DC92B27B199B00E31841
:10DA1000D8689B68890040185918FFF7E5FD112860
:10DA2000B8D1022233789343042213433370B3E70F
:10DA300080225200E9E701AB181C0C220021984615
:10DA4000FDF7E6FB7B199B00E3181A79012A11D038
:10DA5000022A07D1414601220A701A895B89CA80CD
:10DA6000D31A8B807D19AD00635940469B6809210C
:10DA7000984791E7002241460A704246D9681B8ABE
:10DA800051601381EEE74B46198A5B8ACA1AFF2A56
:10DA900029DD80225200D3187A1992009146A144C0
:10DAA0004A469BB2538299429FD101AB181C002178
:10DAB0000C229846FDF7ACFB4B461B79012B40D05E
:10DAC000022B09D10123424613704B461A895B8908
:10DAD0004146D31A8B80CA807D19AD0063594046F8
:10DAE0009B6800212CE792B2D5E742464946117067
:10DAF000D9681B8A516013811CE701AB181C0021F7
:10DB00000C229846FDF784FB4B461B79012B0DD068
:10DB1000022BE1D10123424613704B461A895B4622
:10DB20005B88D5E70022002522655FE75246434621
:10DB30001A705A4652685A604B4642461B8A1381F5
:10DB4000CAE70023424613704A464346D268F2E7CA
:10DB50002C230020302300208823002008B50378E0
:10DB6000022B02D0012B00D008BD4068FDF74EFC0F
:10DB7000FAE7C04670B50E4C88B023780020002B21
:10DB800014D101A8021C0B4B62CB62C20A4B0125C7
:10DB900004930A4B04A9069380239B000793FE3B42
:10DBA000074AFF3B059500F0A3FA257008B070BD49
:10DBB00089230020CC9A02008C2500208C23002091
:10DBC0005DDB01000FB400B583B004A901C9019168
:10DBD0000AF0C4FF03B008BC04B018470FB4F0B596
:10DBE00083B008AD80CD00260195002F0FDD0435F0
:10DBF0002B1F1C6801952078002805D0013400F007
:10DC0000E3FA20780028F9D10136BE42EFD103B003
:10DC1000F0BC08BC04B0184770B5161C0C1C8D185D
:10DC2000002A05DD2078013400F0CEFAAC42F9D1AB
:10DC3000301C70BD10B50C1C201C00F0ABFA052880
:10DC4000FAD0012010BDC0460123034215D1421075
:10DC5000134214D18210134213D1C210134212D1B5
:10DC60000211134211D14211134210D182111342F9
:10DC70000FD1C0110FD1094870470020FCE70120E7
:10DC8000FAE70220F8E70320F6E70420F4E705208E
:10DC9000F2E70620F0E70720EEE7C046FFFF0000AE
:10DCA00010B5002819D0002917D00488944215D047
:10DCB0004488944223D08488944222D0C4889442D9
:10DCC00021D00489944220D0448994421FD0848971
:10DCD00094421ED0C08990421DD010BD0022002B5E
:10DCE00006D0012393401A1C0B781A430A70F4E7FC
:10DCF000012393401A1C0B7893430B70EDE701222C
:10DD0000EDE70222EBE70322E9E70422E7E7052239
:10DD1000E5E70622E3E70722E1E7C046F0B544461F
:10DD20005F4656464D46F0B483B00CAC24780028CC
:10DD300022D0002920D0002A1ED005889D4200D183
:10DD4000E1E045889D4200D1E8E085889D4200D110
:10DD5000E6E0C5889D4200D1E4E005899D4200D1FE
:10DD6000E2E045899D4200D1E0E085899D4200D1F5
:10DD7000DEE0C089984206D003B03CBC904699468C
:10DD8000A246AB46F0BD0720012383404842DBB2E8
:10DD9000002C5DD103342040904200D9101C042A8D
:10DDA00000D9B6E0101CDC430D78E4B225400D70BC
:10DDB000012800D1C4E04D7825404D70022800D1E3
:10DDC000C2E08D7825408D70042800D0BAE0CD786F
:10DDD0002C40CC7004248242CED0151AAC46043DAF
:10DDE000AD080135A946561EAD00A846361A022ECA
:10DDF00019D91F023D1C1E041D432E431F06374325
:10DE00008346F8430025002682468B4458464759EE
:10DE10005046074058460136475104354E45F5D324
:10DE20004444C445A8D0DB4308190578DBB21D4043
:10DE30000570601C82429FD90818057802341D4085
:10DE40000570A24298D90C1922781340237093E7E9
:10DE500003242040904200D9101C042A55D8101CDD
:10DE60000C781C430C70012866D04C781C434C7015
:10DE700002285FD08C781C438C7004285ED1CC784B
:10DE80001C43CC700424824200D175E7151AAC46BD
:10DE9000043DAD0801350195561EAD00A846361A61
:10DEA000022E1BD91E021E43B24655461F042F43A5
:10DEB00000251E063743BA460026A94608185746CD
:10DEC00085592F430125AB46019DD944875104361E
:10DED000A945F4D34444C44500D14DE70D19287831
:10DEE00018432870601C824200D845E7081805785E
:10DEF00002341D430570A24200D83DE70C19227878
:10DF00001343237038E700203EE700240028BDD0EB
:10DF1000A6E70024002800D15FE744E7012033E7AB
:10DF2000022031E703202FE704202DE705202BE70F
:10DF3000062029E70224A6E70124A4E70324A2E798
:10DF4000012448E7032446E7022444E710B50028EB
:10DF500019D00488944218D0448894421AD08488F6
:10DF6000944219D0C488944218D00489944217D09E
:10DF70004489944216D08489944215D0C3890020E4
:10DF8000934213D010BD0020FCE70023194101206B
:10DF90000840F7E70123F9E70223F7E70323F5E752
:10DFA0000423F3E70523F1E70623EFE70723EDE773
:10DFB00030B50023002935D0D40702D50B888380E3
:10DFC0000123940704D55C004D880419A580013312
:10DFD000540704D55C008D880419A580013314070B
:10DFE00004D55C00CD880419A5800133D40604D57E
:10DFF0005C000D890419A5800133940604D55C00EA
:10E000004D890419A5800133540604D55C008D891F
:10E010000419A5800133D21104D05A00C98982188D
:10E0200091800133036030BD30B5047885B0012C98
:10E0300019D0022C34D0002C01D005B030BD274CB3
:10E04000274D201C291CFDF727FA002823D0A268A1
:10E05000E3689A42F1D1032302AA1370214B101CEA
:10E060001B689847E9E743681F4D1978281CFDF79E
:10E07000FFF9002822D1AA68EB689B1A012B25D052
:10E08000A968AA88EB685B1A9A42D6D3012117487F
:10E0900000F082FDD1E7281C012100F01BFDD6E72E
:10E0A00002AB1C70C368012110480193039300F078
:10E0B00073FD0C4B02A81B689847BEE702AB1C70AF
:10E0C000084B03901B6802A89847D9E702AB187069
:10E0D000044B02A81B689847D2E7C0469C25002045
:10E0E0009025002094250020AC25002098250020B4
:10E0F000F0B51E1C214B051C89B00C1C1A600720B2
:10E10000002906D08A881E480968FDF79DF9002875
:10E1100001D009B0F0BDA168A2891A48FDF794F9B1
:10E120000028F6D16A46184B684692CB92C292CB31
:10E1300092C212CB12C2AB6806932B7906775A1E95
:10E14000934103756B790E22591E8B415B421A4035
:10E150004275EB780D490293AB7803932B780193CA
:10E160006B78009300F026FC0028D2D100F0ACFDC3
:10E170000121074800F010FDCBE7C04694250020A0
:10E18000AC2500209C250020D89A020029E001003F
:10E190009825002038B50A4C051CA168A288E368C0
:10E1A0005B1A9A4204D0201C291CFDF775F938BD72
:10E1B0000448012100F0F0FC0028F4D00520F6E727
:10E1C000AC2500209825002070B50D4D011C281CA1
:10E1D000FDF74EF9041E01D0201C70BD00F0D4FCE8
:10E1E0000028F9D1074E281C311CFDF755F90028ED
:10E1F000F2D1301C012100F06DFC041CECE7C0469C
:10E200009C2500209025002038B50C4C0D1CA27CCC
:10E210000823002A01D0181C38BD094B1A600029B8
:10E2200005D0002808D00178072000F0E5F8012388
:10E230002560A3740023EEE70248F4E7BC25002024
:10E2400000710040F89A020000234360064B5A68B0
:10E25000002A01D105E01A1C5368002BFBD1506045
:10E2600070475860FCE7C046BC2500200122014BE6
:10E270001A60704700700040F0B544465F4656464D
:10E280004D46F0B42D4C1123A27C022A18D00F3B2E
:10E29000A3740023E060A02062682174A260284972
:10E2A0001268284E63748A51274AC00013600133F4
:10E2B0000B502568002D0AD0C12292008B500023FC
:10E2C000181C3CBC90469946A246AB46F0BDA12323
:10E2D000DB00904683469C46B1461368002BFCD079
:10E2E00043461D605B466646CD508E59637CB24600
:10E2F0005046E7685E00F0530133267CDBB263745E
:10E300009E4216D9A3685B68002B09D04846A360DB
:10E310001B680B505B460120C85001230B60DCE7F3
:10E3200048466368A3601B680B505B460120C850D9
:10E33000D3E70123A3740023C2E7C046BC25002015
:10E34000007000400405000000710040F0B5264A4E
:10E3500085B0D468002C33D0A0200025A126234B03
:10E360002349C0001D600D50537CF6008F595E009C
:10E3700037530133167CDBB25374B3420CD293682B
:10E380005B68002B14D093601A681A4BCA500123A3
:10E390000B500B6005B0F0BDC220012380000B5074
:10E3A00001A8937405704460068113689847F1E7EB
:10E3B000536893601A680F4BCA5001230B50E9E76A
:10E3C0000A4BC2201C600123094980000B50F93020
:10E3D000FF300C50A12401A80370E4000959937484
:10E3E000818013689847D5E7BC2500200071004064
:10E3F0000070004004050000F0B5002820DBFF2776
:10E400001B4B03229C463B1C8408C026C0B2024022
:10E41000D2009340A4006444B600A5599D438B01EB
:10E420003B409340191C2943A1511F2318401E3B18
:10E430008340C022181C0E4B520098501860F0BD4B
:10E44000FF260C4A03249446321C0F23C0B204401A
:10E45000E400A2400340083B9B089B006344DD6945
:10E4600095438A013240A240111C2943D961DCE75F
:10E4700000E100E000ED00E038B54425164C08202E
:10E48000635D002B00D038BD4022FF21013BA35427
:10E490000132A1540132A354236201326362A362A8
:10E4A000E36223636363A363E3630238FC39A35429
:10E4B00023606360A360E36023616361A361E36140
:10E4C000FFF79AFF8021C123044A9B000906D1501F
:10E4D000012300206355D6E7D025002000600040CE
:10E4E0004423034AD05C431E9841C0B27047C046E3
:10E4F000D0250020F0B5474680B4524C082523189B
:10E5000020331E787F2E03D8281C04BC9046F0BD13
:10E51000CD78AC46002D36D02568013500D187E096
:10E52000042300269846731C9D006759013733D099
:10E53000B31C984525D99D00675901372CD0F31C91
:10E5400098451ED99D006759013725D0331D984540
:10E5500017D99D00675901371ED0731D984510D9F2
:10E560009D006759013717D0B31D984509D99D0003
:10E570006759013710D00736B04502D9E369013336
:10E5800008D00425C0E72569013555D008230426A5
:10E590009846C8E707231C25625162462718DEB259
:10E5A00020373E70002A02D1E3183C3318708B7874
:10E5B000002B15D1031CA0254A78C133FF339200EC
:10E5C0009B00ED055A51CB78002B15D176B2A419DA
:10E5D0003C340B7822789B0113432370002593E78A
:10E5E000A022D2059446E025022783006344ED0073
:10E5F0005A59BA435A51E6E7A22476B2124BB600F2
:10E60000F318E4000A781D591049000229401951F5
:10E61000F82149010840061CC0211004021C301CCE
:10E6200089021D590A4010432843185100256BE701
:10E63000002622601E70BAE7042522611D702E1C80
:10E640002B1CB1E7D025002000600040FFE0FCFF5C
:10E65000F0B5264D2C182034227853B2032B18DD48
:10E66000EB183C331B789B09032B32D0012B39D09C
:10E67000C025AD02A023DB059C46E023800060445A
:10E68000DB00C4581A492140C150C2582A43C25025
:10E69000F0BD032AFCD81748A227844601269A0019
:10E6A0006244FF00D0593043D0511A1C6046002705
:10E6B0004032920092B217500029E9D00022A256AF
:10E6C00092005259002AE3D0C1229E409200865007
:10E6D000DEE7A223A022DB00D205D258012383402B
:10E6E0001A42C5D18025AD02C4E7C046D02500201E
:10E6F000FFFFFCFF00600040A223A022DB00D20548
:10E70000D358C340181C012318407047F0B5444645
:10E710005F4656464D46F0B49C4A87B013680024C5
:10E72000012B00D1AEE09A4B1A68012A00D1B7E064
:10E73000984B1A68012A00D1C2E0974B1A68012A47
:10E7400000D1CDE00022954B02921A68012A00D137
:10E75000D8E023070BD0E30700D5DFE0A30700D5FF
:10E76000EBE0630700D5F6E0230700D502E1002CBB
:10E7700006DB07B03CBC90469946A246AB46F0BDCE
:10E78000002301270493C03399460126844D7F421C
:10E7900000230393E023DB0000249846231C40332E
:10E7A000E95C4BB201332CD0C9B24B46081C9843EC
:10E7B0003B1CC3401E4224D08B0901932B182033ED
:10E7C0001B785BB29B00EB589C46002B35D0331C6A
:10E7D00083409A46019B032B35D0A023DB059B4643
:10E7E000434682005A44D3580592C02292021340F5
:10E7F0001B0C191C53469346029A1A4212D1032944
:10E8000026D00134042CC9D1039B002BB1D0A22304
:10E81000A022DB00D205D358029A9A42A9D0049FC5
:10E820000293B5E70229ECD1019B032B16D0634676
:10E83000002BE6D00199E047E3E7019B032BE0D1F1
:10E84000331C83409A465246049B13430493C4E707
:10E85000019B032BEBD180239B029B4643460599EA
:10E86000CB589A4652464F4B134042468B508B58DA
:10E870005A461A43131C42468B50039B0133DBB2AA
:10E880000393D4E7C1214848890041580B4200D185
:10E8900049E73F4B14601A680134012A00D047E76A
:10E8A000C12241499200895802220A4200D13FE721
:10E8B00000211960374B14431A68012A00D03CE745
:10E8C000C12239499200895804220A4200D134E712
:10E8D00000211960304B14431A68012A00D031E737
:10E8E000C12231499200895808220A4200D129E701
:10E8F0000021144300221960284B02921A68012A51
:10E9000000D026E700221A6080231B061C43A022A9
:10E91000A223D205DB00D35802931AE7A223224A8E
:10E92000DB00D058D1581E4DC00489032B68C00E9F
:10E93000890F9847A30700D413E71C4B1A4A184DB8
:10E94000D058D158C00489036B68C00E890F98470E
:10E95000630700D408E7A323134ADB00D058D1583B
:10E960000F4DC0048903AB68C00E890F9847230779
:10E9700000D4FCE60C4A0E4B094DD058D158C004C7
:10E980008903C00E890FEB689847F0E600610040EC
:10E9900004610040086100400C6100407C6100405F
:10E9A000D0250020FFFFFCFF0060004014050000A0
:10E9B0001C050000F0B557464E464546E0B43B4CBA
:10E9C000031CE27E0820002A04D01CBC9046994615
:10E9D000A246F0BD002B67D001221868A125824015
:10E9E000A020ED00C0054251A94603251A68AA4699
:10E9F000C132FF329200155000255A68AC46C13230
:10EA0000FF32920015509F69294A2A4D57511D7DAA
:10EA1000A84647465D7D3D43274FD5515D681F6839
:10EA2000A846264D57514746254D57511D7D012D6E
:10EA300019D19F683E1CE0277F00B8464644B700C6
:10EA400066463E50DE68B5404E4685515646DD6806
:10EA5000C135FF35AD002E504E46D8689D689051A7
:10EA6000A220C00015501A696160226000290DD0F3
:10EA7000197F0023134A14481360144A1360C123FA
:10EA80000B4A9B00D0500220FFF7B6FCA0230421C4
:10EA9000074ADB00D15000230122E3752376A375DA
:10EAA000E276A376002090E7094B95E71826002030
:10EAB00000200040240500006C0500000C0500004B
:10EAC000140500001C210040800002004421004089
:10EAD000FC9A0200F0B5264A041C937D1120002BFD
:10EAE00000D0F0BD0125917522482349938294609E
:10EAF0000B6005600B60938AE05C938A1F4C0133C6
:10EB00009BB293821E4BE0505068002801D0002039
:10EB1000E7E70027261C1D1C0130FF30947D938AF7
:10EB2000A34203D312E0938A834202D00B68002BE6
:10EB3000F9D0938A8342F2D00F60938A9468E45CA0
:10EB4000938A01339BB293827451E7E78023918AC1
:10EB50005B0099420AD008490B68002BFCD00121C8
:10EB60000020084B196000239375BAE70F20FAE7DD
:10EB700018260020082000401C21004000200040F2
:10EB80001C0500000C200040024B987D431E98415C
:10EB9000C0B2704718260020F0B5474680B4444BF9
:10EBA0005A68002A05D08126C224424DB600A4002E
:10EBB0002E51DC7D002C0DD01C7E002C1DD0002A97
:10EBC00000D16EE08121C1233A4A89009B00D150D7
:10EBD00011200FE0D975997ED8605C761C760029EB
:10EBE0002BD0002A0DD08121C1230020314A890079
:10EBF0009B00D15004BC9046F0BD18611976002AE4
:10EC0000F1D12D4C2D4D22602A4A2D489046A32249
:10EC1000D2009446296806684A1E91412268C9B20A
:10EC2000571EBA41D2B2002E10D1002A27D1002996
:10EC3000F0D000220320DA75DCE7204A1160204A78
:10EC4000116001211B4A11605A68CAE70029F0D1FE
:10EC5000002A16D1D97D002917D1016062464146AC
:10EC60008A585A7ED97D9142D4D80022DA759B7E8B
:10EC7000002B18D001220F4B00201A60BAE70029A0
:10EC8000D7D100220F20DA75B4E74646614602600C
:10EC90005A7E7158DE68B1545A7E0132D2B25A7629
:10ECA000DFE71120A6E70122064B00201A60A1E74A
:10ECB000182600200020004044210040242100406C
:10ECC0000821004004200040064A937E002B07D113
:10ECD00005490B6005490B60054901330B609376CC
:10ECE0007047C0461826002024210040082100401B
:10ECF00000200040C12210B5604B92009A5884B0A9
:10ED000092054DD55E4A1168002949D00021116055
:10ED10008121C2228900920099505A4B9A7E002A82
:10ED200002D10121584A1160022269460A709021DD
:10ED30005248C9004258425069460392DA7D6846FB
:10ED40000A72DA68196801920022DA751A765B682D
:10ED500098474E4A1368002B10D04A4B988A997DE9
:10ED600081424FD9002111609A8A9968895C9A8AF8
:10ED7000013292B29A82464B404AD150454B1A68B2
:10ED8000002A0BD000221A603E4B9A7E002A02D045
:10ED900001213A4A1160DA7D002A42D104B010BD47
:10EDA000C123364A9B00D3585B07D2D53A490B683A
:10EDB000002BCED0334BD87D00283FD10860A32153
:10EDC000C90052585A7ED97D9142C2D11A7E002A7A
:10EDD00041D19A7E002A02D101212B4A1160812063
:10EDE000C2222649800092008850002268460121F4
:10EDF000DA755A7E01700272DA68196801925B68EE
:10EE00009847A6E7002010600029B7D06A46107026
:10EE100011729A689875196801925B6868469847FC
:10EE2000ACE7002268460121DA755A7E0170027251
:10EE3000DA68196801925B689847AFE700200860BC
:10EE4000A320C000597E1258D86842545A7E01321D
:10EE5000D2B25A76B6E7DA751A69D968DA60002252
:10EE60006C46587E1A765A760132207201912270D1
:10EE7000196868465B6898476BE7C0460020004009
:10EE80002421004018260020042000401C210040BE
:10EE90001C0500004421004008210040074B1A686F
:10EEA0000823520701D4181C7047002804D0044BD3
:10EEB0005B7803600023F6E70E23F4E700270020C9
:10EEC00034260020A02210B5064BD205D15880234D
:10EED0001B041C1CA1208C430B400349C000145090
:10EEE000535010BD040500000C050000F8B54F4656
:10EEF0004646041CC0B4112809D0122839D0132862
:10EF000039D0142839D00CBC90469946F8BD00255C
:10EF1000012911D000291FD00229F4D16B005D19FD
:10EF20001F4B5D196E78002EEDD01E4B1B68002B19
:10EF3000E9D0301C9847E6E7194B6F0098464246E7
:10EF40007B19D65C43445B78002B18D17F1947446A
:10EF5000BA78154B5A55E6E71448FCF785FE104A77
:10EF60006B005B19D318104A9B78565D9E42CAD13C
:10EF7000D9E70125CCE70225CAE70325C8E70C4BF2
:10EF80000A481B689900C9180A4B49001A1C99467F
:10EF9000FCF7EEFD0028D9D14B461C70D6E7C046E1
:10EFA0008027002038270020282700203C27002029
:10EFB0003427002030270020F8B5C74B1B68DB073B
:10EFC00000D4F8BDC54A1478172CFAD8C449A30058
:10EFD000CB589F46A022C34BD205D1588023DB03D8
:10EFE0001C1CA1208C430B40BF49C000145053503F
:10EFF000BE4B00221B68BE489900C918FCF7B8FD3B
:10F00000DFE7A023F021B84ADB054904995000212D
:10F01000043A9950D5E7A022B24BD205D1588023AB
:10F02000DB031C1CA1208C430B40AF49C0001450D3
:10F030005350AE4B00221968AD48FCF799FDC0E76C
:10F04000AC4BA1201968E0235B048B43A021002670
:10F05000F025C905C000A44C0B50A24B0E51CB5853
:10F060006D046B408025AD032B4000D120E10D5095
:10F0700003230E51082113709C4B00221B689C48EF
:10F080005943FCF775FD9CE79A4BA1201968E023D2
:10F090005B048B43A0210026F025C905C000924CDB
:10F0A0000B50904B0E51CB586D046B408025AD0337
:10F0B0002B4000D104E10D5004230E512821DAE742
:10F0C000A023A122E021DB05D2004904802499502D
:10F0D00000218548A40319501C50995071E7864DB2
:10F0E000281CFCF7C1FD11231C1B00D1C7E0002820
:10F0F00000D0C4E080237F4E1B043360012C10D06D
:10F10000C8306421604309F087FB784B00221B68FC
:10F110004343281C191CFCF72BFDF02332685B04C9
:10F120001340A0227049D2055350A1230021DB00D7
:10F13000D15046E76F4BA1211A68F0235B0493433B
:10F14000A022C900D20553500021674BD15038E7A7
:10F15000684BA1201968E0235B048B43A0210027A2
:10F16000F026C905C000604D0B505E4B4F51CB5887
:10F17000760473408026B603334000D18EE00E50F3
:10F180004F51022C00D1A0E02821147074E7A02375
:10F19000A122C021DB05D2004904C02499500021DE
:10F1A0005148E40319501C5099500AE7A023A122AA
:10F1B000D021DB05D20049048024995000214A481F
:10F1C000E40319501C509950FBE6A023F021A12222
:10F1D000DB054904D20099500021434A9950F0E6DA
:10F1E000E022444B52041B68A1219A43A023C9008A
:10F1F000DB0580245A5000223B48A4031A501C50BF
:10F200005A50DEE63B4BA1201968E0235B048B4398
:10F21000A0210026F025C905C000334C0B50314B0E
:10F220000E51CB586D046B408025AD032B403CD074
:10F230000D500E51052313702C4B002219682C48D9
:10F240004900FCF795FCBCE62A4BA1201968E02395
:10F250005B048B43A0210026F025C905C000224C89
:10F260000B50204B0E51CB586D046B408025AD03E5
:10F270002B4022D00D500E5106231370D9E6F023F7
:10F280001C4A5B041168A1200B40A021C000C905E5
:10F290000B50002314480B50136092E64E510B5054
:10F2A000022C15D004211470E6E60D510B50C1E775
:10F2B0000D510B5002210323DDE60D510B50DBE70E
:10F2C0000D510B5004210423D5E612211470D3E60E
:10F2D00002211470D0E6C0462C2700205C270020B5
:10F2E0001C9B0200040500000C05000034270020D0
:10F2F00004270020242700206027002008B5037879
:10F30000112B06D0122B12D0132B12D0142B12D08B
:10F3100008BD00235A00D318084AD318587800288B
:10F32000F6D0074B1B68002BF2D09847F0E701237B
:10F33000F0E70223EEE7113BECE7C0468027002010
:10F3400038270020002303280DD8A223A022DB00A9
:10F35000D205D258054B8000C05801238340934307
:10F360005A1E9341DBB200200B707047E09B0200F5
:10F3700070B5DB4B041C1B680020DB0700D470BD9C
:10F38000172CFCD8D74AA300D3589F46A022D64BAF
:10F39000D205D1588023DB031C1CA1208C430B40D9
:10F3A000D249C00014505350D14B00221B68D148A1
:10F3B0009900C918FCF7DCFBE1E7A022CA4BD20593
:10F3C000D1588023DB031C1CA1208C430B40C74970
:10F3D000C00014505350C64B00221968C548FCF7B2
:10F3E000C7FBCCE7C44D281CFCF73EFC11231C1BBB
:10F3F00000D14CE1002800D049E18023BF4E1B041E
:10F400003360012C10D0C8306421604309F004FA45
:10F41000B74B00221B684343281C191CFCF7A8FBB0
:10F42000F02332685B041340A022B049D205535048
:10F43000A1230021DB00D150A1E7A023F021A122CC
:10F44000DB054904D20099500021A84A00209950B8
:10F450001222AB4B1A7092E7A023A122E021DB0518
:10F46000D2004904802499500021A048A4031950D7
:10F470001C5099501322A24B00201A707FE7A02342
:10F48000F0219A4ADB05490499500021043A995029
:10F490009B4B00201C7072E7984BA1211A68F02347
:10F4A0005B049343A022C900D205535000238F4927
:10F4B00000205350924A137061E7904BA1211A68C3
:10F4C000E0235B049343A0220026F025D205C90067
:10F4D00086485350844B1650D3586D046B4080259A
:10F4E000AD032B4000D1E9E055501650022C00D15D
:10F4F000F1E02821824B1C707D4B00221B687D4867
:10F500005943FCF735FB3AE7A023F021774ADB05A6
:10F51000490499500021043A99500C22784B00205C
:10F520001A702CE7A023A122D021DB05D2004904C8
:10F530008024995000216D48E40319501C509950C3
:10F5400014226F4B00201A7019E76C4BA1211A6826
:10F55000E0235B049343A0220025F024D205C900D8
:10F5600062485350604B1550D35864046340802464
:10F57000A403234000D199E05450155008210322E0
:10F580001AE05E4BA1211A68E0235B049343A0229A
:10F590000025F024D205C90054485350524B155051
:10F5A000D358640463408024A403234000D18BE03B
:10F5B0005450282115500422514B1A709CE7E02228
:10F5C0004E4B52041B68A1219A43A023C900DB05BE
:10F5D00080245A5000224548A4031A501C505A5007
:10F5E000474B07321A700020C9E6A023A122C02190
:10F5F000DB05D2004904C024995000213B48E403B4
:10F6000019501C50995015223D4B00201A70B6E637
:10F610003A4BA1211A68E0235B049343A022002502
:10F62000F024D205C900314853502F4B1550D35800
:10F63000640463408024A40323403CD054501550FC
:10F6400005222F4B2B481A70294B002219684900BC
:10F65000FCF78EFA93E6294BA1211A68E0235B049C
:10F660009343A0220025F024D205C9001F4853501F
:10F670001D4B1550D358640463408024A4032340D9
:10F6800026D05450155006221D4B1A70A3E6F023C5
:10F690001A4A5B041168A1240B40A021E400C905AB
:10F6A0000B510023114C0B51136068E6145053505A
:10F6B0000221032280E714505350C1E715505350E4
:10F6C000022C0AD0042115E714505350042172E78C
:10F6D00014505350D7E712210CE702210AE7C04625
:10F6E0002C2700207C9B0200040500000C05000074
:10F6F0003427002004270020602700202427002032
:10F700005C270020234B10B51960234B041C1860A4
:10F71000224B1A60830712D50D22214B21481A7003
:10F720000132DA7001329A7101325A724A080421A8
:10F73000FBF7FAFD002820D0E30703D41CE0C30741
:10F740000ED50020A023F022A1210024DB055204C5
:10F75000C9005A5014495C500C315A5000280BD142
:10F7600012480021124AFCF7E9F9002804D1114897
:10F770000121114AFCF7E2F910BDFBF72FFE00282A
:10F78000DAD10E4800210E4AFCF7D8F9E307E5D597
:10F79000D8E7C046342700202C2700203827002037
:10F7A00080270020F49B02000C050000F09B020063
:10F7B000B9EF0100149C0200C5EE0100DC9B0200C1
:10F7C000FDF20100031C0720032B00D97047012A1A
:10F7D00013D0012917D0002908D0022919D15800C7
:10F7E000C3180D48C3185A700020EFE75800C3181B
:10F7F0000948C3189A700020E8E700220129E8D1DF
:10F800001A1C0D32D2B258000349C3185A540020B2
:10F81000DCE70720DAE7C04680270020E0231D4A06
:10F82000DB00D2581C4B1A400023C10701D5C0236E
:10F830009B021343E0221749D2008B50174B9A5872
:10F84000154B1A400023810701D5C0239B021343A7
:10F85000E0221249D2008B50114B9A580E4B1A409D
:10F860000023410701D5C0239B021343E0220C492A
:10F87000D2008B500B4B9A58074B1A4000230107BC
:10F8800001D5C0239B021343E0220649D200002089
:10F890008B50704744000050FFFFFCFF48000050B1
:10F8A0004C0000505000005008B50320FFF7B6FF91
:10F8B000031C0020002B02D0062B00D0181C08BD12
:10F8C00010B50388102B08D0112B05D1294A1368D5
:10F8D000013B1360002B07D010BD264C2368002B82
:10F8E00011D001332360F7E7002002210122FFF746
:10F8F00069FF00282BD0072829D01F4B1B68002B3D
:10F90000EAD09847E8E7002000210122FFF75AFFDC
:10F91000002808D0072806D0174B1B68002B00D002
:10F9200098472368DDE7012002210722FFF74AFFFD
:10F93000002801D00728EFD1002002210422FFF780
:10F9400041FF0028EDD00728E6D12368C9E7012050
:10F9500002210722FFF736FF002801D00728CCD16B
:10F96000002000210A22FFF72DFF0028B4D007282D
:10F97000C3D1B1E7902700208C27002010B5244B7D
:10F9800082B00C1E186018D06B460020991DFFF73E
:10F99000D9FC002801D002B010BD6B460130D91D42
:10F9A000FFF7D0FC0028F6D16B46DB79002B29D17C
:10F9B0006B469B79002B28D12370164B1B68002BBC
:10F9C00001D00020E7E7002002210122FFF7FAFE24
:10F9D000002801D00728DED1012002210722FFF7ED
:10F9E000F1FE002801D00728D5D1002000210A22ED
:10F9F000FFF7E8FE0028E4D0C31F5A1E93415B4284
:10FA00001840C8E702232370D7E70B232370D4E7FD
:10FA10008C2700209027002076DF704777DF704723
:10FA200078DF70477ADF70477CDF7047A8DF704768
:10FA300067DF70473CDF704748DF704708B5FBF76A
:10FA4000E5FC08BD08B5FBF7E1FC08BD08B5FEF70D
:10FA50000DFC08BD10B5041CFDF736FF201C01F09D
:10FA6000ABFD10BD30B5041C85B002F041F8201C80
:10FA700007F0A8F9354D211C281C02F005FB201CBD
:10FA800001F0E4FF3248211C02F0FCFF3148211C48
:10FA900003F036F93048211C01F0B6FD2F48211C37
:10FAA00003F0E8F82E48211C03F0E2F9201CFFF7D0
:10FAB00007FF2388112B23D013D8022B26D0102B1D
:10FAC0000AD10720FFF754FC00283CD1A188281C4C
:10FAD00002F0A0FA002810D1201C01F0FBFC05B0B8
:10FAE00030BD512B19D0552B01D03A2BF4D1A08821
:10FAF0001321FFF791FF0028EED0FBF787FCEBE71F
:10FB00000020FFF735FC0028E6D0F6E7A0880021AA
:10FB1000FFF78EFF0028DFD0EFE7A379002BDBD0C3
:10FB2000A27B043A022AD7D8022B00D001236A46CE
:10FB30001370C1235B009380A0886946FFF776FFAE
:10FB40000028C9D0D9E7FBF761FCBFE77C2A002079
:10FB5000582A0020682A0020542C0020F429002074
:10FB6000282C002008B5011C014803F017F808BD37
:10FB7000F42900200378012B04D14268002A01D126
:10FB8000014A13707047C046ED29002010B5037874
:10FB9000002B00D010BD406801210488FEF76CFBEB
:10FBA000002837D1962322B2DB005A43D3179B0D8E
:10FBB0009B189B1258001B180F33FF33254A9BB22A
:10FBC000642193420FD9244801F03AFE0823021C15
:10FBD0009A43DFD0214B9842DCD0214B9842D9D0B8
:10FBE000FBF714FCD6E71F4A934216D81E488342FF
:10FBF0001DD81E4A934225D81D4800218342E2D9D0
:10FC0000D31A5800C0181B49400008F095FE063072
:10FC1000C1B2D8E7FBF7FAFBC4E73A221648C83965
:10FC2000C01A504308F088FE6430C1B2CBE7A0216F
:10FC3000D31A5800C0184942C00008F07DFE2A308F
:10FC4000C1B2C0E71921C01A494208F075FE12304E
:10FC5000C1B2B8E7B70B0000542C002004300000FC
:10FC600001340000540B0000B40A000088090000B1
:10FC700034080000ACFEFFFFB80B000008B50B789D
:10FC8000002B00D008BD4B78012B11D0002B09D0E0
:10FC9000022BF7D11020FFF76BFB0028F2D0FBF707
:10FCA000B5FBEFE71120FFF763FB0028EAD0F6E78A
:10FCB0000D20FFF75DFB0028E4D0F0E710B50A281F
:10FCC0002FD022D90D2807D00E2804D11120FFF7FC
:10FCD0004FFB002816D110BD204B1B78002BFAD00B
:10FCE0001F4C20482378002B2FD1022102F0D8FF8F
:10FCF00000282ED01C4B9842EDD01C4B9842EAD0E5
:10FD00000528E8D0FBF782FBE5E70428E3D1154B93
:10FD100013211889FFF780FE0823021C9A43DAD0CA
:10FD2000F0E70020FFF724FB00280BD1FFF7BCFD14
:10FD3000002804D1FFF77EFE0028CCD0E2E7FBF7D5
:10FD400065FBF7E7FBF762FBF0E7002102F0A8FF95
:10FD5000CEE70123227853402370BCE7EC29002032
:10FD6000542A0020F429002004300000013400004F
:10FD700008B50B78002B07D0012B04D10848FBF7FE
:10FD800073FF002808D108BDF0210548890300222F
:10FD9000FBF7EEFE0028F6D0FBF738FBF3E7C04692
:10FDA000342C002008B50B78002B05D0022B02D193
:10FDB0000022084B1A7008BD0B1C074849889A8915
:10FDC00002F090FF002801D0FBF720FB0122014B3D
:10FDD0001A70F0E7EC290020F429002000B5037820
:10FDE00083B00E2B05D81B4A9B00D3589F4607F0C3
:10FDF00077F803B000BD80680028FAD0FBF706FB57
:10FE0000F7E7808807F0A4F81128F5D1F1E7002082
:10FE1000FBF7FCFAEDE742890F4B9A42E9D1012149
:10FE2000408807F04BF80AE0002301A90B704088D6
:10FE300007F052F8DDE7FDF72FFA0E28D9D0082396
:10FE4000021C9A43D5D0D9E7032001F089F9002894
:10FE5000CFD0D3E7189C02000610000008B50B783D
:10FE6000002B00D008BD4B78012B11D0002B09D0FE
:10FE7000022BF7D11020FFF77BFA0028F2D0FBF716
:10FE8000C5FAEFE71120FFF773FA0028EAD0F6E78A
:10FE90000D20FFF76DFA0028E4D0F0E708B5002840
:10FEA00007D0032804D10138FFF762FA00280DD1EA
:10FEB00008BD0020FFF75CFA00280AD1FFF7F4FC28
:10FEC000002809D1FFF7B6FD0028F1D0FBF79EFA14
:10FED000EEE7FBF79BFAF1E7FBF798FAF2E7C0468B
:10FEE000F0B55F4656464D464446F0B49DB0FDF72A
:10FEF00041FE002801D0FBF789FA00200721E04AE3
:10FF00000023FBF7A9FD002801D0FBF77FFADD48AD
:10FF10000121DD4AFBF712FE002801D0FBF776FA3B
:10FF20000320DA49DA4AFFF7EDFB002801D0FBF79E
:10FF30006DFA0EAC0020211CFFF720FD002801D037
:10FF4000FBF764FA802305AE5B010593301CD149B1
:10FF500048220023257808F09FFB002801D0FBF7FA
:10FF600055FA00200121221C08F000FC002801D0D5
:10FF7000FBF74CFAC84808F011FC002801D0FBF749
:10FF800045FA201C08F014FC002801D0FBF73EFACB
:10FF9000C24808F0BFFB002801D0FBF737FAC04881
:10FFA00008F0C2FB002801D0FBF730FA0020BD4961
:10FFB000FEF72AF9002801D0FBF728FA1C22BA48DC
:10FFC000037893431A1C182313430370FEF73CF97C
:10FFD000B6480121FEF750F9002801D0FBF716FAC8
:10FFE00006F002FF002801D0FBF710FA022D00D125
:10FFF000F9E100210522201CFBF70AF901238122E7
:020000022000DC
:100000002178201C1943114030220A437F210A40E5
:1000100022700722022162700932A270E2781A432C
:100020000A43E270227913430B43237106F034FF35
:10003000002801D0FBF7EAF99D4806F019FF0028D7
:1000400001D0FBF7E3F90F2101223378994D8B435F
:10005000134310220B401343281C337008F076FD25
:10006000291C82B2301CFFF7DFFC002801D0FBF70F
:10007000CDF990208000FFF7D3FC002801D0FBF7DA
:10008000C5F90822201C0021FBF7C2F8C822C823AA
:100090009200628000225B00201C2380A280E3800B
:1000A000FFF7C0FC002801D0FBF7B0F90820404260
:1000B000FFF7B4FC002801D0FBF7A8F90021382293
:1000C000201CFBF7A5F8022323700333E370013BE8
:1000D0002382794B012263610023A270F3603273A3
:1000E000273232618C327360B360B361F361336283
:1000F000726105930093201C0021321C6F4B00F0AD
:100100008BFF002801D0FBF781F96D4801F002FF59
:10011000002801D0FBF77AF900210322201CFBF70D
:1001200077F8F8230F2101222370637865488B4309
:10013000134320220B40134363700023211CA37040
:1001400002F09CFE002801D0FBF760F90021201C82
:100150000422FBF75DF85C4B5C48211C0E9302F017
:10016000AFFC002801D0FBF751F900210C22201C24
:10017000FBF74EF8564B0F200E930023012220214F
:100180002372637A534D8343134303400B436372DB
:10019000A37A656083431A4302400A434E48211CF8
:1001A000A27202F0EBFD002801D0FBF72FF900212D
:1001B0001422201CFBF72CF8484B0F210E9301232F
:1001C0002371002301221020A36064332373637B17
:1001D0008B4313430B4003436373A37B8B43134352
:1001E0000B400343A3730023E373237C8B431A4325
:1001F0001140014321743A48211C01F035FA0028CE
:1002000001D0FBF703F900210822201CFBF700F8BE
:100210000022344B34481A70344B211C0E93656015
:1002200002F008FD002801D0FBF7F0F81C22201C8A
:100230000021FAF7EDFFA02292026260F022002373
:100240001203A26003220E93E3816361284B2273A1
:10025000201C023A2274A36101F0BCFB002801D0EB
:10026000FBF7D4F82348FCF7A1FA002800D1C2E03C
:10027000FBF7CCF80023204DB380059345E0C04642
:1002800094270020D89C02004DFA0100CD0C0000FC
:10029000BDFC01000C2A0020E81F002065FA0100C7
:1002A00055FA01008DFB0100E4200020F029002018
:1002B000DDFD0100549C0200EC2000209DFE0100A9
:1002C00065FB0100282C00205DFE0100582A00205B
:1002D0007DFC01003DFA0100682A002071FD01004B
:1002E000542C0020542A0020F4290020A5FD0100F0
:1002F00045FA010075FB0100609C0200201CFCF720
:1003000061FF281C2168FDF75DFC40484049221C24
:10031000331CFCF7F5FF0028F0D0FCF7BDFF0028E8
:1003200001D0FBF773F83B4B03AF03930223BB8071
:10033000364B201C3380364B311C73800123776091
:100340003381FCF74DFC00285BD0FBF75FF8324BA4
:100350001A78002AFCD00023304805937360FDF71B
:1003600031FC2F4B9B462F4B9A462F4B98462748E4
:100370002749221C331CFCF7C3FF002827D1201C6F
:10038000391CFCF787FB002821D158462168FDF76E
:1003900019FC5046FDF716FC7B68002599463B6822
:1003A0005B88002B0BD04A46AB0099584046FDF7BE
:1003B00009FC3B6801355B88EDB2AB42F3D81B48C2
:1003C000FDF700FC201CFCF78BFB0028CFD003209E
:1003D00000F0C6FE002803D1FFF72EFB0028FBD05B
:1003E000FBF714F8F8E706F085FD002800D100E6D9
:1003F000FBF70CF8FDE5FCF7EBF9002800D037E738
:1004000038E70B480E99FDF7DDFBA0E7111100005E
:1004100022220000DC9C0200ED290020989C0200B2
:10042000B09C0200C89C0200D09C02006C9E02009E
:100430007C9C020071DF704772DF704779DF704784
:100440007DDF704765DF7047F0B50488051C83B019
:100450000720012C04D01488A01C984202D90C203B
:1004600003B0F0BD2E78012E04D16E780236361915
:10047000B342F4D3023B1C1B6B460F1CA4B20818FA
:10048000991D161CDC80FFF7DBFF0028E8D12B78D4
:10049000022B18D0012B11D0231C0821FE2BDED8F3
:1004A0003288581CB85432880020013292B232800F
:1004B000B954328801329B183380D1E76B789C4263
:1004C000EBD2231CE9E76B46DB8809219C42E5D28D
:1004D000231CE2E7F0B55F46564644464D46F0B46D
:1004E00085B09A460EAB80CB061C1B8800919B46BC
:1004F0003B88904601930388002B5BD000239946EC
:1005000002AB0024DD1C03E033880134A3422ADD62
:100510007368A1009C460422614403A808F00DFB07
:1005200003A8291C0022FFF78DFF002826D12B7875
:100530004345E9D14B46002B27D043463A88D31890
:100540005B4539DC524403A8291CFFF77BFF0028D8
:1005500014D13B882A780134D3183B800123994673
:100560003388A342D4DC4B46002B23D03B88019A2E
:10057000013B9B1A9BB20C20FF2B18D905B03CBC49
:1005800090469946A246AB46F0BD42463B889A1833
:1005900002325A4510DC69465246013309789BB253
:1005A0003B80D1543A88013292B23A80CAE7111C9A
:1005B000524653540020E1E70C20DFE7F0B55F46D8
:1005C00056464D464446031C0020F0B41788108060
:1005D000586B87B0002800D16FE10478022F18D93A
:1005E0000220112508701088013080B210800D544F
:1005F0001088013080B210800C5414880134A4B2E9
:100600001480186B002800D177E0251C1235BD42FC
:1006100007D90C2007B03CBC90469946A246AB4691
:10062000F0BD11250D551488013D0134A4B214808C
:100630000D5514880134A4B21480C57B0D5514885F
:100640000134A4B21480857B0D5514880134A4B202
:100650001480457B0D5514880134A4B21480057BA9
:100660000D5514880134A4B21480C57A0D55148830
:100670000134A4B21480857A0D5514880134A4B2D3
:100680001480457A0D5514880134A4B21480057A7B
:100690000D5514880134A4B21480C5790D55148801
:1006A0000134A4B2148085790D5514880134A4B2A4
:1006B000148045790D5514880134A4B2148005794D
:1006C0000D5514880134A4B21480C5780D551488D2
:1006D0000134A4B2148085780D5514880134A4B275
:1006E000148045780D5514880134A4B21480007824
:1006F000085514880134A4B214802E201D5C002DEE
:1007000000D0DCE01E1C2D23F35C151C8846002B5A
:1007100000D0F7E0B378002B00D024E1F378002B71
:1007200016D0E21CBA4200D973E702224146404685
:100730000A5501212A88013292B22A8081542A88DE
:10074000013292B22A8083542C880134A4B22C80C6
:100750007368002B16D01A78E31CBB4200D958E707
:100760000223414640460B550A212B8801339BB298
:100770002B80C1542B8801339BB22B80C2542B8811
:1007800001332B803389002B00D010E1338A002BFA
:1007900000D076E1338B002B00D08BE1336A002B45
:1007A0004AD02A880C20911DB94200D932E7198815
:1007B00005388B46052900D82CE7CC4C5C44A4B204
:1007C000A146CB4CA446A14500D823E75C88A246AD
:1007D000052C00D81EE7C54C6946A146D1444C46BD
:1007E000CC81CC89644500D814E7C24CA34504D021
:1007F000A24502D0D34500D90CE7052140468154DB
:100800002A880D31013292B22A8081542A8801321D
:1008100092B22A80198842441170090A51702A88BC
:10082000023292B22A805988131C43441970090A73
:1008300059702B8802332B80746A002C32D0A28826
:100840002988131D5B180C20BB4200D9E2E6931CDB
:10085000FE2B00D9DEE6434603325A54FF224146BE
:100860002B8801339BB22B80CA542B8801339BB257
:100870002B80228843441A70120A5A702B88023344
:100880009BB22B80A288002A0CD0A16805380029D1
:1008900000D1BFE64344181C08F04FF92A88A3880A
:1008A000D3182B802C23F35C002B00D098E03378F6
:1008B000002B00D0DEE00020ACE60024A1E6E61C20
:1008C0002238BE4200D9A5E602260E551C24108807
:1008D000013080B210800C541088013080B210803A
:1008E000022D00D10FE100D806E1032D00D108E16F
:1008F000042D00D0F7E003240C5414880134A4B272
:100900001480FFE609340C20BC4200D982E604A81A
:10091000FFF790FD002800D07CE6414608222B8896
:10092000CA542B88133201339BB22B80CA5402ABBA
:100930009C4609212888153A013080B228806144FC
:10094000404408F0FAF82B8802AA0633127A9BB2C8
:100950002B80002A00D001224146CA542C88013441
:10096000A4B22C80D6E604340C20BC4200D951E657
:1009700004A8FFF763FD002800D04BE603224146A0
:100980002B88CA542B88163201339BB22B80CA5451
:100990002B8802AA01339BB212892B8043441A7020
:1009A000120A5A702C880234A4B22C80B6E6341C89
:1009B000083400950197201C022102224346FFF7CC
:1009C00089FD002800D025E600950197201C06210E
:1009D00010224346FFF77EFD002800D01AE6D5E638
:1009E000B46A002C00D17EE0A3880233FE2B00D92C
:1009F0000FE6002291461632924616322888934618
:100A00000BE04B465C00B36A4C449C46A400644433
:100A1000A3880233FE2B00D9FBE542465146013341
:100A200013542B8801339BB22B80D1542B88013374
:100A30009BB22B80228843441A70120A5A7028886D
:100A4000023080B22880A288002A0AD0A16800293A
:100A500049D0404408F071F82888A388C01880B2B3
:100A600028804B460133DBB299465B46F35C4B452D
:100A7000C7D81CE7301C41462A1C3B1CFFF7E4FC8E
:100A8000C8E5341C103400950197201C0321022274
:100A90004346FFF71FFD002800D0BBE500950197F6
:100AA000201C072110224346FFF714FD002800D028
:100AB000B0E56FE6341C183400950197201C142112
:100AC00002224346FFF706FD002800D0A2E500956C
