:020000040001F9
:10C00000705500208DC4010095C4010097C4010043
:10C0100099C401009BC401009DC401000000000000
:10C020000000000000000000000000009FC40100AC
:10C03000A1C4010000000000A3C40100A5C40100C8
:10C04000A7C40100A7C4010061D00100A7C401007A
:10C05000A7C40100A7C40100A9CA010005CD0100C1
:10C06000A7C40100A7C40100A7C40100A7C4010020
:10C07000A7C40100A7C40100A7C40100A7C4010010
:10C08000A7C40100D1CC0100A7C40100A7C40100CE
:10C09000DDCD0100A7C40100E5CD0100A7C401006A
:10C0A000A7C40100A7C40100A7C40100A7C40100E0
:10C0B000A7C40100A7C401000000000000000000A8
:10C0C000A7C40100A7C40100A7C40100A7C40100C0
:10C0D000A7C40100A7C40100A7C40100000000001C
:10C0E0000000000000000000000000000000000050
:10C0F0000000000000000000000000000000000040
:10C10000000000000000000000000000000000002F
:10C11000000000000000000000000000000000001F
:10C40000DFF80CD000F084FA004800474D370200F6
:10C4100070550020401E00BF00BF00BF00BF00BF1E
:10C4200000BF00BF00BF00BF00BF00BF00BF00BF14
:10C4300000BF00BF00BF00BF00BF00BF00BF00BF04
:10C4400000BF00BF00BF00BF00BF00BF00BF00BFF4
:10C4500000BF00BF00BF00BF00BF00BF00BF00BFE4
:10C4600000BF00BF00BF00BF00BF00BF00BF00BFD4
:10C4700000BF00BF00BF00BF00BF00BF00BF00BFC4
:10C4800000BF00BF00BFC5D170470000064880470D
:10C4900006480047FEE7FEE7FEE7FEE7FEE7FEE7A9
:10C4A000FEE7FEE7FEE7FEE72DCE010001C4010036
:10C4B00040EA01039B0703D009E008C9121F08C026
:10C4C000042AFAD203E011F8013B00F8013B521EA6
:10C4D000F9D27047D2B201E000F8012B491EFBD21D
:10C4E00070470022F6E710B513460A46044619467F
:10C4F000FFF7F0FF204610BD30B50446002003468C
:10C5000000E05B1C934203D2E05CCD5C401BF8D0A2
:10C5100030BD30B50B46014600202022012409E041
:10C5200021FA02F59D4205D303FA02F5491B04FAEC
:10C5300002F52844151EA2F10102F1DC30BD2DE9FF
:10C54000F05F0546002092469B4688460646814697
:10C5500040241BE0284641464746224600F0F9F9B0
:10C5600053465A46C01A914110D3114618462246E6
:10C5700000F0E0F92D1A67EB01084F462246012032
:10C58000002100F0D7F917EB00094E41201EA4F15D
:10C590000104DFDC484631462A464346BDE8F09FA9
:10C5A0002DE9FE4F804681EA0300C00F0C46009043
:10C5B00021F0004123F00045B8EB0200A94105D26B
:10C5C0004046214690461C460B46024623F000405A
:10C5D000104347D0270DC7F30A00C3F30A51029056
:10C5E000401A019040286BDAC3F3130040F4801B1B
:10C5F0000098924620B10023D2EB030A63EB0B0BA9
:10C6000001985946C0F14002504600F093F90646A1
:10C610000D4650465946019A00F0ABF910EB080060
:10C620006141002487EA115284EAE7731A4340D03B
:10C63000009A62B3019A012A4FEA075215DC001BE7
:10C6400061EB02014FF0004202EA0752CDE90042DD
:10C65000001C41F5801132462B4600F0ABF903B0C7
:10C66000BDE8F08F40462146F9E7001B61EB02016F
:10C67000001C41F5801300185B412018A2F500173B
:10C6800047EB030140EAD570B6196D4111E06D0822
:10C690004FEA360645EAC0754FEA0752001B61EBC8
:10C6A0000201001C41F5801149084FEA30000019D1
:10C6B000514132462B4603B0BDE8F04F00F06BB954
:10C6C0000098012240000023D0EB020263EBE073EC
:10C6D000009821464FEAE074B8EB000061EB0401DA
:10C6E000E9E783F000435BE781F0004158E72DE97B
:10C6F000FE4F81EA030404F0004421F0004100945D
:10C700004FF0000B23F0004350EA01045ED052EAE0
:10C7100003045BD0C3F30A54C1F30A552C44A4F2BA
:10C72000F3340194A0FB0254C1F3130141F48011CE
:10C73000C3F3130343F4801301FB024400FB034ED5
:10C74000840A970A44EA815447EA8357A4FB07689E
:10C7500002958D0A05FB07854FEA932C04FB0C54C8
:10C760002705029D4FEA065847EA1637B5EB08053C
:10C770006EEB070C870E920E47EA811742EA83128E
:10C78000A7FB0201B6EB0B0164EB00042B0D43EA9F
:10C790000C335E1844EB1C50DA465146E7FB0201AD
:10C7A000C5F313044FEA0B3343EA14534FEA043240
:10C7B000019C43EA0603A4F10C040294009CCDE919
:10C7C00000B400F0F7F803B0BDE8F08F0020014698
:10C7D000F9E72DE9F04D81EA030404F0004B21F064
:10C7E000004514464FF0000A23F0004150EA0502CC
:10C7F00020D054EA01021DD0C5F30A570246C5F302
:10C800001303C1F31300C1F30A5640F4801543F437
:10C810008013A7EB0608101BD64608F2FD3873EB11
:10C82000050002D308F1010801E092185B41B8F15C
:10C83000000F03DA00200146BDE8F08D00204FF420
:10C840008011064684460EE0171B73EB050705D3DF
:10C85000121B63EB050306434CEA010C49084FEA3F
:10C86000300092185B4150EA0107EDD152EA030013
:10C8700012D082EA040083EA0501084305D0101BA8
:10C88000AB4106D20122002306E000224FF0004314
:10C8900002E06FF0010253101AEB06004CEB085156
:10C8A00010EB0A0041EB0B01BDE8F04D00F073B84E
:10C8B000C1F30A52C1F3130140F2FF3341F4801176
:10C8C0009A4202DA00200146704740F233439A420E
:10C8D000A2F2334202DC524200F03BB800F02AB828
:10C8E00030B5041E71F1000404DB4FF000444042F7
:10C8F00064EB0101141E73F1000405DB1C464FF0CC
:10C900000043524263EB0403994208BF904230BD9A
:10C91000064C074D06E0E06840F0010394E807008C
:10C9200098471034AC42F6D3FFF76EFD3C9A0200F4
:10C930005C9A0200202A04DB203A00FA02F100206F
:10C9400070479140C2F1200320FA03F3194390404D
:10C950007047202A04DB203A21FA02F000217047B8
:10C9600021FA02F3D040C2F1200291400843194657
:10C970007047202A06DBCB17203A41FA02F043EA3F
:10C98000E07306E041FA02F3D040C2F12002914088
:10C9900008431946704710B5141E73F1000408DAF5
:10C9A000401C41F1000192185B411A4301D120F073
:10C9B000010010BD2DE9F04D92469B4611B1B1FA30
:10C9C00081F202E0B0FA80F220329046FFF7B2FF27
:10C9D00004460F4640EA0A0041EA0B0153465A4614
:10C9E000084313D0114653EA010019D0C8F14002A0
:10C9F0005046FFF7AEFF05460E46504659464246A2
:10CA0000FFF798FF084305D0012004E0204639468F
:10CA1000BDE8F08D0020054346EAE0762C4337431D
:10CA20000A986305E40AA0EB08000022FD0A44EA24
:10CA300047540A3002D500200146E9E701051019E4
:10CA40006941DDE9084500196941BDE8F04DA2E7FB
:10CA500070B58C1810F8015B15F0070301D110F8C0
:10CA6000013B2A1106D110F8012B03E010F8016BED
:10CA700001F8016B5B1EF9D12B0705D40023521E70
:10CA80000DD401F8013BFAE710F8013BCB1A921CD8
:10CA900003E013F8015B01F8015B521EF9D5A142D6
:10CAA000D8D3002070BD00002DE9F04F87B00027DB
:10CAB000BA464FF4807006900125002412E00698D3
:10CAC00007F062FC40B100BF60480068284018B120
:10CAD000069807F04BFC2F436D000698001D80B2AE
:10CAE0000690641C082CEAD34FF4BE7007F04CFC8F
:10CAF00048B14FF4BE7007F039FC47F0004700BF63
:10CB0000534800688246F8B2F8B1012500241AE0C3
:10CB100005EA0700A8B100BF4E4850F82400C0F352
:10CB20000420064600BF4B4850F82400C0F30140E3
:10CB30008046204603F038FD814641463046C847CE
:10CB400000BF6D00641C082CE2D307F000400028F1
:10CB500079D04FF0000B00200590401E049000BFDC
:10CB60004FF0000B002457E03B48005D0390039812
:10CB700020F0C00638480057401C00284BD0012048
:10CB8000B04004990840002845D003984FEA901916
:10CB9000304603F051FD804603F006FD02900298F6
:10CBA00010B9B9F1030F35D1012000FA06F5B9F13A
:10CBB000030F02D105982843059000BF274850F87D
:10CBC0002600C0F3014800BF05EA0A0010B1B8F121
:10CBD000020F05D005EA0A00D8B9B8F1030F18D141
:10CBE000B9F1030F0FD1B8F1020F01D1032000E01A
:10CBF000022001903046019907F098FB0BF10100EB
:10CC000000F0FF0B00BF029818B149463046029A67
:10CC1000904700BF00BF641C042CA5D3BBF1000FDC
:10CC20000DD000BF0A4909680846504503D14FF0AE
:10CC3000000B03E007E082460599049100BFBBF1B9
:10CC4000000F8DD100BF07B0BDE8F08F0463004036
:10CC500010050050106500406830002000070050AB
:10CC600000F01F0201219140024A430942F82310BB
:10CC70007047000080E200E000F01F0201219140B7
:10CC80004209920002F1E022C2F800117047000050
:10CC900000F01F0201219140024A430942F823108B
:10CCA0007047000000E200E010B5002807DA4A07EC
:10CCB000140E054A00F00F031B1FD45403E04A076B
:10CCC000130E024A135410BD18ED00E000E400E01A
:10CCD00010B500200949086000210948C0F8441136
:10CCE000C0F84811C0F84C1100200549C1F80001F6
:10CCF00002493C3908600BF073FE10BD4011014041
:10CD000000100140FEB54FF4827007F097FB38B376
:10CD10004FF4827007F09CFB00208DF800002D4836
:10CD20004068019000BF2C48006880B2ADF8080050
:10CD30002848C06820B90020264981F827000AE069
:10CD40002448C068234948600846808A088100203A
:10CD5000C86007F08FFB1F4801686846884700BF1E
:10CD60004FF48A7007F06AFB40B14FF48A7007F005
:10CD70006FFB0020174981F827002AE01548056954
:10CD800024E0B5FA85F64FF00040F0408543B0004E
:10CD900000F58C74204607F051FBB8B1204607F02F
:10CDA00057FB01208DF80000A4F58C70C0F3C7007C
:10CDB0008DF80400A4F58C70012121EA90018DF812
:10CDC0000510044801686846884700BF002DD8D187
:10CDD00000BFFEBD703000203476004010B50BF06F
:10CDE00017FD10BD70B50B48006880B10948006898
:10CDF0008047044600BF25463DB100BF064A4FF4B8
:10CE0000B371284601F07BF900BF00BF01E005F0D7
:10CE100001FF70BD20220020E49902000148024970
:10CE2000086070470090D0033822002010B504F04D
:10CE300019F810B17D487E49486704F02BF828B1F5
:10CE40007C480068C0F342307B49086004F04CF82D
:10CE500028B17A48006820F080707849086004F0B2
:10CE60005BF848B10020764908604FF08041C1F876
:10CE700010017149091F086004F078F818B1032007
:10CE80006D496431086004F089F868B105206D4986
:10CE9000086001206B497831086000206949083139
:10CEA00008603F20091F086004F090F8002855D062
:10CEB00065480068654908606348001D0068091DF1
:10CEC0000860614808300068091D08605E480C3041
:10CED0000068091D08605C4810300068091D086082
:10CEE000594814300068091D086057481830006818
:10CEF00056492031086054481C300068091D0860FC
:10CF0000514820300068091D08604F4824300068EF
:10CF1000091D08604C4828300068091D08604A480F
:10CF20002C300068091D08604748303000684749C8
:10CF300040310860444834300068091D08604248A8
:10CF400038300068091D08603F483C300068091D02
:10CF500008603D4840300068091D08603748743853
:10CF6000006840F4700035497439086000BF00BFA4
:10CF700000BFBFF34F8F00BF00BF00BF00BF00BFA7
:10CF800000BFBFF36F8F00BF00BF00BF3048006815
:10CF900000F0004030B92E48001D006800F000404D
:10CFA000002840D001202B49086000BF2A480068B3
:10CFB0000028FBD015202649086000BF26480068DD
:10CFC0000028FBD015212248001D016000BF224827
:10CFD00000680028FBD000201E49086000BF1E48E2
:10CFE00000680028FBD000BF00BF00BF00BF00BF2B
:10CFF000BFF34F8F00BF00BF00BF1048F03800687C
:10D0000000F4E06015490843001D0C49F039086040
:10D0100000BF00BF00BFBFF34F8F00BF00BF00BF06
:10D0200000BF00BFFDE7FFF7F9FE10BD0DF0ADBA80
:10D0300000C00740440200103C050040FCED00E049
:10D040000C010040105600400404001020C50040B0
:10D050000012001004E5014000E401400000FA0560
:10D0600010B50448007F10B10BF096FF01E00BF003
:10D07000E3FE10BD9C300020014B024A00F0DCB8FA
:10D080005F1A02001822002002E008C8121F08C11F
:10D09000002AFAD170477047002001E001C1121F39
:10D0A000002AFBD1704700BFEFF31081084672B62B
:10D0B000704700002DE9FF5F82B00021DDE90430F8
:10D0C000020DDDF840B0034318D044F61050A2F230
:10D0D000FF3242431514119801281FD0A5EB0B0015
:10D0E000401C5FEA000A4FF000064E4FDFF838910F
:10D0F000B046504615D5CAF1000413E0119801243A
:10D100004AA3012801D16FEA0B010298119AC0E9E4
:10D110000031C0E9024206B0BDE8F09FCBF100004B
:10D12000DFE704460021404A491842EB0450CDE9AC
:10D13000001012E0E00707D032463B464046494621
:10D14000FFF7D5FA8046894632463B4610461946D7
:10D15000FFF7CDFA06460F466410002CEAD1DDE950
:10D160000401DDE90023BAF1000F06DAFFF7BFFA88
:10D1700042464B46FFF7BBFA05E0FFF72AFB424663
:10D180004B46FFF726FB04460E460022284BFFF7CE
:10D19000A7FB03D84FF0FF30014607E00022254BE4
:10D1A00020463146FFF7FCF9FFF782FB102409E027
:10D1B000002C0ADB0A220023FFF7C1F9039B30325F
:10D1C0001A55641E50EA0102F2D1641C039AC4F19C
:10D1D00011031444119A012A03D0012208430DD1EE
:10D1E0000AE0084304D000204FF0110B119072E7C1
:10D1F000A3EB0B056D1E0DE05B4504DD4FF0000257
:10D2000005F1010504E003DA4FF00002A5F1010584
:10D21000002AECD002981199C0E90231C0E900451A
:10D2200079E70000000014400000F03F30000000EB
:10D230000000F0430000E03F2DE9FF4F95B09B4612
:10D240008946064600250FE2252877D10024274687
:10D25000F84A0121059400E0044316F8013F203B01
:10D2600001FA03F01042F7D130782A2811D06FF07C
:10D270002F033078A0F13002092A16D8059A44F01D
:10D28000020402EB820203EB42021044761C05907A
:10D29000EFE759F8042B0592002A03DA504244F4D0
:10D2A0000054059044F00204761C30782E2816D1E4
:10D2B00016F8010F44F004042A280DD06FF02F0255
:10D2C0003078A0F13003092B09D807EB870302EB74
:10D2D0004303C718761CF3E759F8047B761C3078B3
:10D2E0006C280FD006DC4C2817D068280DD06A288F
:10D2F00014D104E0742810D07A280FD10DE044F442
:10D3000000140AE044F4801401E044F440147278FC
:10D31000824202D104F58014761C761C307866288F
:10D320000BD013DC582877D009DC002875D04528AD
:10D33000F6D04628F4D047281AD19DE118E063289A
:10D3400035D0642879D0652812D195E1702873D042
:10D3500008DC6728F1D069286FD06E280DD06F28BF
:10D3600006D1B5E073282CD0752875D0782874D0F4
:10D370005A46179990476D1C75E1C4F30250022874
:10D3800009D003280DD0D9F8001004280DD00D6065
:10D3900009F1040967E1D9F80010EA17C1E9005260
:10D3A000F6E7D9F800100D80F2E70D70F0E719F8F4
:10D3B000041B8DF8001000208DF80100EA460120C2
:10D3C00003E059F804AB4FF0FF3061074FF0000164
:10D3D00002D40DE008F101018846B9420FDA804518
:10D3E000F8DB1AF808100029F4D108E008F101016F
:10D3F00088468142FADB1AF808100029F6D1059810
:10D400005B46A0EB080721463846179A00F094FACD
:10D41000284400EB080507E04DE029E10DE01AF88B
:10D42000010B5A4617999047B8F10108F7D25B46AD
:10D4300021463846179A13E142E00A220092C4F3CB
:10D4400002524FF0000A022A08D059F804CB032AEE
:10D450004FEAEC710AD00DE029E02AE009F107015A
:10D4600021F00702F2E802C1914609E00FFA8CFCB4
:10D470004FEAEC71042A03D14FFA8CFC4FEAEC71AD
:10D48000002907DA0A460021DCF1000C61EB0201F9
:10D490002D2202E0220504D52B228DF80420012242
:10D4A00003E0E20701D02022F7E7904659E00A2185
:10D4B00002E010220DE010214FF0000A00910BE075
:10D4C00010224FF0000A44F004040827009203E001
:10D4D00008224FF0000A0092C4F30252022A05D03B
:10D4E00059F804CB0021032A08D009E009F107010B
:10D4F00021F00702F2E802C1914605E01FFA8CFC18
:10D50000042A01D10CF0FF0C4FF00008220728D5A7
:10D51000702806D0009B83F0100353EA0A0305D05D
:10D520000EE040228DF80420012208E05CEA0102AE
:10D5300006D030228DF804208DF805000222904696
:10D54000009B83F0080353EA0A030AD15CEA010254
:10D5500001D1620705D530228DF804204FF0010873
:10D560007F1E582804D034A003900EA802900DE02E
:10D5700036A0F9E753466046009AFEF7E0FF84467E
:10D580000398825C0298401E029002705CEA0100DF
:10D59000F0D1029806A9081A00F1200A600702D506
:10D5A00024F4803400E00127574502DDA7EB0A0090
:10D5B00000E0002000EB0A01009005984144401A69
:10D5C0000590E00306D45B462146179A059800F0C3
:10D5D000B3F90544002706E001A85A46C05D179933
:10D5E00090476D1C7F1C4745F6DBE0030CD55B467E
:10D5F0002146179A059800F09FF9054404E0302071
:10D600005A46179990476D1C0099481E00900029B2
:10D61000F5DC08E0029802995A460078491C02910C
:10D62000179990476D1CBAF10001AAF1010AF1DCCB
:10D6300065E10000092801003031323334353637D6
:10D64000383961626364656600000000303132334E
:10D6500034353637383941424344454600000000EE
:10D6600000F058F90544761C307800287FF4ECADC2
:10D6700019B02846BDE8F08F620700D4062709F1EB
:10D68000070222F0070CFCE80223E14603F0004801
:10D690005FEA080C02D00FF2702C0DE05FEA045C28
:10D6A00002D50FF2682C07E05FEAC47C02D00FF2CB
:10D6B000602C01E0AFF2700C4FF0FF3823F0004314
:10D6C000CDF850C065280CD006DC452809D0462886
:10D6D0001DD047283DD13DE0662818D067287ED16F
:10D6E00038E00021112F01DB112000E0781CCDE98A
:10D6F000000106A90EA8FFF7DDFCDDE90F010E9A77
:10D7000003910021009207F1010A04914DE04FF0CE
:10D7100000400097CDE9011006A90EA8FFF7CAFC4A
:10D72000DDE90F0203920E9B11990022DDF80CA097
:10D730000093049211B9791C00EB010AB7EB0A00BF
:10D7400004D4C0F1FF3007F1010A0490AAEB0700EE
:10D75000019044E0012F00DA01270021112F01DDA3
:10D76000112000E03846CDE9000106A90EA8FFF718
:10D77000A1FCDDE90F010E9A0391002104910092B2
:10D78000BA4621070CD40399514500DA8A46BAF10A
:10D79000010F05DD009AAAF10101515C302908D082
:10D7A000B84202DA10F1040F06DA0121CDE90110C6
:10D7B00015E0AAF10101E9E7002805DC049901441C
:10D7C0000491AAEB000102E0411C514500DD8A46AC
:10D7D0000499401A401C01904FF00040029020072D
:10D7E00004D40198504501DBCDF8048000208DF869
:10D7F0004F0002980DF14F07B0F1004F25D02B20BC
:10D800000E9002984FF0020800280CDA4042029075
:10D810002D200E9007E00A210298FEF77AFE3031A3
:10D82000029007F8011DB8F10001A8F10108F2DC2F
:10D8300002980028EFD1791E0E980870307800F019
:10D84000200040F0450007F8020D12A8C01B00F1AF
:10D8500007081498007800B1012000EB0A01019834
:10D8600001EBE07105984144401A401E0590E00329
:10D8700006D45B462146179A059800F05DF80544EA
:10D880001498007818B15A46179990476D1CE00318
:10D8900024D55B462146179A059800F04DF80544BB
:10D8A0001CE00498002807DBDDE90301884203DD62
:10D8B0000098405C179901E0179930205A4690472C
:10D8C000049805F10105401C04900198401E019048
:10D8D00004D12E205A46179990476D1CBAF10001C9
:10D8E000AAF1010ADDDC05E017F8010B5A46179989
:10D8F00090476D1CB8F10001A8F10108F4DC5B460B
:10D900002146179A0598ABE62D0000002B00000079
:10D91000200000002DE9F041044600251E46174670
:10D92000880404D405E039462020B0476D1C641EED
:10D93000F9D52846BDE8F0812DE9F04104460025DF
:10D940001E469046C80301D5302700E020278804F2
:10D9500004D505E041463846B0476D1C641EF9D534
:10D960002846BDE8F08100007CB52549002006F07E
:10D9700015FA044600BF25463DB100BF21A240F282
:10D98000C311284600F0BBFB00BF00BF214903C9FB
:10D99000CDE900016946002006F0D4F9044600BF35
:10D9A00025463DB100BF17A240F2C711284600F03E
:10D9B000A6FB00BF00BF0121174806F07DF9044611
:10D9C00000BF25463DB100BF0EA24FF4E5712846C9
:10D9D00000F095FB00BF00BF01210F48801C06F03E
:10D9E0006BF9044600BF25463DB100BF05A240F2D9
:10D9F000CD11284600F083FB00BF00BF7CBD0000B6
:10DA00002D7602002E2E5C2E2E5C2E2E5C6D616912
:10DA10006E2E6300B89702009420002070B5054672
:10DA20000C4605B10CB9002070BD287821788842D9
:10DA300001D00020F8E70622611C681CFEF75CFD9F
:10DA400008B90120F0E70020EEE7000010B5044619
:10DA50006CB108480068A04209D806484068A04256
:10DA600005D3204605F012FA08B1012010BD0020B0
:10DA7000FCE700003C2200202DE9FC4104468846DA
:10DA800016460025378800203080606B68B1616BD6
:10DA900008783B463246414609F0D8FF054600BFAC
:10DAA00015B12846BDE8FC8100BF206B58B13B464C
:10DAB00032464146206B0BF01DF8054600BF0DB104
:10DAC0002846EFE700BF94F82E0060B194F82E00CE
:10DAD0003B463246414605F0E1F9054600BF0DB12F
:10DAE0002846DFE700BF94F82D0050B13A46314692
:10DAF000404601F06BFD054600BF0DB12846D1E759
:10DB000000BFA07850B13A463146404600F0EAFCEA
:10DB1000054600BF0DB12846C4E700BFE07860B1FC
:10DB2000E17848B23B463246414603F019FF0546CC
:10DB300000BF0DB12846B5E700BF606868B16168F5
:10DB400091F900003B46324641460BF0C5F80546C8
:10DB500000BF0DB12846A5E700BF208900280EDDD3
:10DB600043460622022104F10800CDE900670BF0CC
:10DB700081FB054600BF0DB1284693E700BF208A10
:10DB800000280EDD43460722032104F11000CDE9F1
:10DB900000670BF06FFB054600BF0DB1284681E71B
:10DBA00000BF208B00280EDD43461522142104F10E
:10DBB0001800CDE900670BF05DFB054600BF0DB115
:10DBC00028466FE700BF206A58B13B4632464146BF
:10DBD000206A02F062FE054600BF0DB1284661E7EB
:10DBE00000BF606A58B13B4632464146606A05F064
:10DBF00027FE054600BF0DB1284653E700BF94F845
:10DC00002C0000280BDD3B463246414620460AF0F8
:10DC100007F9054600BF0DB1284643E700BF20784D
:10DC200058B13B4632464146204605F057FE054670
:10DC300000BF0DB1284635E700BF284632E7014650
:10DC4000C87800F0040008B9072070470020FCE7FE
:10DC500010B501220221002002F0A8F8044600BFFE
:10DC60001CB1072C01D0204610BD00BF07220221A5
:10DC7000012002F09BF8044600BF1CB1072C01D024
:10DC80002046F1E700BF0A220021084602F08EF884
:10DC9000044600BF1CB1072C01D02046E4E700BFBA
:10DCA0000020E1E730B599B038210BA8FEF719FC48
:10DCB00002208DF82C0001208DF82E0005208DF813
:10DCC0002F000420ADF83C0011491091242102A836
:10DCD000FEF707FC01208DF8140028200690B420E0
:10DCE000079000200B4B02AA014600900BA800F001
:10DCF0002BFF044600BF25463DB100BF06A240F2FF
:10DD00006621284600F0FBF900BF00BF19B030BD06
:10DD100084200020314502002E2E5C2E2E5C2E2EFB
:10DD20005C6D61696E2E630070B5032001F074F8BC
:10DD3000044600BF25463DB100BF04A240F2C241E7
:10DD4000284600F0DCF900BF00BF70BD2E2E5C2E0F
:10DD50002E5C2E2E5C6D61696E2E6300F0B58DB069
:10DD600004460D461646002005E0C0F10F01615C37
:10DD700001AA1154401C1028F7D30D2105A8FEF765
:10DD8000B0FB002005E02A5CC0F10F0305A9CA54CE
:10DD9000401C0328F7D301A84DDF0746002005E00B
:10DDA000C0F10F0209A9895C3154401C0328F7D344
:10DDB0000DB0F0BD10B590B004461C2109A8FEF7C7
:10DDC00090FB9DF8240020F00400001D8DF8240035
:10DDD00000200A900C900D900E900F9000BF012033
:10DDE0008DF80E0042F60620ADF80C0000BF0020B2
:10DDF000029000BF9DF8080020F00F008DF8080089
:10DE00009DF8080020F0F0008DF8080000BF00BF6A
:10DE10009DF8090020F00F00401C8DF809009DF8C6
:10DE2000090020F0F00020308DF8090000BF9DF8B7
:10DE30000A0020F00600801C8DF80A009DF80A00F8
:10DE400020F008008DF80A009DF80A0020F010006C
:10DE50008DF80A009DF80A0020F001008DF80A00F4
:10DE6000142104A8FEF73DFB0020019003A80490B4
:10DE700002A805900120ADF818000020ADF81A00A6
:10DE80000120ADF81C0001A80890A088A31D04AAD9
:10DE900009A9A2DF10B010BD30B58FB005460C4601
:10DEA0001C2108A8FEF71DFB9DF8200020F00200B1
:10DEB000801C8DF820009DF8200020F0080008301C
:10DEC0008DF82000002009900B900C900D900E9082
:10DED00000BF01208DF80A0042F60620ADF80800C8
:10DEE00000BF00200190607A8DF80400A07A8DF8C0
:10DEF00005009DF8060020F00600801C8DF8060045
:10DF00009DF8060020F008008DF806009DF8060038
:10DF100020F010008DF806009DF8060020F00100AA
:10DF20008DF80600142103A8FEF7DBFA207A009092
:10DF300002A8039001A804900120ADF8140000206D
:10DF4000ADF816000120ADF81800CDF81CD02889D6
:10DF500005F10A0303AA08A9A2DF0FB030BD000033
:10DF600070B5054625B1012D13D0022D33D121E026
:10DF7000112001F049FF044600BF26463EB100BF14
:10DF800016A240F21231304600F0B9F800BF00BFCF
:10DF900022E00D2001F038FF044600BF26463EB1C6
:10DFA00000BF0EA240F21731304600F0A8F800BFC3
:10DFB00000BF11E0102001F027FF044600BF2646F5
:10DFC0003EB100BF05A24FF44771304600F097F80C
:10DFD00000BF00BF00E000BF00BF70BD2E2E5C2E52
:10DFE0002E5C2E2E5C6D61696E2E6300014600BFB3
:10DFF000064A10684FF400228243044B1B1D1A602E
:10E0000000F400221B1D1A6000BF70470405005079
:10E0100010B5002407E00749096811F83400012110
:10E0200005F040FD641C044800788442F3D30020CE
:10E0300010BD0000BC210020C02100202DE9F843C4
:10E0400006460C461746052F02D20720BDE8F88386
:10E0500005F028FE38B905F0FBFD054600BF0DB1FF
:10E060002846F3E700BF16480660164804701648B5
:10E0700007600020154908601549086015E006EBA7
:10E08000C40814480068009098F802008DF8010058
:10E0900098F80000104A694605F060FD054600BF8B
:10E0A0000DB12846D2E700BF00BF201EA4F1010138
:10E0B000CCB2E4D1094A0021094800F0A7F8C5E72D
:10E0C000BC210020C0210020C4210020C821002044
:10E0D000CC210020B898020039230200150C020060
:10E0E000B498020070B504460D4616460C2001F0A7
:10E0F0008BFE32462946204600F012F870BDFEB570
:10E1000004460E461546B0B2ADF8000001950294E3
:10E110006A46002144F20100FFF7E4FFFEBD000063
:10E1200018B5012300939DF800301E4B186059600C
:10E130009A606FF48043034463B1012B19D1194BEA
:10E14000DA60DB681B88174CA3612346DB685B68D9
:10E15000E3610EE0134B1A611B699B68114C63610C
:10E1600023461B691B88A36123461B695B68E36127
:10E1700000BF00BF0B4B1B680A4B5B68094B9B68D9
:10E18000084BDB68074B1B69064B5B69054B9B69BA
:10E19000044BDB6972B600BF9DF80030002BFBD149
:10E1A00062B618BDB431002070B504460D46204655
:10E1B00003F03DFB28B12946204603F027FB002051
:10E1C00070BD0520FCE7034609B90E20704712B167
:10E1D000501E104008B10920F8E71960501E9880C1
:10E1E00000209860D86000BFF0E770B504460D4687
:10E1F000204603F01CFBA188884205D8294620460A
:10E2000003F023FB002070BD0420FCE710B503469B
:10E210000C4600BF0B48006808B9082010BD00BFBD
:10E220000AB90720FAE70BB90720F7E71868007C5E
:10E2300008B10820F2E71968002008744C744A619C
:10E2400000BFEBE7D42100202DE9F04180460E46C7
:10E2500014461F46204600F0030109B9012100E0E1
:10E26000002111B90720BDE8F08124B900201D4923
:10E2700008600720F7E709F061F91B4807600320F1
:10E280001A49087017480460183400250DE0154934
:10E29000096801EBC500002101704170867044607F
:10E2A00006EB460104EBC1046D1C032DEFDB0020DF
:10E2B0000F4908600F4908700F4908701420FEF7D5
:10E2C000CFFC06211420FEF7EFFC1420FEF7D4FC4F
:10E2D000404609F009F909F001F9084908600020F1
:10E2E000C1E70000D4210020EC210020D021002033
:10E2F000D8210020E8210020E9210020DC21002095
:10E300002DE9F84304460D461746264600BF11483E
:10E31000006810B90820BDE8F88300BF0CB90820D8
:10E32000F9E7052D01D20720F5E7706908B9082043
:10E33000F1E7707C012801D1284600E000208046EA
:10E340000AF052FF814643462A46314600970AF0BA
:10E35000F9FAE0E7D421002070B50446254600BF55
:10E360000948006808B9082070BD00BF0CB1686991
:10E3700008B90820F8E7002028740AF035FF06469F
:10E3800029460AF00DFBEFE7D42100202DE9F041EA
:10E3900088B004460D4617469846294807601DB9BF
:10E3A000072008B0BDE8F081A88882B22548296816
:10E3B000FFF709FF064600BF0EB13046F1E700BF88
:10E3C000A88982B22048A968FFF7FDFE064600BF73
:10E3D0000EB13046E5E700BF20221C496846FEF733
:10E3E00067F8A0680690207908B1012000E00020BD
:10E3F0008DF814008DF81C80607908B10E2000E0C3
:10E4000000208DF81500E0780290A0780390207825
:10E410000190607800900E49684605F00FFD0646B1
:10E4200000BF0EB13046BCE700BF9DF81D0008B923
:10E4300005F0CEFD0121074805F072FDB1E70000AF
:10E440008C210020F82F0020083000207098020056
:10E45000798D02009121002070B5044621460A48BA
:10E46000FFF7C3FE054665B905F018FF48B907492F
:10E470000548FFF799FE20B90121044805F06CFE1C
:10E480000546284670BD000008300020902100207D
:10E4900010B50446204609F091F910BD70B5044648
:10E4A00025460E488068B0B1ADB9FEF7FCFD0646C2
:10E4B0000A4800680A490860084840684FF0E021AF
:10E4C000C1F804010020054988601EB900BF62B68A
:10E4D00000BF00BF00BF00BF70BD0000603500205E
:10E4E00000E100E0F8B505460C4617462088001DFF
:10E4F000B84201D90C20F8BD684679DF064600BF56
:10E500000EB13046F7E700BF032021886854208809
:10E51000401C20801920218868542088401C2080BD
:10E5200020884119BDF800000AF0CCFD218808447C
:10E5300020800020DFE7000010B50446206805F0C9
:10E5400007FF206805F0E5FE0021606805F0D4FEB5
:10E550002548007F18B3A0692449086000BF607D8A
:10E56000217D40EA0102224BC3F86C2500BF18460A
:10E57000D4E9001205F0D4FF207D012832D100211A
:10E58000A06805F0B9FEE06805F0E2FEE06805F07D
:10E59000C0FE1748D4E9022105F0AEFF22E0A069D1
:10E5A0001249086000BF607D217D40EA0102104BE6
:10E5B000C3F86C2500BF1846D4E9001205F087FFA8
:10E5C000207D01280ED10021A06805F095FEE068AD
:10E5D00005F0BEFEE06805F09CFE0548D4E9022186
:10E5E00005F05EFF10BD00009C3000202425004097
:10E5F0000020004030B58BB01349487900F0F6FE9A
:10E600000546284609F00EF9D8B101A800F02EFE03
:10E61000142201A906A8FDF74BFF00240DE00A4AC9
:10E62000517907AA32F8140000F0EEFE20B107A9D4
:10E6300031F8140004F062FF641C0698A042EED882
:10E6400000BF0BB030BD00000421002010B504460F
:10E65000637903F003022179208804F0BBFD10BD2B
:10E6600010B50446207918B9204600F007F803E0F9
:10E670002046FFF7EBFF00BF00BF10BD2DE9F041C2
:10E6800088B004460025208800F082FE07462088D6
:10E6900004F0B8F90646A0680790607A0690244A0C
:10E6A000517B2088002200F0C1FE17B908B0BDE8F8
:10E6B000F0816079C0F3800090B10721304607F007
:10E6C00021F90546BDB108208DF800002088ADF87D
:10E6D0000200ADF804600295684602F025FD0AE0EC
:10E6E000134AD17B208800F08FFE20B1304604F021
:10E6F00069F9804600BF03208DF80C002088ADF832
:10E700000E006079C0F380008DF81000A079C0F38E
:10E7100080018DF811109DF81C108DF812109DF8D5
:10E7200018108DF8131003A802F0FEFC00BFBDE71F
:10E730001C21002030B585B014216846FDF7D1FEBC
:10E740002D48009001208DF80400002002906420E4
:10E750008DF80C0000BF9DF80D0020F00F00401C4C
:10E760008DF80D009DF80D0020F0F00010308DF8B0
:10E770000D0000BF00BF9DF80E0020F00F00401CF0
:10E780008DF80E009DF80E0020F0F00010308DF88E
:10E790000E0000BF00BF9DF80F0020F00F018DF8A4
:10E7A0000F109DF80F0020F0F0018DF80F1000BF42
:10E7B00000BF9DF8100020F00F00401C8DF81000E5
:10E7C0009DF8100020F0F00010308DF8100000BF10
:10E7D00069460A4800F0AAFC044600BF25463DB140
:10E7E00000BF07A240F2B6212846FFF788FC00BF11
:10E7F00000BF05B030BD000099450200282400206C
:10E800002E2E5C2E2E5C2E2E5C6D61696E2E6300AA
:10E81000F0B591B004460D46207DD8B10020099096
:10E8200000BF9DF8240020F00F00401C8DF824004C
:10E830009DF8240020F0F00010308DF8240000BF77
:10E84000687B8DF825009DF8260020F00600801CCE
:10E850008DF826001C210AA8FDF743FE9DF828002C
:10E8600020F00200801C8DF82800207D08B10120D6
:10E8700000E000209DF8281060F304118DF82810A6
:10E8800000200B900D900E90207D08B109A800E0AB
:10E8900000200F900020109000BF01208DF80E0086
:10E8A00042F61920ADF80C0000BF00200290A87BB2
:10E8B0008DF80800E87B8DF809009DF80A0020F02B
:10E8C0000600801C8DF80A009DF80A0020F0080060
:10E8D0008DF80A009DF80A0020F010008DF80A005B
:10E8E0009DF80A0020F001008DF80A00287B0190B5
:10E8F000142104A8FDF7F5FD03A8049002A80590D3
:10E900000120ADF818000020ADF81A000120ADF884
:10E910001C0001A80890A088A31D04AA0AA9A2DFD0
:10E92000064616B1304611B0F0BDA868002855D093
:10E9300000BF01208DF80E0042F60810ADF80C0063
:10E9400000BF00200290287C8DF8080000BF9DF8D1
:10E95000090020F00F008DF809009DF8090020F053
:10E96000F0008DF8090000BF9DF80A0020F00600B5
:10E97000801C8DF80A009DF80A0020F008008DF830
:10E980000A009DF80A0020F010008DF80A009DF89A
:10E990000A0020F001008DF80A006846A96800F01E
:10E9A000BBFF0746142104A8FDF79BFD03A80490B4
:10E9B00002A80590ADF818700020ADF81A00BDF857
:10E9C0001800ADF81C00CDF820D0E08804F10E024C
:10E9D00004A9A3DF06461EB13046A4E70020E0816B
:10E9E0000020A0E7014640F6B832914201DB6420E6
:10E9F00045E040F6543291420BDD40F6B832521AEF
:10EA00003A235A43642392FBF3F2C2F16402D0B278
:10EA100035E040F6B42291420CDD40F65432521AF1
:10EA200002EB4202D200A02392FBF3F2C2F12A02CF
:10EA3000D0B224E040F6881291420DDD40F6B422B7
:10EA4000521A02EB420292004FF4967392FBF3F2D9
:10EA5000C2F11202D0B212E040F6340291420DDD52
:10EA600040F68812521A02EB420252004FF4AA7387
:10EA700092FBF3F2C2F10602D0B200E00020704730
:10EA800070B5064605F0CAF9044600BF25463DB1FB
:10EA900000BF04A24FF4F1712846FFF730FB00BF1E
:10EAA00000BF70BD2E2E5C2E2E5C2E2E5C6D61691B
:10EAB0006E2E63002DE9F04192B080460D461F2076
:10EAC00011901090B8F1000F17D04046FFF7B7F83B
:10EAD000044600BF1CB1204612B0BDE8F08100BF63
:10EAE00011AA08A94046FEF7C7FF044600BF0CB1B3
:10EAF0002046F1E700BF08AE02E00026002011909A
:10EB0000ADB1284609F0F4FD044600BF0CB1204623
:10EB1000E2E700BF10AA69462846FEF7ADFF0446AB
:10EB200000BF0CB12046D7E700BF6F4602E00027C8
:10EB300000201090BDF84000C3B2BDF84400C1B23F
:10EB40003A46304672DFC7E72DE9F04704460F46E4
:10EB500015461E46DDF8208000BF14B90E20BDE822
:10EB6000F08700BF00BF0DB90E20F8E700BF0020FE
:10EB700046490870464806604648C0F8008024228E
:10EB800029464548FDF794FC00F03EF943484449C6
:10EB900008604448886038214348FDF7A2FC20788B
:10EBA00041490870A0788870E078C8706078487033
:10EBB0000846D4E90412C0E90412D4E90212C0E9FB
:10EBC0000212D4E90612C0E90612606AD8B13748C9
:10EBD0003549486236498160606A00883249496A2D
:10EBE0000880606A80883049496A8880002005E092
:10EBF000616A8968095C2E4A1154401C2A49496A95
:10EC000089888142F4D8A06A20B32A492A488160C1
:10EC10002549886227492448806A8160A06A8088E3
:10EC20002149896A8880A06A00881F49896A08800A
:10EC3000002005E0A16A8968095C1E4A1154401C45
:10EC40001949896A89888142F4D894F82C001649B8
:10EC500081F82C00206A58B1184813490862206ACC
:10EC60004088096A4880206A00880F49096A08803C
:10EC7000606820B112480C494860606848603946B5
:10EC80000948FFF717FF8146484668E7D020002073
:10EC9000C8200020CC200020BC270020F027002026
:10ECA000E0270020102800208427002030280020A2
:10ECB0003C280020682800205C280020D420002068
:10ECC000D820002070B504462088102804D01128D0
:10ECD00009D01B2863D11BE0A07D012802D1A088A8
:10ECE000304908805CE000202F490870A0882D4939
:10ECF000098888420BD1012000F08EF8054635B115
:10ED00002A48006818B1284628490968884747E01A
:10ED1000207A002842D126480078012806D002280F
:10ED200011D003281CD0042836D129E0022000F09D
:10ED300073F8054635B11D48006818B128461B49CF
:10ED40000968884729E0032000F066F8054635B1D8
:10ED50001648006818B128461449096888471CE01D
:10ED6000032014490870042000F056F8054635B118
:10ED70000E48006818B128460C49096888470CE01D
:10ED800000200C4908700C48006820B10846007843
:10ED900009490968884700E000BF00BF00E000BFE4
:10EDA00000BF70BDDA200020D1200020CC20002040
:10EDB000D0200020C4200020C820002070B50446C8
:10EDC0000025022C02D0032C15D100E000BF0B4817
:10EDD000007878B10020094908700948007800F0EF
:10EDE0001BF8054635B10748006818B128460549A3
:10EDF0000968884700E000BF00BF70BDBC2000204C
:10EE0000D0200020CC200020024800210160818019
:10EE100081717047BD20002030B587B00546954808
:10EE2000057002F001FE28B101209349087000200E
:10EE300007B030BDFFF7E8FF9048407818B18D4823
:10EE4000007801280DD08D48807818B18948007865
:10EE5000012806D08948807888B186480078022841
:10EE60000DD18748006838B1012086490870082014
:10EE700083490968884702E00020824908707D487C
:10EE80000078012809D17D48407818B17E4807F004
:10EE9000D1F910B902207749087076480078022825
:10EEA00009D17648807818B1774807F0C3F910B9CE
:10EEB0000320704908707148007B30B96D480078B4
:10EEC000032802D104206B4908706C48007E40B9C9
:10EED00068480078042804D10020664908706B490E
:10EEE000087067480068A8B162480078032803D01A
:10EEF0006048007804280DD16048007850B164481B
:10EF0000007838B901206349087007205C49096816
:10EF1000884702E000205F490870182101A8FDF72A
:10EF2000E0FA00208DF8040002908DF80C000490A7
:10EF300050480078012806D0022813D0032825D095
:10EF4000042876D150E05048401E029001208DF8F0
:10EF500004000020ADF81600ADF8140001204B4964
:10EF6000087071E04848401E029001208DF80400AE
:10EF70004248008980B2ADF816004048808880B2CF
:10EF8000ADF814000220414908705DE03B48808ADA
:10EF900080B2ADF816003948008A80B2ADF814008E
:10EFA0003D480AF0FCF9D8B134480078C0B138487F
:10EFB0000078A8B902208DF80C003748049004208E
:10EFC0003649C87000213548FFF774FD044600BF7C
:10EFD0000CB120462CE700BF05202C49087002E048
:10EFE00003202A4908702FE02448808B80B2ADF8B6
:10EFF00014002248008C80B2ADF8160026480AF0B2
:10F00000CEF9E0B11D480078C8B121480078B0B908
:10F0100002208DF80C002048049004201F49C8707D
:10F0200000211E48FFF746FD044600BF14B12046EC
:10F03000FEE608E000BF06201449087002E0042044
:10F040001249087000E000BF00BF0A48007838B1DC
:10F0500001A873DF044600BF0CB12046E8E600BFFC
:10F060000748006820B109480078054909688847C1
:10F070000020DDE6D0200020BC200020BC2700209E
:10F08000C8200020D3200020BE200020C420002063
:10F09000D1200020D2200020E0270020842700205B
:10F0A00033B587B0044614B90E2009B030BD002531
:10F0B000207C9DF82010884236D0002005900690D4
:10F0C0000120ADF814000020ADF8160008A8069045
:10F0D000E188608A05AAA4DF05461DB99DF82000D5
:10F0E000207401E02846E0E7608A4FF6FF7188420D
:10F0F00019D0207DB8B100200190029003900490B7
:10F10000E088ADF8040001208DF80600BDF8160077
:10F11000ADF8080005A8039006980490608A01A93C
:10F12000A6DF054600E008252846BEE7F8B50446F8
:10F130000D4604B10DB90E20F8BD286820604FF6C9
:10F14000FF70608228792075FF20207400BF0120A5
:10F150008DF8020041F60F00ADF8000000BF221D3F
:10F1600069460120A0DF06460EB13046E4E7294695
:10F170002046FFF74DFBDFE770B505460C4605B1AD
:10F1800004B970BD2088102804D0112807D0502859
:10F190000FD109E02146284605F09CFB0AE02146F4
:10F1A000284605F045FC05E02146284605F0FAFD15
:10F1B00000E000BF00BF00BFE3E7000070B50546F8
:10F1C0001C2229461248FDF773F9002011490870E6
:10F1D000286850B1104829680A680260496841608F
:10F1E0007ADF04463CB1204670BD0B487BDF044605
:10F1F0000CB12046F8E74FF6FF7008490880002060
:10F2000007490870074A00210748FEF7FFFFEBE7B0
:10F2100088280020F0200020DC200020E6200020AC
:10F22000E4200020299102000898020010B504464D
:10F230002088102806D0112808D012280ED0502877
:10F2400010D107E0204605F049FB0CE0204605F010
:10F25000F3FB08E0204605F0CBFD04E0204605F076
:10F260002DFB00E000BF00BF10BD000010B504463C
:10F270000348027D011D204608F04DFB10BD000033
:10F28000C428002010B504460348C17D2246001D55
:10F2900008F02AFB10BD0000C428002010B5044669
:10F2A0000348017E2246001D08F01EFB10BD000031
:10F2B000C428002070B504462088102804D01128E6
:10F2C0001FD01A2842D120E008F062F8A08807F089
:10F2D000EDFE30B900BF1EA2C5210420FEF70FFFCE
:10F2E0000EE0A07D022801D1012000E000200546AB
:10F2F000A2882B462549A1F1120008F02DFB00BF82
:10F3000024E0A08808F066F820E0207A0121B1EB23
:10F31000101F01DA012000E000200346A2881B49EB
:10F32000491CA1F1130008F017FB207A0221B1EB70
:10F33000101F01DA012000E000200346A2881349D3
:10F34000891CA1F1140008F007FB00BF00BF70BDCD
:10F350002E2E5C2E2E5C2E2E5C2E2E5C2E2E5C2EE7
:10F360002E5C636F6D706F6E656E74735C626C653E
:10F370005C636F6D6D6F6E5C626C655F636F6E6E0C
:10F380005F73746174652E6300000000DA2800204A
:10F3900070B5044600250B48017D2246001D08F08B
:10F3A000A3FA60B10748817D2246001D08F09CFA4F
:10F3B00006460EB1022000E00120054600BF2846A7
:10F3C00070BD0000C428002010B500240AE02046CB
:10F3D00009F0FCFE20B9204609F0EEFE204610BDE3
:10F3E000601CC4B2182CF2DB1820F8E710B50446F4
:10F3F000204609F0EBFE10B10248005D10BD002070
:10F40000FCE70000DD28002070B505460C462046CC
:10F4100009F0DCFE30B10448015D2A46153808F0D9
:10F4200063FA70BD0020FCE7DD28002070B50546BA
:10F430000C461646204609F0C9FE30B103480119B2
:10F4400033462A46153808F087FA70BDDD280020BB
:10F4500010B5044600BF0CB90E2010BD00BF00BFA0
:10F4600006480078012801D00820F6E700BF0448CC
:10F470000168204608F000F8EFE7000000210020B6
:10F48000F42000200146002200BF09B90E20704779
:10F4900000BF0020054B18600120054B18700020AC
:10F4A000044B1860044801601046F0E7FC2000207F
:10F4B00000210020F8200020F420002070B505462F
:10F4C0000C4600BF05B970BD00BF00BF04B9FAE724
:10F4D00000BF00BF13480078012800D0F3E700BF49
:10F4E0002088112815D0302804D0322807D033289E
:10F4F00014D109E0211D284605F098FB0FE0211DDD
:10F50000284605F029F90AE0211D284605F018FAD9
:10F5100005E0211D284605F0E0FA00E000BF00BF2D
:10F5200000BFD0E7002100202DE9F04104460D4640
:10F5300000BF14B90E20BDE8F08100BF00BF1E4817
:10F540000078012801D00820F5E700BF1B480068BB
:10F5500008B90820EFE794F8A70108B11120EAE7FD
:10F56000A4F8AA5100201649086084F8A80184F87C
:10F57000A60194F8A601C0EBC00000EB800004EBEC
:10F58000400694F8A6010F4901EB80000068306046
:10F5900031882A460C4804F0ABF83246012128464F
:10F5A00090DF074600BF0FB13846C4E700BF012017
:10F5B00084F8A7010020BEE700210020FC200020E5
:10F5C000F8200020F8280020389902002DE9FC419D
:10F5D00005460C46174620880930B84202D90C204F
:10F5E000BDE8FC81684671DF064600BF0EB13046BB
:10F5F000F6E700BF0820218868542088401C20803E
:10F600001B20218868542088401C208020882844A2
:10F61000DDF801100160BDF8051081802088801D93
:10F6200020809DF8000018B900202188685402E06D
:10F630000120218868542088401C20800020CFE7CA
:10F6400010B504462046FFF735FE204607F076FA4F
:10F6500021461248FFF732FF2046FFF7E7FD21461B
:10F660000F4800F0F2F821460E4800F038F9214624
:10F670000D48FFF781FD21460C4800F05AF821465D
:10F680000B4800F024FA204600F04CFA204604F023
:10F69000C1FF2046FFF716FB10BD00004C220020E2
:10F6A00004240020142400202824002040240020CA
:10F6B000F8230020034600BF0BB90E20704700BF9F
:10F6C0001981DA820020F9E770B504460D4600BFC3
:10F6D0000CB90E2070BD00BF00BF286808B90E200D
:10F6E000F8E700BF00BF0DB90E20F3E700BF2868A0
:10F6F0002060686860604FF6FF7020810021E18221
:10F7000000BF0121217442F60620E08100BF00BF46
:10F71000217341F60200608100BF04F10A00FFF787
:10F7200097FED7E70146C88A08B10120704700203C
:10F73000FCE770B504460D4600262888112804D140
:10F740002946204605F098F900E000BF00BF26B129
:10F75000606810B130466168884770BD7FB5064665
:10F760000C460020009001900290039001208DF83B
:10F7700000006088ADF8020004F10E05207860BB3F
:10F78000A08841F60201884227D1A079012824D11E
:10F7900000201EE000EB400135F82110A1F52851B2
:10F7A000063999B900EB400105EB81010979C1F3F4
:10F7B000800151B100EB400105EB81010A68019223
:10F7C0004A6802920989ADF80C1000E000BF00BF42
:10F7D000401C217A8142DDD800BFBDF80C0010B179
:10F7E00000208DF8000069463046326890477FBDA2
:10F7F00013B504462046FFF795FF08B905201CBD48
:10F80000E18A208901AB012209F066FEF7E7F8B52D
:10F8100004460D46286808B90720F8BD286820600E
:10F8200000BF01208DF8020041F60200ADF8000093
:10F8300000BF221D69460120A0DF06460EB13046FA
:10F84000EBE72046FEF7B6FAE7E770B505460C464B
:10F850002088102802D050280AD104E021462846EA
:10F8600005F058F805E02146284605F0EDFA00E0DD
:10F8700000BF00BF70BD7CB504460D46002000905F
:10F8800001900120ADF800000020ADF802000195C4
:10F890006189608A6A46A5DF7CBDF8B504460D46DD
:10F8A000286808B90720F8BD28682060686860608B
:10F8B00000BF01208DF8020041F60300ADF8000002
:10F8C00000BF04F1080269460120A0DF06460EB120
:10F8D0003046E8E729462046FEF7DEFAE3E770B552
:10F8E00005460C462088102804D0112807D0192876
:10F8F0000FD109E02146284605F00FF80AE021461D
:10F90000284605F0CEF805E02146284604F034FEEE
:10F9100000E000BF00BF70BD2DE9F04105460E4676
:10F92000002432782146641C6A5472782146641C93
:10F930006A5400BF022C01D1012000E000200746DC
:10F9400037B900BF04A220210020FEF7D8FB00BF7A
:10F9500000BF2046BDE8F0812E2E5C2E2E5C2E2EA0
:10F960005C2E2E5C2E2E5C2E2E5C636F6D706F6E87
:10F97000656E74735C626C655C636F6D6D6F6E5CFD
:10F98000626C655F7372765F636F6D6D6F6E2E6311
:10F990000000000070B586B037480068059000BFD1
:10F9A00000234822354905A808F064FE054600BF3B
:10F9B0002E463EB100BF32A240F219413046FEF75A
:10F9C0009EFB00BF00BF00BF6A460121002008F077
:10F9D00031FE044600BF25463DB100BF28A240F2DB
:10F9E0001F412846FEF78BFB00BF00BF00BF284E1B
:10F9F000304607F06DFE044600BF25463DB100BF0E
:10FA00001FA240F222412846FEF779FB00BF00BF4B
:10FA100000BF684608F000FE044600BF25463DB121
:10FA200000BF17A240F226412846FEF768FB00BF40
:10FA300000BF184808F0E4FD044600BF25463DB16C
:10FA400000BF0FA240F22A412846FEF758FB00BF34
:10FA500000BF114808F040FE044600BF25463DB1F6
:10FA600000BF07A240F22E412846FEF748FB00BF28
:10FA700000BF06B070BD0000C0970200D026002075
:10FA80002E2E5C2E2E5C2E2E5C6D61696E2E630018
:10FA9000E81F002041F601007D870200F8B5054609
:10FAA0000E4600BF01208DF8020041F60400ADF8BB
:10FAB000000000BF2A4669460120A0DF04460CB1C1
:10FAC0002046F8BD3146284609F0AAF8F9E770B596
:10FAD00005460C462088102804D12146284604F00B
:10FAE0002BFF00E000BF00BF70BD000070B50546F1
:10FAF0000C4600260948056044B1204608F0FFFD89
:10FB0000064600BF0EB1304670BD00BF0448006815
:10FB100010B9FEF79DF806463046F5E7B420002000
:10FB2000B820002070B505462888102802D011287A
:10FB30002CD115E01748006860B900F09BFF04461F
:10FB400000BF34B11448006818B120461249096852
:10FB5000884700BF0F480068401C0E49086016E047
:10FB60000C480068401E0B4908600846006860B9F0
:10FB7000FEF76EF8044600BF34B10748006818B1BC
:10FB8000204605490968884700BF00E000BF00BF64
:10FB900070BD0000B8200020B420002010B5032064
:10FBA00000F078FC044600BF1CB1062C01D02046B2
:10FBB00010BD00BF0020FBE72DE9F04105460F46D0
:10FBC0004FF00008002400E0641C042C04D22A48F2
:10FBD00050F82400A842F7D1042C41D227B3012FBA
:10FBE00002D0022F3BD133E004EB4400234911F84B
:10FBF000008004EB44000844407868B12048006865
:10FC000000EB800041001F4A1F480068FEF778FBA8
:10FC100006460EB91B48057004EB4400174908441A
:10FC200080781A4908551AE017480068FEF794FBD7
:10FC30001648005D04EB4401104A1144897888425B
:10FC400005D104EB44001146084490F8028006E018
:10FC500004EB44000949084490F8018000BF00BF4C
:10FC6000B8F1000F06D00A48006818B140460849AC
:10FC700009688847BDE8F081D8970200582700201E
:10FC80009C200020AC200020D4970200AD20002052
:10FC9000A820002010B50246042A0ED2094B1B688A
:10FCA000D843094B13F822400123A34003400BB172
:10FCB000012300E000230B7001E000200870002009
:10FCC00010BD000010050050D897020070B5054621
:10FCD000042D09D00A2D04D00D2D19D00E2D54D18C
:10FCE00042E008F007F951E029490889132176DF3D
:10FCF0000446082C0BD000BF26463EB100BF25A20B
:10FD00004FF48E613046FEF7FAF900BF00BF3DE0C8
:10FD10002448007838B32448007828B902211C48C8
:10FD2000FFF766FD044604E000211948FFF760FD77
:10FD3000044634B91C48007880F001001A49087064
:10FD400011E043F2040084420DD043F201408442AA
:10FD500009D0052C07D000BF0EA240F28E412046EC
:10FD6000FEF7CDF900BF11E0112000F04DF8044678
:10FD700000BF26463EB100BF06A240F29541304684
:10FD8000FEF7BDF900BF00BF00E000BF00BF70BDBF
:10FD9000402400202E2E5C2E2E5C2E2E5C6D616980
:10FDA0006E2E6300812000208020002030B50346A5
:10FDB0000020042B23D2012A07D1012903D103F10A
:10FDC0000D04E4B200E00024224679B1012902D0FA
:10FDD000022911D104E003EB43040A4D2A550DE03A
:10FDE00003EB4304074D2C44627007E003EB43042C
:10FDF000044D2C44A27001E0072000BF00E0072062
:10FE000030BD00005827002070B504460025054885
:10FE1000007800F0010018B1204600F06DF80546AA
:10FE2000284670BDA02000202DE9F04105460E4671
:10FE30009046002425480660254805602548C0F8FE
:10FE4000008005F00200F8B1002706E0012211460B
:10FE50003846FFF7ABFF04467F1C042F01D2002C6D
:10FE6000F4D02CB9720804211B48FEF7E7F80446C9
:10FE700014B9FEF7CDF804462CB9184A00211848E9
:10FE8000FEF7C4F9044600BF05F0010068B100BFE9
:10FE90004FF4F010134908600020091D086000BFEE
:10FEA0004FF4F0100F49103108602CB90E4A0021B0
:10FEB0000E48FEF7ABF904462CB90D4A01210D4856
:10FEC000FEF7A4F904462046BDE8F0819C200020FE
:10FED000A0200020A8200020E8970200E5040200EE
:10FEE000D497020008050050092F0200CC970200A9
:10FEF000EDDF0100D09702002DE9F0410446002615
:10FF00000025182C7DD2DFE804F00C1D1E68B4EE2D
:10FF1000EDECEBEAE9E8E7E6E5E4E3E2E1E0DFDE89
:10FF2000DDDC00BFFD4801684FF4F010884300F4A9
:10FF3000F010FB4908600020091D086000BFF94867
:10FF4000047098E200BF00BFF44801684FF4E0106D
:10FF5000884300F4F010F24908600020091D086091
:10FF600000BFEF48001F006880F4F01000F400307C
:10FF700088B100BF4FF40030091F08600020091D40
:10FF8000086000BF022C02D14FF4E16001E04FF4A1
:10FF90007A60054610E000BF4FF40030E049091DCB
:10FFA00008600020091F086000BF022C01D1C82092
:10FFB00001E04FF4C8700546DA4804706420B5FBD0
:10FFC000F0F0D949096800FB01F700223946D7480B
:10FFD0000068FEF795F906464DE200BFCF4801687C
:10FFE0004FF4E010884300F4F010CD490860002081
:10FFF000091D086000BFCA48001F006880F4F010A7
:020000040002F8
:1000000000E037E200F4003088B100BF4FF4003068
:10001000091F08600020091D086000BF032C02D1E1
:100020004FF4487001E04FF47A60054610E000BFDD
:100030004FF40030BA49091D08600020091F08600C
:1000400000BF032C01D1C82001E04FF4C870054661
:10005000B44804706420B5FBF0F0B349096800FBB4
:1000600001F700223946B1480068FEF749F9064613
:1000700001E200BFA94801684FF4E010884300F492
:10008000F010A74908600020091D086000BFA448BF
:10009000001F006880F4F01000F4003020B300BFAF
:1000A0004FF40030091F08600020091D086000BFE0
:1000B000042C02D14FF47A6001E04FF47A600546D7
:1000C00024E0CBE1C9E1B3E19DE187E179E13FE1E2
:1000D0003DE13BE139E137E12AE105E1EDE0D3E043
:1000E000BBE0A1E06CE022E000BF4FF400308C499F
:1000F000091D08600020091F086000BF042C02D100
:100100004FF4C87001E04FF4C8700546854804708C
:100110006420B5FBF0F08449096800FB01F7002278
:10012000394682480068FEF7EBF80646A3E100BFB7
:100130007A4801684FF4E010884300F4F0107849E1
:1001400008600020091D086000BF7548001F006896
:1001500080F4F01000F4003080B100BF4FF40030A4
:10016000091F08600020091D086000BF052C01D18F
:10017000C82001E04FF47A60054610E000BF4FF45C
:1001800000306749091D08600020091F086000BF92
:10019000052C01D1C82001E04FF4C8700546614824
:1001A00004706420B5FBF0F05F49096800FB01F7BB
:1001B000002239465D480068FEF7A2F806465AE17B
:1001C00000BF564801684FF4E010884300F4F01077
:1001D000534908600020091D086000BF5048001FF7
:1001E000006880F4F01000F4003040B100BF4FF41C
:1001F0000030091F08600020091D086009E000BFE9
:100200004FF400304649091D08600020091F0860AE
:1002100000BF444804704448002201684348006815
:10022000FEF76EF8064626E100BF3C4801684FF431
:10023000E010884300F4F010394908600020091DDF
:10024000086000BF00BF4FF4003008600020091FA5
:10025000086000BF334804700DE100BF3049091F3A
:1002600008684FF4802181432D4A116000F48021F9
:10027000121D116000BF2C48002201682B48006845
:10028000FEF73EF80646F6E000BF2549091F08685C
:100290004FF480218143224A116000F48021121D15
:1002A000116000BF2048006800EB800100221F4859
:1002B0000068FEF725F80646DDE000BF1849091F73
:1002C00008684FF480218143154A116000F48021B1
:1002D000121D116000BF1448002201681348006815
:1002E000FEF70EF80646C6E000BF0D49091F086874
:1002F0004FF4802181430A4A116000F48021121DCD
:10030000116000BF0848006800EB80010022074828
:100310000068FDF7F5FF0646ADE00000A4200020D0
:1003200008050050982000209C200020CC97020057
:1003300000BF4FF4F010524908600020091F086008
:1003400000BF5048047096E000BF00BF00BF00BF70
:100350004D480068FEF700F80646C4F111050DB3DC
:1003600006BB4FF4002049490860012D0FD9C82071
:1003700068436421B0FBF1F04549096800FB01F7CF
:100380000022394640480068FDF7BAFF064600BF24
:100390003E48006800F4F010394908600020091F49
:1003A00008600DE000BF3948006800F4F0103449DF
:1003B000091F08600020091D086000BF334908605C
:1003C00059E000BF4FF4F0102D49091F08600020CC
:1003D000091D086000BF2B4804704CE000BF4FF4BB
:1003E000E0102749091F08600020091D086000BFB0
:1003F00000BF4FF4003008600020091F086000BFF4
:100400002048047037E000BF4FF4D0101C49091F8A
:1004100008600020091D086000BF00BF4FF4802065
:1004200008600020091F086000BF1648047022E021
:1004300000BF4FF4C0101249091F08600020091DB9
:10044000086000BF00BF4FF4C02008600020091FF3
:10045000086000BF0B4804700DE000BF00BF4FF400
:10046000F010074908600020091F086000BF054818
:10047000047000E000BF00BF3046BDE8F08100001E
:100480000C05005098200020D0970200A4200020E6
:100490009C20002030B5024600201AE00F4C54F892
:1004A0002040A40004F1A044D4F8001701248440A3
:1004B00014400CB1032400E00024234621F4403111
:1004C00041EA0341064C054D55F8205044F82510EB
:1004D000401C0428E2D3002030BD0000D897020061
:1004E0000007005010B5044620780221FFF764FB96
:1004F00010BD0000F8B50546164A40F6CD41032070
:10050000FFF792FC044600BF26463EB100BF12A290
:1005100040F2AA413046FDF7F2FD00BF00BF694638
:100520000020FFF7E3FA044600BF26463EB100BFB5
:1005300009A240F2AD413046FDF7E1FD00BF00BF2A
:100540009DF80000022801D1012000E00020287061
:10055000F8BD0000CDFC01002E2E5C2E2E5C2E2E50
:100560005C6D61696E2E630001468879012809D1AE
:100570000879012806D1488842F60212904201D13A
:10058000012070470020FCE74FF0FF31054A42F898
:100590002010082804DBFF23A0F108015032535437
:1005A00070470000183000200146024850F8210032
:1005B00070470000183000202DE9F04F03460C462C
:1005C0004FF0FF390AB1002000E0082084460AB14C
:1005D000082000E00C208046614624E0154850F8D1
:1005E0002100401CF0B91D460846274616464FFA22
:1005F00080FBDFF840A00AF1300A0AF805B0DFF806
:1006000034A04AF820704EB94FFA85FBA0F1080AD1
:10061000DFF820E00EF1500E0EF80AB000BF4FFADE
:1006200081F902E0491C4145D8D300BF4846BDE8E6
:10063000F08F0000183000200146014840567047F6
:1006400048300020F8B504460E4694F8A601C0EBE9
:10065000C00000EB800004EB400594F8A501B8B1A0
:1006600094F8A521521ED1B294F8A621C2EBC20281
:1006700002EB820204EB420501EB410305F10A02A1
:1006800002EB83000289521C92B2ADF8002002E016
:10069000E888ADF800002889ADF8020069463046C8
:1006A00092DFF8BD014639B10448884204D80448B5
:1006B000884201D9012070470020FCE73C2200203D
:1006C0004C22002070B505460E46002407E055F880
:1006D000340002F0DBFB08B9002070BD641CB4429A
:1006E000F5D30120F9E700000A49496C81B10949B5
:1006F000096C084A02EBC1010160114691F84010F3
:10070000491C01F0070111641146496C491E5164EE
:100710007047000058320020064902688A4203D020
:10072000016808310160704702493839016000BF33
:10073000F9E70000903200200178022902D0017808
:1007400003290BD106490A6C817D1144044A1164C6
:1007500011464A6C817D511A014A5164704700006C
:10076000583200202DE9F04104460D464FF6FF7641
:10077000304684420AD14FF48071284606F098F939
:100780000646B6F5807F0FD126460DE0FF2C0BDC28
:100790002146284606F07CF907460FB1204601E0C5
:1007A0004FF6FF70064600BF3046BDE8F0810000FE
:1007B0002DE9F04782461F480068002836D01D48C2
:1007C0000068056806F08AFE07461B480468214653
:1007D000384607F0DCFFC61C1848007808B906F058
:1007E0008FFEAE4201D2284600E03046044424F099
:1007F0007F44204606F06CFE06F070FE80463946C7
:10080000404607F0C4FF00F103093946204607F0CF
:10081000BEFF814509D906F061FE814606F058FE0B
:100820002F20FBF7F7FD08F027F901E006F086FE20
:10083000BDE8F087D8210020DC210020F021002035
:1008400001460888062808DB0888B0F5486F06DDF1
:1008500008884FF6FF72904201D007207047488801
:10086000062808DB4888B0F5486F06DD48884FF653
:10087000FF72904201D00720F0E708884FF6FF7220
:10088000904208D04888904205D008884A88904213
:1008900001DD0720E2E70020E0E72DE9F041064610
:1008A0000D46144698462088801D404502D90C20EC
:1008B000BDE8F0813046FFF7C3FF074600BF0FB128
:1008C0003846F5E700BF0520218868542088401C81
:1008D00020801220218868542088401C2080228893
:1008E0005119308808F0EEFB2188084420802288C6
:1008F0005119708808F0E6FB218808442080002008
:10090000D6E7000010B5044600BF04A240F2EB2178
:100910002046FDF7F4FB00BF10BD00002E2E5C2E1C
:100920002E5C2E2E5C6D61696E2E630030B587B033
:100930001C216846FBF7D5FD002000904FF42030C5
:1009400001904FF47020029003208DF80C000020DD
:10095000ADF80E0001208DF81000002005900A4827
:1009600006906846FEF72AFC044600BF25463DB1C6
:1009700000BF06A240F202312846FDF7C0FB00BFCF
:1009800000BF07B030BD0000050902002E2E5C2E0E
:100990002E5C2E2E5C6D61696E2E630038B51B488F
:1009A00002F004FA20BB1A48007848B1194840699F
:1009B000E8B100200090174841696846884716E072
:1009C0001548007810B91348456801E0114885685A
:1009D0000022294611480068FDF792FC044634B114
:1009E0000C48806918B10B4881692046884709E0A6
:1009F0000848406930B101200090064841696846C6
:100A0000884700BF00200249087038BDE820002058
:100A1000F020002088280020E42000200898020010
:100A20003EB504462088FEF72DFCD0B1104A917BDC
:100A30002088FEF7E9FC28B90D4A517B2088002266
:100A4000FEF7F4FC2088ADF8020005208DF80000C8
:100A50002088FEF723FC8DF80400684600F064FB54
:100A600005E02088012241F2060100F0D9F93EBDDF
:100A70001C21002010B5012200210846FFF796F93D
:100A8000044600BF1CB1072C01D0204610BD00BF9A
:100A9000072202210120FFF789F9044600BF1CB19B
:100AA000072C01D02046F1E700BF042202210020DC
:100AB000FFF77CF9044600BF1CB1072C01D020468B
:100AC000E4E700BF0020E1E710B5044621460248F4
:100AD000FEF744FE10BD00004024002070B5084819
:100AE000FEF7D0FC044600BF25463DB100BF05A27D
:100AF00040F2E1212846FDF702FB00BF00BF70BDB8
:100B0000C90A02002E2E5C2E2E5C2E2E5C6D6169B1
:100B10006E2E630070B506460D460EB1012070BD05
:100B2000287920B1012809D0022813D10FE02846E6
:100B300006F026FB0446022028710DE0284600F04E
:100B40008DFE04460A2C01D141F61D5404E041F605
:100B50001D5401E00F2400BF00BF2046DFE72DE950
:100B6000F84F04460F4690464FF0000B94F8A6014C
:100B7000C0EBC00000EB800004EB400594F8A50139
:100B800000EB400105F10A0000EB810A94F8A50191
:100B9000401C2979884207D16B46002251462046E5
:100BA00002F016F9834627E094F8A5611FE0287942
:100BB000401EB04202D14FF0000906E0701C00EB6D
:100BC000400105F10A0000EB81096B464A46514697
:100BD000204602F0FDF810B14FF0010B0AE0CA46C2
:100BE00094F8A501401C84F8A501701CC6B22879B0
:100BF000B042DCDC00BF00BFBBF1000F04D101201C
:100C000038700020BDE8F88F0020387069464046F3
:100C100093DFF7E72DE9F0478146002532E01C48D5
:100C2000006800EBC5042178012000FA01F619489C
:100C30000068304020B317480068B0431549086089
:100C4000207802F0F7FF07462178012088401249FA
:100C500009680840217807FA01F188420FD16078CD
:100C6000012800D100E00020784080F00108606891
:100C700020B108F0FF0120786268904700BF00BFF4
:100C8000681CC5B2054800788542C8DBBDE8F0871E
:100C9000BC210020CC210020C8210020C021002040
:100CA00070B5044620793D2802D141F23D0001E0B3
:100CB0004FF48850054620880022294602F08AFA1F
:100CC00070BD00002DE9F04104460D46164694F82B
:100CD000A601C0EBC00000EB800004EB40084046DA
:100CE00006F0AAFB0746002F40D0214800680628DE
:100CF0003CD21F48006800EB80001E4901EB001049
:100D000046801B49096801EB81011A4A02EB011177
:100D1000081D46224146FBF7CBFB4DB1002014498C
:100D2000096801EB8101134A02EB0111087008E028
:100D300002200F49096801EB81010E4A02EB011103
:100D400008700B48006800EB80000A4901EB0010B6
:100D5000C76407480068401C0549086008460068E9
:100D600005490968884201D105F046FCBDE8F081DB
:100D7000F820002010290020FC2000202DE9F0415F
:100D800094B004460D46164694F8A601C0EBC00088
:100D900000EB800004EB4008404606F04DFB0746A0
:100DA00047B1ADF8066001208DF80400029501A856
:100DB000B84700BF14B0BDE8F081000001461448F8
:100DC0000078144A127890421DD011480078401CD7
:100DD0000F4A107010460078022801D100201070D0
:100DE0000D480B4A127850F8220008600B4A086838
:100DF00012681044094A10601046006820F07F40D5
:100E00001060012070470020086000BFFAE7000072
:100E1000E8210020E9210020E0210020DC21002041
:100E2000FEB504460D461646094A07CA8DE8070076
:100E3000ADF80240ADF804508DF806600548417BDE
:100E400000222046FEF7F2FA684600F06DF9FEBD7A
:100E5000649802001C21002010B50446208928DF78
:100E600010BD00000A48007806280ED10848001D71
:100E7000007800F00F0040B905480830007800F015
:100E8000F000302801D1012070470020FCE700006D
:100E9000E00F00F013480078062820D11148001D0B
:100EA000007800F00F00D0B90E480830007800F04C
:100EB000F000302801D1012070470A48083000783E
:100EC00000F0F000402801D10120F5E70548083086
:100ED000007800F0F000502801D10120ECE700205C
:100EE000EAE70000E00F00F00A48007806280ED17B
:100EF0000848001D007800F00F0040B90548083090
:100F0000007800F0F000302801D101207047002067
:100F1000FCE70000E00F00F013480078062820D11D
:100F20001148001D007800F00F00D0B90E480830BD
:100F3000007800F0F000302801D1012070470A4805
:100F40000830007800F0F000402801D10120F5E7DA
:100F500005480830007800F0F000502801D1012049
:100F6000ECE70020EAE70000E00F00F00A48007814
:100F700006280ED10848001D007800F00F0040B987
:100F800005480830007800F0F000302801D1012039
:100F900070470020FCE70000E00F00F00A480078EE
:100FA00006280ED10848001D007800F00F0040B957
:100FB00005480830007800F0F000302801D1012009
:100FC00070470020FCE70000E00F00F00A480078BE
:100FD00006280ED10848001D007800F00F0040B927
:100FE00005480830007800F0F000502801D10120B9
:100FF00070470020FCE70000E00F00F00278072AAD
:1010000034D2DFE802F03304071020293000002238
:101010000A702CE001220A7003898B818388CB81BE
:10102000C2688A6023E002220A7003898B81838868
:10103000CB81C2688A60027C062A01D1012300E0CC
:1010400000230B7413E003220A70C3888B81038989
:10105000CB81C2688A600AE004220A70C3888B814F
:101060000023CB8103E005220A7000E000BF00BF2F
:101070007047000070B50546002409E0064850F8A6
:10108000240020B1044850F8241028468847641CE6
:10109000032CF3D370BD0000D43100203EB50546CB
:1010A0000C46DCB1112C19D0002000900190029068
:1010B000ADF8025001940D2C03D10B208DF80000E7
:1010C00008E0042C03D10A208DF8000002E009207A
:1010D0008DF80000684600F039F800BF3EBD000002
:1010E00070B50546002405E0054850F82410284650
:1010F0008847641C0248007BA042F5D870BD000000
:10110000F02A002070B50546002405E0054850F897
:10111000241028468847641C02481038007FA042EB
:10112000F4DC70BDE82F002070B50546002405E012
:10113000054850F8241028468847641C0248007B64
:10114000A042F5DC70BD00001C21002070B50546F2
:10115000002405E0054850F8241028468847641C00
:101160000248007BA042F5D870BD00006C21002031
:10117000F0B5034600241FE0124E306806689E4218
:1011800003D90668F61A06601AE006689B1B066813
:101190003444002606600B4E35680A4FC6693E602F
:1011A000C66846B10E1926F07F464660C66886605E
:1011B0001668C661156000BF024800680028DBD1D0
:1011C00000BFF0BDD821002002460AB905207047B3
:1011D0000020106050609060116000BFF7E70000D1
:1011E0007FB504460125606808B9012000E00020B1
:1011F00003902078062871D2DFE800F07003192FE1
:10120000436B606808B9002000E003208DF80000FF
:10121000A08900F043FBADF80200E08906F0B4F8C5
:101220008DF8040060680390A068029058E0606840
:1012300008B9012000E004208DF80000A08900F02A
:101240002DFBADF80200E08906F09EF88DF8040051
:1012500060680390A068029042E0606808B90220CC
:1012600000E005208DF80000A08900F017FBADF824
:101270000200E08906F088F88DF80400A06802906A
:101280002EE0E08920BBA0894FF6FF7188421FD075
:10129000A08900F003FBADF80200E08906F074F8C5
:1012A0008DF80400FF208DF80400606838B906202E
:1012B0008DF80000BDF8020005F080F802E007207C
:1012C0008DF8000000200D494877887704F0BEFFB4
:1012D00006E008208DF8000002E0FFE7002500BFCF
:1012E00000BF15B1684604F0D1FC0448807F20B1EE
:1012F00000200249887704F0A9FF7FBD282C002038
:1013000010B588B00446022000F016FB10B9022088
:1013100008B010BD4FF6FF70844201D10420F7E7FA
:1013200005208DF8040001208DF80800ADF80A4072
:101330000022114601A803F09FFD18B105F07CFEC4
:101340000020E5E70820E3E700B587B0022000F0C1
:10135000F3FA10B9022007B000BD06208DF8000096
:1013600000221146684603F087FD48B10548007821
:1013700010B101200349887305F05EFE0020EAE702
:101380000820E8E7E032002010B58CB0142107A84F
:10139000FBF7A7F8022000F0CFFA28B107A8FFF763
:1013A00069FE00200CB010BD012000F0C5FA08B1A4
:1013B0000020F7E7012000F0CBFA00F0ABFB03F0D0
:1013C00063FE04460CB90B20ECE7062C0AD1022080
:1013D00000F0BEFA012000F095FA07A8FFF74AFED8
:1013E0000020DFE701208DF800000C2C1AD2DFE886
:1013F00004F01906190719141915190B100C00BF60
:1014000000208DF804000EE000BF03208DF80400DA
:1014100009E002208DF8040005E000BF01208DF8EE
:10142000040000E000BF00BF00221146684603F040
:1014300023FD05F001FE0020B4E7000070B588B080
:101440000020019002901BA002F052F927E006A9AB
:1014500003A800F0C5F8044614B1204608B070BDDA
:101460001AA0039902F044F91EA002F041F9079E68
:10147000002506E056F825101CA002F039F9681C7A
:10148000C5B206984088A842F4DC15A002F030F9F5
:1014900003A800F02FF804460CB12046DEE701ABAC
:1014A00003AA42F22221481000F071F80028CED0A1
:1014B0000020D3E7537461727420736561726368AE
:1014C000696E672E2E2E200D0A000000466F756E85
:1014D00064205265636F7264204944203D20256476
:1014E0000D0A000044617461203D200030782538E9
:1014F0007820000038B504460CB9052038BD69468F
:10150000204605F061FEE0B10F48BDF8001000EB89
:1015100001108089002812DDA07A80B10A48BDF848
:10152000001000EB01108089401E0749BDF8002023
:1015300001EB021188810020A072002502E006253F
:1015400000E00A252846D9E7A032002010B588B06F
:101550000446022000F0F0F910B9022008B010BDD6
:101560000CB90520FAE704208DF8040000208DF85E
:101570000800216804910022114601A803F07CFCB8
:1015800018B105F059FD0020E8E70820E6E77FB52F
:1015900014461D462B46224601A9684605F0ACFDBF
:1015A00004B070BD37B50C4615462B462246694639
:1015B000002005F0A1FD3EBD37B50C4615462B4673
:1015C00022460021684605F097FD3EBD024602B165
:1015D00009B905207047106808600020FAE700008C
:1015E00038B504460D4604B10DB9052038BD69462D
:1015F000204605F0E9FDA8B161680B48BDF8002060
:1016000000EB02108089401C074ABDF8003002EB55
:1016100003129081296060680C3068600120A0721C
:101620000020E3E70A20E1E7A032002070B504467D
:101630000D460CB9052070BD032300222946204623
:1016400007F062FFF7E770B504460D46022300225B
:101650002946204607F058FF70BD70B505460E4676
:1016600014460CB9052070BD022322463146284697
:1016700007F04AFFF7E700000146094A1278032AFB
:1016800001D10C200AE0074A054B1B7842F82310D1
:10169000034A1278521C024B1A7000207047000057
:1016A000F5210020D4310020F8B504460D46022073
:1016B00000F042F908B90220F8BD0CB90520FBE79B
:1016C0006946284608F040F806461EB9BDF80000F5
:1016D000208065803046EFE770B50446022000F0B8
:1016E0002BF908B9022070BD0CB90520FBE7208852
:1016F000042801DD0420F6E720880A4901EB0016E2
:1017000071896088C01C081A08D42188608808F094
:101710000DF8002020806080002500E00425284688
:10172000E1E70000A032002010B586B00020ADF83F
:101730000800019006E003A8FFF708FF0AA003993C
:1017400001F0D6FF01AB03AA42F222214810FFF7B5
:101750001EFF0028EFD0FFF7F7FD044614B1204626
:1017600006B010BD0020FBE744656C65746564201D
:101770007265636F72642049443A202564200D0A23
:101780000000000010B50748FFF776FF04460CB1D3
:10179000204610BDFFF7F8FD04460CB12046F8E7DF
:1017A0000020F6E7B938020010B588B00F48009065
:1017B0000220ADF8040041F21110ADF81400400011
:1017C000ADF81600CDF818D00121ADF81C1005A910
:1017D00002A8FFF738FF044614B1204608B010BD38
:1017E00003A0029901F084FF0020F7E7C4970200EC
:1017F00057726974696E67205265636F726420491D
:1018000044203D202564200D0A00000070B50446E8
:101810000D462A460021204600F00EF8A068401C24
:10182000A06070BD01468A68C868801A704701468A
:101830008A68C868801A704710B583680B4484882A
:1018400023400468E35C137010BDC26883881A40AB
:1018500003689954C268521CC26070473EB5044682
:101860000C4B6A460021A01D05F046FC05465DB9FB
:10187000019805F017FD0546012006498988064AAA
:1018800002EB0111887303E002480021016041600E
:1018900028463EBD04220020A03200200146A1F5CA
:1018A000404080B270472DE9FC4105460C46164683
:1018B00000200090019000BFFF2D02DD0720BDE851
:1018C000FC8100BF00BF072C0BD0012C09D0082CD5
:1018D00007D0052C05D0062C03D0042C01D00720FE
:1018E000EDE700BF284604F0BDFD8046204604F029
:1018F00025FD07466B46324639464046FFF747FE10
:10190000DDE70000024909788143014A1170704700
:10191000F421002010B504462078182802D1FDF7E4
:1019200053FD207010BD10B504462078182802D150
:10193000FDF74AFD207010BD0146044800780840BC
:1019400008B1012070470020FCE70000F4210020CE
:10195000024909780143014A11707047F4210020BF
:1019600030B504461088C01C984201D90C2030BD07
:101970000220158848551088401C108001201588C9
:1019800048551088401C108015884C551088401C04
:1019900010800020EBE700002DE9F04106460C46E0
:1019A00015460027B846042C03D0112C01D0002C7A
:1019B00035D1042C03D14FF00008012709E0112C88
:1019C00003D14FF00108002703E014B94FF00008DD
:1019D0000027C5B11348817C3A463046FDF726FD05
:1019E0001048417C42463046FDF720FD0D48817B82
:1019F00000223046FDF71AFD0A48417B002230469E
:101A0000FDF714FD0BE00748817B3A463046FDF7B1
:101A10000DFD0448417B42463046FDF707FDBDE819
:101A2000F08100006C21002038B50020009068464D
:101A300005F0F8F90446082C02D00CB1012038BD9D
:101A4000082C06D1684600F0ABF804460CB1002023
:101A5000F5E7009808B10120F1E70020EFE770B545
:101A600004460D46E0B2FCF7F7FC204670BD0000CE
:101A7000F8B505460C4616461B48007800F00100F4
:101A800008B90120F8BD2846FEF70CFE08B902206F
:101A9000F8E70CB90320F5E7C4F30B0008B1062002
:101AA000F0E72868A04204D804EB06306968884251
:101AB00001D90520E6E70EB90420E3E7684605F002
:101AC00005FA08B90720DDE70098056002200099B3
:101AD0000871C4F30F30009908810098868105F0E1
:101AE000B7FA0020CEE700000C22002070B50546B2
:101AF0000C46204605F018FA70BD4FF010204169E1
:101B0000481C08B1084670474FF0805040690003F8
:101B1000F9E700002DE9F0411E481F49401A050968
:101B2000FFF7EBFF06460024671E1C48007800F014
:101B3000010010B10020BDE8F081002220E04FF04C
:101B4000000C00200FE0DFF8508008EB0013B842D3
:101B500000D107E093F80D80E04502DB93F80DC05B
:101B6000044600BF401CA842EDD30B4800EB041113
:101B70004E60087BA6EB003008600E682746521CBA
:101B8000AA42DCD30548007840F001000349087000
:101B90000020D0E74C2200203C2200200C22002014
:101BA000014609B9032070470248406D08600020D3
:101BB000F9E70000FC320020F8B505460C46164651
:101BC0001F461D48007800F0010008B90120F8BD4B
:101BD0002846FEF767FD08B90220F8E706B10CB900
:101BE0000320F4E706F0030010B904F0030008B185
:101BF0000620ECE72868A04204D804EB8701686857
:101C0000884201D20520E2E70FB90420DFE76846E9
:101C100005F05CF908B90720D9E7009805600120B4
:101C200000990871009886600098C4600098078247
:101C300005F00EFA0020CAE70C22002070B5044619
:101C40001748006D00EB8000154901EB8005154831
:101C5000007800F0020068B1022C02D0032C08D1F9
:101C600003E0284602F0A6FF03E0284602F08CFFBE
:101C700000BF12E00B48007800F0040068B109488A
:101C8000007820F00400074908700548406D20B135
:101C90000846007840F00200087005F097F970BD22
:101CA000FC3200200C2200203EB500BF9DF8000051
:101CB00020F00F00401C00909DF8000020F0F00084
:101CC0001030009000BF0B2228A168467CDF04463C
:101CD00000BF25463DB100BF27A240F20A21284699
:101CE000FCF70DFA00BF00BF4FF4107078DF044618
:101CF00000BF25463DB100BF1FA240F20D2128467E
:101D0000FCF7FDF900BF00BF0020019002904FF4E6
:101D1000C870ADF804004000ADF806000020ADF832
:101D200008004FF4C870ADF80A0001A87ADF044635
:101D300000BF25463DB100BF0FA240F21721284643
:101D4000FCF7DDF900BF00BF6FF0070077DF044646
:101D500000BF25463DB100BF07A240F21A21284628
:101D6000FCF7CDF900BF00BF3EBD00004E6F7264AE
:101D700069635F50726F78002E2E5C2E2E5C2E2EC3
:101D80005C6D61696E2E630070B505460DB1012072
:101D900070BD1848807B18B100201649887301E097
:101DA00000F0D0F81348007808281DD2DFE800F0D2
